{"abi":[{"type":"constructor","inputs":[{"name":"initialManagementKey","type":"address","internalType":"address"}],"stateMutability":"nonpayable"},{"type":"function","name":"addClaim","inputs":[{"name":"_topic","type":"uint256","internalType":"uint256"},{"name":"_scheme","type":"uint256","internalType":"uint256"},{"name":"_issuer","type":"address","internalType":"address"},{"name":"_signature","type":"bytes","internalType":"bytes"},{"name":"_data","type":"bytes","internalType":"bytes"},{"name":"_uri","type":"string","internalType":"string"}],"outputs":[{"name":"claimRequestId","type":"bytes32","internalType":"bytes32"}],"stateMutability":"nonpayable"},{"type":"function","name":"addKey","inputs":[{"name":"_key","type":"bytes32","internalType":"bytes32"},{"name":"_purpose","type":"uint256","internalType":"uint256"},{"name":"_type","type":"uint256","internalType":"uint256"}],"outputs":[{"name":"success","type":"bool","internalType":"bool"}],"stateMutability":"nonpayable"},{"type":"function","name":"approve","inputs":[{"name":"_id","type":"uint256","internalType":"uint256"},{"name":"_approve","type":"bool","internalType":"bool"}],"outputs":[{"name":"success","type":"bool","internalType":"bool"}],"stateMutability":"nonpayable"},{"type":"function","name":"execute","inputs":[{"name":"_to","type":"address","internalType":"address"},{"name":"_value","type":"uint256","internalType":"uint256"},{"name":"_data","type":"bytes","internalType":"bytes"}],"outputs":[{"name":"executionId","type":"uint256","internalType":"uint256"}],"stateMutability":"payable"},{"type":"function","name":"getClaim","inputs":[{"name":"_claimId","type":"bytes32","internalType":"bytes32"}],"outputs":[{"name":"topic","type":"uint256","internalType":"uint256"},{"name":"scheme","type":"uint256","internalType":"uint256"},{"name":"issuer","type":"address","internalType":"address"},{"name":"signature","type":"bytes","internalType":"bytes"},{"name":"data","type":"bytes","internalType":"bytes"},{"name":"uri","type":"string","internalType":"string"}],"stateMutability":"view"},{"type":"function","name":"getClaimIdsByTopic","inputs":[{"name":"_topic","type":"uint256","internalType":"uint256"}],"outputs":[{"name":"claimIds","type":"bytes32[]","internalType":"bytes32[]"}],"stateMutability":"view"},{"type":"function","name":"getKey","inputs":[{"name":"_key","type":"bytes32","internalType":"bytes32"}],"outputs":[{"name":"purposes","type":"uint256[]","internalType":"uint256[]"},{"name":"keyType","type":"uint256","internalType":"uint256"},{"name":"key","type":"bytes32","internalType":"bytes32"}],"stateMutability":"view"},{"type":"function","name":"getKeyPurposes","inputs":[{"name":"_key","type":"bytes32","internalType":"bytes32"}],"outputs":[{"name":"_purposes","type":"uint256[]","internalType":"uint256[]"}],"stateMutability":"view"},{"type":"function","name":"getKeysByPurpose","inputs":[{"name":"_purpose","type":"uint256","internalType":"uint256"}],"outputs":[{"name":"keys","type":"bytes32[]","internalType":"bytes32[]"}],"stateMutability":"view"},{"type":"function","name":"getRecoveredAddress","inputs":[{"name":"sig","type":"bytes","internalType":"bytes"},{"name":"dataHash","type":"bytes32","internalType":"bytes32"}],"outputs":[{"name":"addr","type":"address","internalType":"address"}],"stateMutability":"pure"},{"type":"function","name":"initialize","inputs":[{"name":"initialManagementKey","type":"address","internalType":"address"}],"outputs":[],"stateMutability":"nonpayable"},{"type":"function","name":"isClaimRevoked","inputs":[{"name":"_sig","type":"bytes","internalType":"bytes"}],"outputs":[{"name":"","type":"bool","internalType":"bool"}],"stateMutability":"view"},{"type":"function","name":"isClaimValid","inputs":[{"name":"_identity","type":"address","internalType":"contract IIdentity"},{"name":"claimTopic","type":"uint256","internalType":"uint256"},{"name":"sig","type":"bytes","internalType":"bytes"},{"name":"data","type":"bytes","internalType":"bytes"}],"outputs":[{"name":"claimValid","type":"bool","internalType":"bool"}],"stateMutability":"view"},{"type":"function","name":"keyHasPurpose","inputs":[{"name":"_key","type":"bytes32","internalType":"bytes32"},{"name":"_purpose","type":"uint256","internalType":"uint256"}],"outputs":[{"name":"result","type":"bool","internalType":"bool"}],"stateMutability":"view"},{"type":"function","name":"removeClaim","inputs":[{"name":"_claimId","type":"bytes32","internalType":"bytes32"}],"outputs":[{"name":"success","type":"bool","internalType":"bool"}],"stateMutability":"nonpayable"},{"type":"function","name":"removeKey","inputs":[{"name":"_key","type":"bytes32","internalType":"bytes32"},{"name":"_purpose","type":"uint256","internalType":"uint256"}],"outputs":[{"name":"success","type":"bool","internalType":"bool"}],"stateMutability":"nonpayable"},{"type":"function","name":"revokeClaim","inputs":[{"name":"_claimId","type":"bytes32","internalType":"bytes32"},{"name":"_identity","type":"address","internalType":"address"}],"outputs":[{"name":"","type":"bool","internalType":"bool"}],"stateMutability":"nonpayable"},{"type":"function","name":"revokeClaimBySignature","inputs":[{"name":"signature","type":"bytes","internalType":"bytes"}],"outputs":[],"stateMutability":"nonpayable"},{"type":"function","name":"revokedClaims","inputs":[{"name":"","type":"bytes","internalType":"bytes"}],"outputs":[{"name":"","type":"bool","internalType":"bool"}],"stateMutability":"view"},{"type":"function","name":"version","inputs":[],"outputs":[{"name":"","type":"string","internalType":"string"}],"stateMutability":"pure"},{"type":"event","name":"Approved","inputs":[{"name":"executionId","type":"uint256","indexed":true,"internalType":"uint256"},{"name":"approved","type":"bool","indexed":false,"internalType":"bool"}],"anonymous":false},{"type":"event","name":"ClaimAdded","inputs":[{"name":"claimId","type":"bytes32","indexed":true,"internalType":"bytes32"},{"name":"topic","type":"uint256","indexed":true,"internalType":"uint256"},{"name":"scheme","type":"uint256","indexed":false,"internalType":"uint256"},{"name":"issuer","type":"address","indexed":true,"internalType":"address"},{"name":"signature","type":"bytes","indexed":false,"internalType":"bytes"},{"name":"data","type":"bytes","indexed":false,"internalType":"bytes"},{"name":"uri","type":"string","indexed":false,"internalType":"string"}],"anonymous":false},{"type":"event","name":"ClaimChanged","inputs":[{"name":"claimId","type":"bytes32","indexed":true,"internalType":"bytes32"},{"name":"topic","type":"uint256","indexed":true,"internalType":"uint256"},{"name":"scheme","type":"uint256","indexed":false,"internalType":"uint256"},{"name":"issuer","type":"address","indexed":true,"internalType":"address"},{"name":"signature","type":"bytes","indexed":false,"internalType":"bytes"},{"name":"data","type":"bytes","indexed":false,"internalType":"bytes"},{"name":"uri","type":"string","indexed":false,"internalType":"string"}],"anonymous":false},{"type":"event","name":"ClaimRemoved","inputs":[{"name":"claimId","type":"bytes32","indexed":true,"internalType":"bytes32"},{"name":"topic","type":"uint256","indexed":true,"internalType":"uint256"},{"name":"scheme","type":"uint256","indexed":false,"internalType":"uint256"},{"name":"issuer","type":"address","indexed":true,"internalType":"address"},{"name":"signature","type":"bytes","indexed":false,"internalType":"bytes"},{"name":"data","type":"bytes","indexed":false,"internalType":"bytes"},{"name":"uri","type":"string","indexed":false,"internalType":"string"}],"anonymous":false},{"type":"event","name":"ClaimRevoked","inputs":[{"name":"signature","type":"bytes","indexed":true,"internalType":"bytes"}],"anonymous":false},{"type":"event","name":"Executed","inputs":[{"name":"executionId","type":"uint256","indexed":true,"internalType":"uint256"},{"name":"to","type":"address","indexed":true,"internalType":"address"},{"name":"value","type":"uint256","indexed":true,"internalType":"uint256"},{"name":"data","type":"bytes","indexed":false,"internalType":"bytes"}],"anonymous":false},{"type":"event","name":"ExecutionFailed","inputs":[{"name":"executionId","type":"uint256","indexed":true,"internalType":"uint256"},{"name":"to","type":"address","indexed":true,"internalType":"address"},{"name":"value","type":"uint256","indexed":true,"internalType":"uint256"},{"name":"data","type":"bytes","indexed":false,"internalType":"bytes"}],"anonymous":false},{"type":"event","name":"ExecutionRequested","inputs":[{"name":"executionId","type":"uint256","indexed":true,"internalType":"uint256"},{"name":"to","type":"address","indexed":true,"internalType":"address"},{"name":"value","type":"uint256","indexed":true,"internalType":"uint256"},{"name":"data","type":"bytes","indexed":false,"internalType":"bytes"}],"anonymous":false},{"type":"event","name":"KeyAdded","inputs":[{"name":"key","type":"bytes32","indexed":true,"internalType":"bytes32"},{"name":"purpose","type":"uint256","indexed":true,"internalType":"uint256"},{"name":"keyType","type":"uint256","indexed":true,"internalType":"uint256"}],"anonymous":false},{"type":"event","name":"KeyRemoved","inputs":[{"name":"key","type":"bytes32","indexed":true,"internalType":"bytes32"},{"name":"purpose","type":"uint256","indexed":true,"internalType":"uint256"},{"name":"keyType","type":"uint256","indexed":true,"internalType":"uint256"}],"anonymous":false}],"bytecode":{"object":"0x60803462000224576001600160401b0390601f62002def38819003918201601f19168301929184841183851017620001cc57808392604095865283396020928391810103126200022457516001600160a01b03811690819003620002245760065461ffff19168115620001e057610101176006558251918083019182528083528383019183831086841117620001cc5782855283519020915f958387526060600195868552856002898b20015501908282109082111762000178578552838152828652838252848620908154858355808610620001a2575b509086528186209084875b8181106200018c575050505081855282808587200155828552600281528385209081549168010000000000000000831015620001785784830180825583101562000164577f480000bb1edad8ca1470381cc334b1917fbd51c6531f3a623ea8e0ec7e38a6e99287928592879899528320015580a451612bc69081620002298239f35b634e487b7160e01b87526032600452602487fd5b634e487b7160e01b87526041600452602487fd5b8460ff84511693019281850155018590620000e2565b8288528580858a2092830192015b828110620001c0575050620000d7565b898155018690620001b0565b634e487b7160e01b5f52604160045260245ffd5b835162461bcd60e51b815260048101849052601f60248201527f696e76616c696420617267756d656e74202d207a65726f2061646472657373006044820152606490fd5b5f80fdfe60806040526004361015610011575f80fd5b5f3560e01c806312aaac70146101545780631d3812401461014f5780632646b2641461014a5780634eee424a1461014557806353d413c51461014057806354fd4d501461013b57806373c3370814610136578063747442d31461013157806380e9e9e11461012c5780639010f726146101275780639f7f9edd14610122578063b1a34e0d1461011d578063b61d27f614610118578063c0969a6e14610113578063c3b129e31461010e578063c4d66de814610109578063c9100bcb14610104578063d202158d146100ff578063d2345249146100fa5763fb307b34146100f5575f80fd5b6115ac565b611586565b61153f565b6114a2565b6112ac565b61125c565b6111f5565b61103f565b610f9c565b610e90565b610e2b565b610dba565b610d40565b610b5a565b610aec565b6107f7565b610556565b610534565b6101e9565b61018c565b9081518082526020808093019301915f5b828110610178575050505090565b83518552938101939281019260010161016a565b346101e55760203660031901126101e5576004355f5260016020526101d660405f2060018101546101c1600283015492611a58565b91604051938493606085526060850190610159565b91602084015260408301520390f35b5f80fd5b346101e55760603660031901126101e55760048035906024356044359160019061021e8260ff60065460081c161515146115ea565b30331480156103d8575b6102319061165b565b83856002610247825f52600160205260405f2090565b0154036103805750610269610264865f52600160205260405f2090565b611a58565b5f835b6102db575b505050506102908161028b855f52600160205260405f2090565b611b43565b6102a68361028b835f52600260205260405f2090565b604051927f480000bb1edad8ca1470381cc334b1917fbd51c6531f3a623ea8e0ec7e38a6e95f80a460018152602090f35b0390f35b815181101561037b57846102ef8284611b15565b5114610304576102fe90611a34565b8361026c565b6103778360405191829162461bcd60e51b8352820160809060208152602160208201527f436f6e666c6963743a204b657920616c72656164792068617320707572706f7360408201527f650000000000000000000000000000000000000000000000000000000000000060608201520190565b0390fd5b610271565b919050846002610398825f52600160205260405f2090565b01556103bf6103a5610479565b8481526103ba875f52600160205260405f2090565b611acc565b6103d1855f52600160205260405f2090565b0155610290565b506102316103ff6040516020810190338252602081526103f78161043b565b519020612845565b9050610228565b634e487b7160e01b5f52604160045260245ffd5b6060810190811067ffffffffffffffff82111761043657604052565b610406565b6040810190811067ffffffffffffffff82111761043657604052565b90601f8019910116810190811067ffffffffffffffff82111761043657604052565b604051906020820182811067ffffffffffffffff82111761043657604052565b67ffffffffffffffff811161043657601f01601f191660200190565b9291926104c182610499565b916104cf6040519384610457565b8294818452818301116101e5578281602093845f960137010152565b9080601f830112156101e557816020610506933591016104b5565b90565b60206003198201126101e5576004359067ffffffffffffffff82116101e557610506916004016104eb565b346101e557602061054c61054736610509565b611894565b6040519015158152f35b346101e55760203660031901126101e55760043560016105818160ff60065460081c161515146115ea565b30331480156107c9575b610594906125ff565b6105a6825f52600460205260405f2090565b5490811561075e575f816105c2845f52600560205260405f2090565b54905b61071b575b9161062a849261062461060c61060261070f99976105fc6105f661070a9b5f52600560205260405f2090565b91612288565b90611b2e565b90549060031b1c90565b9161061f865f52600560205260405f2090565b611b2e565b906118e1565b61064461063f835f52600560205260405f2090565b612310565b610656835f52600460205260405f2090565b015490827f3cf57863a89432c61c4a27073c6ee39e8a764bff5a05aebfbcdcdc80b2e6130a6001600160a01b036106a8600261069a855f52600460205260405f2090565b01546001600160a01b031690565b6106f960036106bf865f52600460205260405f2090565b0160046106d4875f52600460205260405f2090565b0160056106e9885f52600460205260405f2090565b0191604051958695169985612737565b0390a45f52600460205260405f2090565b6127bb565b60405160018152602090f35b90846107366106028361061f885f52600560205260405f2090565b146107585761074490611a34565b908082101561075357826105c5565b6105ca565b906105ca565b60405162461bcd60e51b815260206004820152602b60248201527f4e6f6e4578697374696e673a205468657265206973206e6f20636c61696d207760448201527f69746820746869732049440000000000000000000000000000000000000000006064820152608490fd5b506105946107f06040516020810190338252602081526107e88161043b565b5190206128dc565b905061058b565b346101e5576040806003193601126101e55760048035916024359060016108298160ff60065460081c161515146115ea565b3033148015610a81575b61083c9061165b565b61085c856002610854825f52600160205260405f2090565b015414612217565b80610872610264875f52600160205260405f2090565b945f915b6109df575b5061089a61089261088c8751612288565b87611b15565b519186611b15565b526108b6846108b1875f52600160205260405f2090565b612296565b6108cb61063f865f52600160205260405f2090565b805f6108df855f52600260205260405f2090565b54925b6109a4575b6109209061062461090d610602610950966105fc6105f68b5f52600260205260405f2090565b9161061f885f52600260205260405f2090565b61093561063f855f52600260205260405f2090565b610947865f52600160205260405f2090565b01549351612288565b15610985575b51927f585a4aef50f8267a92b32412b331b20f7f8b96f2245b253b9cc50dcc621d33975f80a460018152602090f35b61099f61099a855f52600160205260405f2090565b61234d565b610956565b866109be6106028361061f895f52600260205260405f2090565b146109da576109cc90611a34565b828110156109da57816108e2565b6108e7565b90846109eb8288611b15565b5114610a7b576109fa90611a34565b9081865114610a095782610876565b61037790845191829162461bcd60e51b8352820160809060208152602a60208201527f4e6f6e4578697374696e673a204b657920646f65736e2774206861766520737560408201527f636820707572706f73650000000000000000000000000000000000000000000060608201520190565b9061087b565b5061083c610a9f83516020810190338252602081526103f78161043b565b9050610833565b5f5b838110610ab75750505f910152565b8181015183820152602001610aa8565b90602091610ae081518092818552858086019101610aa6565b601f01601f1916010190565b346101e5575f3660031901126101e5576102d7604051610b0b8161043b565b600581527f322e322e310000000000000000000000000000000000000000000000000000006020820152604051918291602083526020830190610ac7565b6001600160a01b038116036101e557565b346101e55760403660031901126101e5576001600160a01b03602435610b7f81610b49565b610b95600160ff60065460081c161515146115ea565b3033148015610d10575b610ba89061165b565b604051907fc9100bcb0000000000000000000000000000000000000000000000000000000082526004356004830152816024815f958694165afa8015610d0b578290610c64575b610c349150610c16610c11610c0d610c0684611560565b5460ff1690565b1590565b6116cc565b610c2f610c2282611560565b805460ff19166001179055565b611787565b7f7f484e37f24c0a92f81dd74afa3027b3ea31f2e9fb6b9fa29fe9865f81ac55696040519280a260018152602090f35b503d8083833e610c748183610457565b81019060c081830312610d0757610c8e6040820151610b49565b606081015167ffffffffffffffff90818111610cff5783610cb0918401611762565b916080810151828111610d035784610cc9918301611762565b5060a0810151918211610cff570182601f82011215610cfb57610c3492816020610cf59351910161172b565b50610bef565b8380fd5b8480fd5b8580fd5b8280fd5b61177c565b50610ba8610d2f6040516020810190338252602081526103f78161043b565b9050610b9f565b801515036101e557565b346101e55760403660031901126101e557602061054c602435610d6281610d36565b610d78600160ff60065460081c161515146115ea565b600435612106565b602090816040818301928281528551809452019301915f5b828110610da6575050505090565b835185529381019392810192600101610d98565b346101e5576020806003193601126101e5576004355f526005815260405f209060405190818184549182815201935f52815f20915f905b828210610e14576102d785610e0881890382610457565b60405191829182610d80565b835486529485019460019384019390910190610df1565b346101e5576020806003193601126101e5576004355f526002815260405f209060405190818184549182815201935f52815f20915f905b828210610e79576102d785610e0881890382610457565b835486529485019460019384019390910190610e62565b346101e55760203660031901126101e55760043567ffffffffffffffff8082116101e557366023830112156101e55781600401359081116101e557602482019160248236920101116101e557610f5091610ef6600160ff60065460081c161515146115ea565b3033148015610f76575b610f099061165b565b610f2b60ff6040518484823760208186810160388152030190205416156116cc565b604051828282376020818481016038815203019020600160ff19825416179055611717565b7f7f484e37f24c0a92f81dd74afa3027b3ea31f2e9fb6b9fa29fe9865f81ac55695f80a2005b50610f09610f956040516020810190338252602081526103f78161043b565b9050610f00565b346101e55760c03660031901126101e557604435610fb981610b49565b67ffffffffffffffff6064358181116101e557610fda9036906004016104eb565b916084358281116101e557610ff39036906004016104eb565b60a4359283116101e557366023840112156101e5576102d79361102361102f9436906024816004013591016104b5565b92602435600435612380565b6040519081529081906020820190565b60603660031901126101e55760043561105781610b49565b6024359060443567ffffffffffffffff81116101e5576102d7926001600160a01b039261108b6111579336906004016104eb565b906110a2600160ff60065460081c161515146115ea565b7f8afcfabcb00e47a53a8fc3e9f23ff47ee1926194bb1350dd007c50b412a6cee85f54958261110688946110de865f52600360205260405f2090565b906001600160a01b031673ffffffffffffffffffffffffffffffffffffffff19825416179055565b85600161111b865f52600360205260405f2090565b015561113b856002611135875f52600360205260405f2090565b01611957565b6111455f54611a34565b5f551694859360405191829182611a47565b0390a4604080513360208083019182528252601f19939261117d92906103f79082610457565b1561119e57505061118d81611b80565b506040519081529081906020820190565b30141590816111bd575b501561102f576111b781611b80565b5061102f565b6040805133602082019081526111ef94509290916111e79190839081015b03908101835282610457565b519020612969565b5f6111a8565b346101e55760803660031901126101e55760043561121281610b49565b67ffffffffffffffff6044358181116101e5576112339036906004016104eb565b916064359182116101e55760209261125261054c9336906004016104eb565b91602435906117a7565b346101e55760403660031901126101e55760043567ffffffffffffffff81116101e55761129b61129260209236906004016104eb565b60243590612a99565b6001600160a01b0360405191168152f35b346101e55760203660031901126101e5576004356112c981610b49565b6001600160a01b0381161561140c57600654600191829160ff16158015611403575b6112f490612b0d565b611306600160ff196006541617600655565b61131a61010061ff00196006541617600655565b60405161134d8161133f6020820194859190916001600160a01b036020820193169052565b03601f198101835282610457565b519020806002611365825f52600160205260405f2090565b015561138d611372610479565b60018152611388835f52600160205260405f2090565b612b58565b6113aa826113a3835f52600160205260405f2090565b0160019055565b60015f5260026020526113dd817fe90b7bceb6e7df5418fb78d8ee546e97c83a08bbccc01a0644d599ccd2a7c2e0611b43565b7f480000bb1edad8ca1470381cc334b1917fbd51c6531f3a623ea8e0ec7e38a6e95f80a4005b50303b156112eb565b606460405162461bcd60e51b815260206004820152601f60248201527f696e76616c696420617267756d656e74202d207a65726f2061646472657373006044820152fd5b9491936001600160a01b03611494946105069896611486948952602089015216604087015260c0606087015260c0860190610ac7565b908482036080860152610ac7565b9160a0818403910152610ac7565b346101e55760203660031901126101e557600435805f52600460205260405f20906102d7825491600460018501549461153260056114f66001600160a01b03600285015416955f52600460205260405f2090565b0161152d604051936115168561150f8160038501611dc5565b0386610457565b6115266040518097819301611dc5565b0385610457565b61282a565b9260405196879687611450565b346101e55760403660031901126101e557602061054c602435600435612a08565b6020611579918160405193828580945193849201610aa6565b8101603881520301902090565b346101e557602060ff6115a061159b36610509565b611560565b54166040519015158152f35b346101e55760203660031901126101e5576004355f5260016020526102d76115d660405f20611a58565b604051918291602083526020830190610159565b156115f157565b608460405162461bcd60e51b815260206004820152603360248201527f496e746572616374696e67207769746820746865206c69627261727920636f6e60448201527f747261637420697320666f7262696464656e2e000000000000000000000000006064820152fd5b1561166257565b608460405162461bcd60e51b815260206004820152603060248201527f5065726d697373696f6e733a2053656e64657220646f6573206e6f742068617660448201527f65206d616e6167656d656e74206b6579000000000000000000000000000000006064820152fd5b156116d357565b606460405162461bcd60e51b815260206004820152601f60248201527f436f6e666c6963743a20436c61696d20616c7265616479207265766f6b6564006044820152fd5b81604051928392833781015f815203902090565b9092919261173881610499565b916117466040519384610457565b8294828452828201116101e5576020611760930190610aa6565b565b9080601f830112156101e55781516105069260200161172b565b6040513d5f823e3d90fd5b61179f90602060405192828480945193849201610aa6565b810103902090565b61184a9061186e9394926117df6040519485926001600160a01b03602085019516855260408401526060808401526080830190610ac7565b03926117f3601f1994858101835282610457565b51902060405161184181611835602082019485603c917f19457468657265756d205369676e6564204d6573736167653a0a3332000000008252601c8201520190565b03858101835282610457565b51902084612a99565b604080516001600160a01b0390921660208301908152926107e891839081016111db565b9081611883575b5061187e575f90565b600190565b61188d9150611894565b155f611875565b61189f60ff91611560565b541661187e575f90565b90600182811c921680156118d7575b60208310146118c357565b634e487b7160e01b5f52602260045260245ffd5b91607f16916118b8565b916118fa9183549060031b91821b915f19901b19161790565b9055565b818110611909575050565b5f81556001016118fe565b9190601f811161192357505050565b611760925f5260205f20906020601f840160051c8301931061194d575b601f0160051c01906118fe565b9091508190611940565b919091825167ffffffffffffffff81116104365761197f8161197984546118a9565b84611914565b602080601f83116001146119b95750819293945f926119ae575b50508160011b915f199060031b1c1916179055565b015190505f80611999565b90601f198316956119cd855f5260205f2090565b925f905b888210611a08575050836001959697106119f0575b505050811b019055565b01515f1960f88460031b161c191690555f80806119e6565b806001859682949686015181550195019301906119d1565b634e487b7160e01b5f52601160045260245ffd5b5f198114611a425760010190565b611a20565b906020610506928181520190610ac7565b906040519182815491828252602092838301915f52835f20935f905b828210611a8a5750505061176092500383610457565b855484526001958601958895509381019390910190611a74565b80546001825580600110611ab6575050565b611760915f52600160205f2091820191016118fe565b90611ad682611aa4565b905f52602090815f205f5b60018110611aef5750505050565b82518282015591830191600101611ae1565b634e487b7160e01b5f52603260045260245ffd5b8051821015611b295760209160051b010190565b611b01565b8054821015611b29575f5260205f2001905f90565b805490680100000000000000008210156104365781611b6a9160016118fa94018155611b2e565b819391549060031b91821b915f19901b19161790565b61050690611b9a600160ff60065460081c161515146115ea565b611e66565b15611ba657565b608460405162461bcd60e51b815260206004820152602760248201527f43616e6e6f7420617070726f76652061206e6f6e2d6578697374696e6720657860448201527f65637574696f6e000000000000000000000000000000000000000000000000006064820152fd5b15611c1757565b606460405162461bcd60e51b815260206004820152601860248201527f5265717565737420616c726561647920657865637574656400000000000000006044820152fd5b15611c6257565b606460405162461bcd60e51b815260206004820152601f60248201527f53656e64657220646f6573206e6f74206861766520616374696f6e206b6579006044820152fd5b15611cad57565b608460405162461bcd60e51b815260206004820152602360248201527f53656e64657220646f6573206e6f742068617665206d616e6167656d656e742060448201527f6b657900000000000000000000000000000000000000000000000000000000006064820152fd5b5f92918154611d25816118a9565b92600191808316908115611d7b5750600114611d42575b50505050565b9091929394505f52602090815f20905f915b858310611d6a575050505001905f808080611d3c565b805485840152918301918101611d54565b60ff191684525050508115159091020191505f808080611d3c565b3d15611dc0573d90611da782610499565b91611db56040519384610457565b82523d5f602084013e565b606090565b905f9291805491611dd5836118a9565b9182825260019384811690815f14611e325750600114611df55750505050565b90919394505f52602092835f2092845f945b838610611e1e57505050500101905f808080611d3c565b805485870183015294019385908201611e07565b9294505050602093945060ff191683830152151560051b0101905f808080611d3c565b906020610506928181520190611dc5565b611e725f548210611b9f565b611e9f611e9a610c0d6003611e8f855f52600360205260405f2090565b015460081c60ff1690565b611c10565b611ec1611eb4825f52600360205260405f2090565b546001600160a01b031690565b6001600160a01b039190821630036120da57604080513360208201908152611efa92611ef592906103f7908290810161133f565b611ca6565b807fb3932da477fe5d6c8ff2eafef050c0f3a1af18fc07121001482600f36f3715d860405180611f2f81906001602083019252565b0390a2611f576003611f49835f52600360205260405f2090565b01805460ff19166001179055565b5f80611f6e611eb4845f52600360205260405f2090565b611fa86001611f85865f52600360205260405f2090565b01546002611f9b875f52600360205260405f2090565b0160405192838092611d17565b03925af1611fb4611d96565b501561205e57611fe16003611fd1835f52600360205260405f2090565b01805461ff001916610100179055565b611ff6611eb4825f52600360205260405f2090565b907f1f920dbda597d7bf95035464170fa58d0a4b57f13a1c315ace6793b9f63688b8600161202c835f52600360205260405f2090565b0154936002612043845f52600360205260405f2090565b0193612056604051928392169582611e55565b0390a4600190565b612073611eb4825f52600360205260405f2090565b907fe10c49d9f7c71da23262367013434763cfdb2332267641728d25cd712c5c6a6860016120a9835f52600360205260405f2090565b01549360026120c0845f52600360205260405f2090565b01936120d3604051928392169582611e55565b0390a45f90565b604080513360208201908152612101926120fc92906111e7908290810161133f565b611c5b565b611efa565b6121125f548210611b9f565b61212f611e9a610c0d6003611e8f855f52600360205260405f2090565b6001612146611eb4835f52600360205260405f2090565b6001600160a01b039390841630036121f05760408051336020820190815261217a92611ef592906103f7908290810161133f565b604051811515815283907fb3932da477fe5d6c8ff2eafef050c0f3a1af18fc07121001482600f36f3715d890602090a21515036121c857611f576003611f49835f52600360205260405f2090565b6121ec91506121e16003915f52600360205260405f2090565b01805460ff19169055565b5f90565b604080513360208201908152612212926120fc92906111e7908290810161133f565b61217a565b1561221e57565b608460405162461bcd60e51b815260206004820152602160248201527f4e6f6e4578697374696e673a204b65792069736e27742072656769737465726560448201527f64000000000000000000000000000000000000000000000000000000000000006064820152fd5b5f19810191908211611a4257565b81519167ffffffffffffffff8311610436576801000000000000000083116104365781548383558084106122f4575b506020809101915f52805f20905f5b8481106122e2575050505050565b835183820155928101926001016122d4565b61230a90835f528460205f2091820191016118fe565b5f6122c5565b8054908115612339575f19918201916123298383611b2e565b909182549160031b1b1916905555565b634e487b7160e01b5f52603160045260245ffd5b60025f91805483825580612367575b508260018201550155565b8184526020842061237a918101906118fe565b5f61235c565b929490939461239b600160ff60065460081c161515146115ea565b30331480156125d9575b6123ae906125ff565b6001600160a01b03831694308603612550575b604080516001600160a01b038616602082019081529181018790526123e9816060810161133f565b51902096879486612402875f52600460205260405f2090565b55826001612418885f52600460205260405f2090565b0155612432846003611135895f52600460205260405f2090565b61244a826004611135895f52600460205260405f2090565b612462856005611135895f52600460205260405f2090565b8761248961247d600261069a8a5f52600460205260405f2090565b6001600160a01b031690565b1461251d57936125179161250b7f46149b18aa084502c3f12bc75e19eda8bda8d102b82cce8474677a6d0d5f43c5966124ce8961028b8c5f52600560205260405f2090565b60026124e28a5f52600460205260405f2090565b01906001600160a01b031673ffffffffffffffffffffffffffffffffffffffff19825416179055565b60405194859485612709565b0390a490565b507f3bab293fc00db832d7619a9299914251b8747c036867ec056cbd506f60135b13936125179160405194859485612709565b6040517fc0969a6e0000000000000000000000000000000000000000000000000000000081526020818061258a8b878b3060048601612685565b03818a5afa8015610d0b576125a6915f916125ab575b506126be565b6123c1565b6125cc915060203d81116125d2575b6125c48183610457565b810190612670565b5f6125a0565b503d6125ba565b506123ae6125f86040516020810190338252602081526107e88161043b565b90506123a5565b1561260657565b608460405162461bcd60e51b815260206004820152603260248201527f5065726d697373696f6e733a2053656e64657220646f6573206e6f742068617660448201527f6520636c61696d207369676e6572206b657900000000000000000000000000006064820152fd5b908160209103126101e5575161050681610d36565b9261050694926001600160a01b036126b0931685526020850152608060408501526080840190610ac7565b916060818403910152610ac7565b156126c557565b606460405162461bcd60e51b815260206004820152600d60248201527f696e76616c696420636c61696d000000000000000000000000000000000000006044820152fd5b9261272961050695936126b0938652608060208701526080860190610ac7565b908482036040860152610ac7565b926127576105069593612765938652608060208701526080860190611dc5565b908482036040860152611dc5565b916060818403910152611dc5565b61277d81546118a9565b9081612787575050565b81601f5f9311600114612798575055565b9080839182526127b7601f60208420940160051c8401600185016118fe565b5555565b60055f918281558260018201558260028201556127da60038201612773565b6127e660048201612773565b016127f181546118a9565b806127fb57505050565b82601f821160011461280c57505055565b90918082526127b7601f60208420940160051c8401600185016118fe565b9061176061283e9260405193848092611dc5565b0383610457565b5f5260018060205260405f206002604051916128608361041a565b61286981611a58565b83528381015460208401520154806040830152156128d6575f90825b612891575b5050505f90565b80519182518110156128d057836128a9828295611b15565b511480156128cb575b6128c5576128bf90611a34565b91612885565b50505090565b6128b2565b5061288a565b50505f90565b5f5260018060205260405f206002604051916128f78361041a565b61290081611a58565b83528381015460208401520154806040830152156128d6575f90825b612927575050505f90565b80519182518110156128d05761293e818594611b15565b5183811490811561295e575b506128c55761295890611a34565b9161291c565b60039150145f61294a565b5f5260018060205260405f20604051906129828261041a565b61298b81611a58565b82528281015460208301526002809101548060408401521561288a575f91835b6129b8575b505050505f90565b8051928351811015612a02576129cf818695611b15565b51838582149182156129f8575b50506129f1576129eb90611a34565b926129ab565b5050505090565b149050835f6129dc565b506129b0565b5f526001908160205260405f2090600260405192612a258461041a565b612a2e81611a58565b845284810154602085015201548060408401521561288a575f91835b612a5657505050505f90565b8051928351811015612a0257612a6d818695611b15565b5183858214918215612a8f575b50506129f157612a8990611a34565b92612a4a565b149050835f612a7a565b905f6041835103612b075760208301519060606040850151940151901a601b8110612af0575b9160209360809260ff5f9560405194855216868401526040830152606082015282805260015afa15610d0b575f5190565b601b90929192019060ff8211611a42579190612abf565b91505090565b15612b1457565b606460405162461bcd60e51b815260206004820152601e60248201527f496e697469616c206b65792077617320616c72656164792073657475702e00006044820152fd5b90612b6282611aa4565b905f52602090815f205f5b60018110612b7b5750505050565b825160ff168282015591830191600101612b6d56fea26469706673582212208663221647c61da7a8477a324032b24bfa52a00cab0b0150d3c7ea9dd535322364736f6c63430008140033","linkReferences":{}},"methodIdentifiers":{"addClaim(uint256,uint256,address,bytes,bytes,string)":"b1a34e0d","addKey(bytes32,uint256,uint256)":"1d381240","approve(uint256,bool)":"747442d3","execute(address,uint256,bytes)":"b61d27f6","getClaim(bytes32)":"c9100bcb","getClaimIdsByTopic(uint256)":"80e9e9e1","getKey(bytes32)":"12aaac70","getKeyPurposes(bytes32)":"fb307b34","getKeysByPurpose(uint256)":"9010f726","getRecoveredAddress(bytes,bytes32)":"c3b129e3","initialize(address)":"c4d66de8","isClaimRevoked(bytes)":"2646b264","isClaimValid(address,uint256,bytes,bytes)":"c0969a6e","keyHasPurpose(bytes32,uint256)":"d202158d","removeClaim(bytes32)":"4eee424a","removeKey(bytes32,uint256)":"53d413c5","revokeClaim(bytes32,address)":"73c33708","revokeClaimBySignature(bytes)":"9f7f9edd","revokedClaims(bytes)":"d2345249","version()":"54fd4d50"},"id":30}