{"abi":[{"type":"receive","stateMutability":"payable"},{"type":"function","name":"DEFAULT_DECIMALS","inputs":[],"outputs":[{"name":"","type":"uint8","internalType":"uint8"}],"stateMutability":"view"},{"type":"function","name":"DEFAULT_NAME","inputs":[],"outputs":[{"name":"","type":"string","internalType":"string"}],"stateMutability":"view"},{"type":"function","name":"DEFAULT_SYMBOL","inputs":[],"outputs":[{"name":"","type":"string","internalType":"string"}],"stateMutability":"view"},{"type":"function","name":"addAgent","inputs":[{"name":"_agent","type":"address","internalType":"address"}],"outputs":[],"stateMutability":"nonpayable"},{"type":"function","name":"allowance","inputs":[{"name":"_owner","type":"address","internalType":"address"},{"name":"_spender","type":"address","internalType":"address"}],"outputs":[{"name":"","type":"uint256","internalType":"uint256"}],"stateMutability":"view"},{"type":"function","name":"approve","inputs":[{"name":"_spender","type":"address","internalType":"address"},{"name":"_amount","type":"uint256","internalType":"uint256"}],"outputs":[{"name":"","type":"bool","internalType":"bool"}],"stateMutability":"nonpayable"},{"type":"function","name":"balanceOf","inputs":[{"name":"_userAddress","type":"address","internalType":"address"}],"outputs":[{"name":"","type":"uint256","internalType":"uint256"}],"stateMutability":"view"},{"type":"function","name":"batchBurn","inputs":[{"name":"_userAddresses","type":"address[]","internalType":"address[]"},{"name":"_amounts","type":"uint256[]","internalType":"uint256[]"}],"outputs":[],"stateMutability":"nonpayable"},{"type":"function","name":"batchForcedTransfer","inputs":[{"name":"_fromList","type":"address[]","internalType":"address[]"},{"name":"_toList","type":"address[]","internalType":"address[]"},{"name":"_amounts","type":"uint256[]","internalType":"uint256[]"}],"outputs":[],"stateMutability":"nonpayable"},{"type":"function","name":"batchFreezePartialTokens","inputs":[{"name":"_userAddresses","type":"address[]","internalType":"address[]"},{"name":"_amounts","type":"uint256[]","internalType":"uint256[]"}],"outputs":[],"stateMutability":"nonpayable"},{"type":"function","name":"batchMint","inputs":[{"name":"_toList","type":"address[]","internalType":"address[]"},{"name":"_amounts","type":"uint256[]","internalType":"uint256[]"}],"outputs":[],"stateMutability":"nonpayable"},{"type":"function","name":"batchSetAddressFrozen","inputs":[{"name":"_userAddresses","type":"address[]","internalType":"address[]"},{"name":"_freeze","type":"bool[]","internalType":"bool[]"}],"outputs":[],"stateMutability":"nonpayable"},{"type":"function","name":"batchTransfer","inputs":[{"name":"_toList","type":"address[]","internalType":"address[]"},{"name":"_amounts","type":"uint256[]","internalType":"uint256[]"}],"outputs":[],"stateMutability":"nonpayable"},{"type":"function","name":"batchUnfreezePartialTokens","inputs":[{"name":"_userAddresses","type":"address[]","internalType":"address[]"},{"name":"_amounts","type":"uint256[]","internalType":"uint256[]"}],"outputs":[],"stateMutability":"nonpayable"},{"type":"function","name":"burn","inputs":[{"name":"_userAddress","type":"address","internalType":"address"},{"name":"_amount","type":"uint256","internalType":"uint256"}],"outputs":[],"stateMutability":"nonpayable"},{"type":"function","name":"calculateTDS","inputs":[{"name":"_amount","type":"uint256","internalType":"uint256"}],"outputs":[{"name":"","type":"uint256","internalType":"uint256"}],"stateMutability":"view"},{"type":"function","name":"commitments","inputs":[{"name":"","type":"bytes32","internalType":"bytes32"}],"outputs":[{"name":"","type":"bool","internalType":"bool"}],"stateMutability":"view"},{"type":"function","name":"compliance","inputs":[],"outputs":[{"name":"","type":"address","internalType":"contract IModularCompliance"}],"stateMutability":"view"},{"type":"function","name":"decimals","inputs":[],"outputs":[{"name":"","type":"uint8","internalType":"uint8"}],"stateMutability":"view"},{"type":"function","name":"decreaseAllowance","inputs":[{"name":"_spender","type":"address","internalType":"address"},{"name":"_subtractedValue","type":"uint256","internalType":"uint256"}],"outputs":[{"name":"","type":"bool","internalType":"bool"}],"stateMutability":"nonpayable"},{"type":"function","name":"deposit","inputs":[{"name":"_commitment","type":"bytes32","internalType":"bytes32"}],"outputs":[],"stateMutability":"payable"},{"type":"function","name":"emergencyWithdraw","inputs":[],"outputs":[],"stateMutability":"nonpayable"},{"type":"function","name":"forcedTransfer","inputs":[{"name":"_from","type":"address","internalType":"address"},{"name":"_to","type":"address","internalType":"address"},{"name":"_amount","type":"uint256","internalType":"uint256"}],"outputs":[{"name":"","type":"bool","internalType":"bool"}],"stateMutability":"nonpayable"},{"type":"function","name":"freezePartialTokens","inputs":[{"name":"_userAddress","type":"address","internalType":"address"},{"name":"_amount","type":"uint256","internalType":"uint256"}],"outputs":[],"stateMutability":"nonpayable"},{"type":"function","name":"getContractBalance","inputs":[],"outputs":[{"name":"","type":"uint256","internalType":"uint256"}],"stateMutability":"view"},{"type":"function","name":"getFrozenTokens","inputs":[{"name":"_userAddress","type":"address","internalType":"address"}],"outputs":[{"name":"","type":"uint256","internalType":"uint256"}],"stateMutability":"view"},{"type":"function","name":"identityRegistry","inputs":[],"outputs":[{"name":"","type":"address","internalType":"contract IIdentityRegistry"}],"stateMutability":"view"},{"type":"function","name":"increaseAllowance","inputs":[{"name":"_spender","type":"address","internalType":"address"},{"name":"_addedValue","type":"uint256","internalType":"uint256"}],"outputs":[{"name":"","type":"bool","internalType":"bool"}],"stateMutability":"nonpayable"},{"type":"function","name":"init","inputs":[{"name":"_identityRegistry","type":"address","internalType":"address"},{"name":"_compliance","type":"address","internalType":"address"},{"name":"_name","type":"string","internalType":"string"},{"name":"_symbol","type":"string","internalType":"string"},{"name":"_decimals","type":"uint8","internalType":"uint8"},{"name":"_onchainID","type":"address","internalType":"address"}],"outputs":[],"stateMutability":"nonpayable"},{"type":"function","name":"initialize","inputs":[{"name":"_identityRegistry","type":"address","internalType":"address"},{"name":"_compliance","type":"address","internalType":"address"},{"name":"_name","type":"string","internalType":"string"},{"name":"_symbol","type":"string","internalType":"string"},{"name":"_decimals","type":"uint8","internalType":"uint8"},{"name":"_onchainID","type":"address","internalType":"address"},{"name":"_tdsCollector","type":"address","internalType":"address"}],"outputs":[],"stateMutability":"nonpayable"},{"type":"function","name":"initializeWithDefaults","inputs":[{"name":"_identityRegistry","type":"address","internalType":"address"},{"name":"_compliance","type":"address","internalType":"address"},{"name":"_onchainID","type":"address","internalType":"address"},{"name":"_tdsCollector","type":"address","internalType":"address"}],"outputs":[],"stateMutability":"nonpayable"},{"type":"function","name":"isAgent","inputs":[{"name":"_agent","type":"address","internalType":"address"}],"outputs":[{"name":"","type":"bool","internalType":"bool"}],"stateMutability":"view"},{"type":"function","name":"isFrozen","inputs":[{"name":"_userAddress","type":"address","internalType":"address"}],"outputs":[{"name":"","type":"bool","internalType":"bool"}],"stateMutability":"view"},{"type":"function","name":"mint","inputs":[{"name":"_to","type":"address","internalType":"address"},{"name":"_amount","type":"uint256","internalType":"uint256"}],"outputs":[],"stateMutability":"nonpayable"},{"type":"function","name":"name","inputs":[],"outputs":[{"name":"","type":"string","internalType":"string"}],"stateMutability":"view"},{"type":"function","name":"nullifierHashes","inputs":[{"name":"","type":"bytes32","internalType":"bytes32"}],"outputs":[{"name":"","type":"bool","internalType":"bool"}],"stateMutability":"view"},{"type":"function","name":"onchainID","inputs":[],"outputs":[{"name":"","type":"address","internalType":"address"}],"stateMutability":"view"},{"type":"function","name":"owner","inputs":[],"outputs":[{"name":"","type":"address","internalType":"address"}],"stateMutability":"view"},{"type":"function","name":"pause","inputs":[],"outputs":[],"stateMutability":"nonpayable"},{"type":"function","name":"paused","inputs":[],"outputs":[{"name":"","type":"bool","internalType":"bool"}],"stateMutability":"view"},{"type":"function","name":"recoveryAddress","inputs":[{"name":"_lostWallet","type":"address","internalType":"address"},{"name":"_newWallet","type":"address","internalType":"address"},{"name":"_investorOnchainID","type":"address","internalType":"address"}],"outputs":[{"name":"","type":"bool","internalType":"bool"}],"stateMutability":"nonpayable"},{"type":"function","name":"removeAgent","inputs":[{"name":"_agent","type":"address","internalType":"address"}],"outputs":[],"stateMutability":"nonpayable"},{"type":"function","name":"renounceOwnership","inputs":[],"outputs":[],"stateMutability":"nonpayable"},{"type":"function","name":"setAddressFrozen","inputs":[{"name":"_userAddress","type":"address","internalType":"address"},{"name":"_freeze","type":"bool","internalType":"bool"}],"outputs":[],"stateMutability":"nonpayable"},{"type":"function","name":"setCompliance","inputs":[{"name":"_compliance","type":"address","internalType":"address"}],"outputs":[],"stateMutability":"nonpayable"},{"type":"function","name":"setIdentityRegistry","inputs":[{"name":"_identityRegistry","type":"address","internalType":"address"}],"outputs":[],"stateMutability":"nonpayable"},{"type":"function","name":"setName","inputs":[{"name":"_name","type":"string","internalType":"string"}],"outputs":[],"stateMutability":"nonpayable"},{"type":"function","name":"setOnchainID","inputs":[{"name":"_onchainID","type":"address","internalType":"address"}],"outputs":[],"stateMutability":"nonpayable"},{"type":"function","name":"setSymbol","inputs":[{"name":"_symbol","type":"string","internalType":"string"}],"outputs":[],"stateMutability":"nonpayable"},{"type":"function","name":"setTDSCollector","inputs":[{"name":"_newCollector","type":"address","internalType":"address"}],"outputs":[],"stateMutability":"nonpayable"},{"type":"function","name":"setTDSRate","inputs":[{"name":"_newRate","type":"uint256","internalType":"uint256"}],"outputs":[],"stateMutability":"nonpayable"},{"type":"function","name":"symbol","inputs":[],"outputs":[{"name":"","type":"string","internalType":"string"}],"stateMutability":"view"},{"type":"function","name":"tdsCollector","inputs":[],"outputs":[{"name":"","type":"address","internalType":"address"}],"stateMutability":"view"},{"type":"function","name":"tdsRate","inputs":[],"outputs":[{"name":"","type":"uint256","internalType":"uint256"}],"stateMutability":"view"},{"type":"function","name":"totalSupply","inputs":[],"outputs":[{"name":"","type":"uint256","internalType":"uint256"}],"stateMutability":"view"},{"type":"function","name":"totalTDSCollected","inputs":[],"outputs":[{"name":"","type":"uint256","internalType":"uint256"}],"stateMutability":"view"},{"type":"function","name":"transfer","inputs":[{"name":"_to","type":"address","internalType":"address"},{"name":"_amount","type":"uint256","internalType":"uint256"}],"outputs":[{"name":"","type":"bool","internalType":"bool"}],"stateMutability":"nonpayable"},{"type":"function","name":"transferFrom","inputs":[{"name":"_from","type":"address","internalType":"address"},{"name":"_to","type":"address","internalType":"address"},{"name":"_amount","type":"uint256","internalType":"uint256"}],"outputs":[{"name":"","type":"bool","internalType":"bool"}],"stateMutability":"nonpayable"},{"type":"function","name":"transferFromWithTDS","inputs":[{"name":"_from","type":"address","internalType":"address"},{"name":"_to","type":"address","internalType":"address"},{"name":"_amount","type":"uint256","internalType":"uint256"}],"outputs":[{"name":"","type":"bool","internalType":"bool"}],"stateMutability":"nonpayable"},{"type":"function","name":"transferOwnership","inputs":[{"name":"newOwner","type":"address","internalType":"address"}],"outputs":[],"stateMutability":"nonpayable"},{"type":"function","name":"transferWithTDS","inputs":[{"name":"_to","type":"address","internalType":"address"},{"name":"_amount","type":"uint256","internalType":"uint256"}],"outputs":[{"name":"","type":"bool","internalType":"bool"}],"stateMutability":"nonpayable"},{"type":"function","name":"unfreezePartialTokens","inputs":[{"name":"_userAddress","type":"address","internalType":"address"},{"name":"_amount","type":"uint256","internalType":"uint256"}],"outputs":[],"stateMutability":"nonpayable"},{"type":"function","name":"unpause","inputs":[],"outputs":[],"stateMutability":"nonpayable"},{"type":"function","name":"version","inputs":[],"outputs":[{"name":"","type":"string","internalType":"string"}],"stateMutability":"pure"},{"type":"function","name":"withdraw","inputs":[{"name":"_amount","type":"uint256","internalType":"uint256"},{"name":"_nullifierHash","type":"bytes32","internalType":"bytes32"},{"name":"_proof","type":"bytes","internalType":"bytes"}],"outputs":[],"stateMutability":"nonpayable"},{"type":"event","name":"AddressFrozen","inputs":[{"name":"_userAddress","type":"address","indexed":true,"internalType":"address"},{"name":"_isFrozen","type":"bool","indexed":true,"internalType":"bool"},{"name":"_owner","type":"address","indexed":true,"internalType":"address"}],"anonymous":false},{"type":"event","name":"AgentAdded","inputs":[{"name":"_agent","type":"address","indexed":true,"internalType":"address"}],"anonymous":false},{"type":"event","name":"AgentRemoved","inputs":[{"name":"_agent","type":"address","indexed":true,"internalType":"address"}],"anonymous":false},{"type":"event","name":"Approval","inputs":[{"name":"owner","type":"address","indexed":true,"internalType":"address"},{"name":"spender","type":"address","indexed":true,"internalType":"address"},{"name":"value","type":"uint256","indexed":false,"internalType":"uint256"}],"anonymous":false},{"type":"event","name":"ComplianceAdded","inputs":[{"name":"_compliance","type":"address","indexed":true,"internalType":"address"}],"anonymous":false},{"type":"event","name":"Deposit","inputs":[{"name":"user","type":"address","indexed":true,"internalType":"address"},{"name":"amount","type":"uint256","indexed":false,"internalType":"uint256"},{"name":"commitment","type":"bytes32","indexed":false,"internalType":"bytes32"}],"anonymous":false},{"type":"event","name":"IdentityRegistryAdded","inputs":[{"name":"_identityRegistry","type":"address","indexed":true,"internalType":"address"}],"anonymous":false},{"type":"event","name":"Initialized","inputs":[{"name":"version","type":"uint8","indexed":false,"internalType":"uint8"}],"anonymous":false},{"type":"event","name":"OwnershipTransferred","inputs":[{"name":"previousOwner","type":"address","indexed":true,"internalType":"address"},{"name":"newOwner","type":"address","indexed":true,"internalType":"address"}],"anonymous":false},{"type":"event","name":"Paused","inputs":[{"name":"_userAddress","type":"address","indexed":false,"internalType":"address"}],"anonymous":false},{"type":"event","name":"RecoverySuccess","inputs":[{"name":"_lostWallet","type":"address","indexed":true,"internalType":"address"},{"name":"_newWallet","type":"address","indexed":true,"internalType":"address"},{"name":"_investorOnchainID","type":"address","indexed":true,"internalType":"address"}],"anonymous":false},{"type":"event","name":"TDSCollectorUpdated","inputs":[{"name":"oldCollector","type":"address","indexed":false,"internalType":"address"},{"name":"newCollector","type":"address","indexed":false,"internalType":"address"}],"anonymous":false},{"type":"event","name":"TDSDeducted","inputs":[{"name":"user","type":"address","indexed":true,"internalType":"address"},{"name":"grossAmount","type":"uint256","indexed":false,"internalType":"uint256"},{"name":"tdsAmount","type":"uint256","indexed":false,"internalType":"uint256"},{"name":"netAmount","type":"uint256","indexed":false,"internalType":"uint256"}],"anonymous":false},{"type":"event","name":"TDSRateUpdated","inputs":[{"name":"oldRate","type":"uint256","indexed":false,"internalType":"uint256"},{"name":"newRate","type":"uint256","indexed":false,"internalType":"uint256"}],"anonymous":false},{"type":"event","name":"TokensFrozen","inputs":[{"name":"_userAddress","type":"address","indexed":true,"internalType":"address"},{"name":"_amount","type":"uint256","indexed":false,"internalType":"uint256"}],"anonymous":false},{"type":"event","name":"TokensUnfrozen","inputs":[{"name":"_userAddress","type":"address","indexed":true,"internalType":"address"},{"name":"_amount","type":"uint256","indexed":false,"internalType":"uint256"}],"anonymous":false},{"type":"event","name":"Transfer","inputs":[{"name":"from","type":"address","indexed":true,"internalType":"address"},{"name":"to","type":"address","indexed":true,"internalType":"address"},{"name":"value","type":"uint256","indexed":false,"internalType":"uint256"}],"anonymous":false},{"type":"event","name":"Unpaused","inputs":[{"name":"_userAddress","type":"address","indexed":false,"internalType":"address"}],"anonymous":false},{"type":"event","name":"UpdatedTokenInformation","inputs":[{"name":"_newName","type":"string","indexed":true,"internalType":"string"},{"name":"_newSymbol","type":"string","indexed":true,"internalType":"string"},{"name":"_newDecimals","type":"uint8","indexed":false,"internalType":"uint8"},{"name":"_newVersion","type":"string","indexed":false,"internalType":"string"},{"name":"_newOnchainID","type":"address","indexed":true,"internalType":"address"}],"anonymous":false},{"type":"event","name":"Withdrawal","inputs":[{"name":"user","type":"address","indexed":true,"internalType":"address"},{"name":"amount","type":"uint256","indexed":false,"internalType":"uint256"},{"name":"nullifierHash","type":"bytes32","indexed":false,"internalType":"bytes32"}],"anonymous":false}],"bytecode":{"object":"0x608080604052346100255760ff19606e5416606e55606460a155614b92908161002a8239f35b5f80fdfe608080604052600436101561001c575b50361561001a575f80fd5b005b5f90813560e01c90816306fdde031461324657508063095ea7b31461321f5780630cf39ef8146130fd578063125c4a3314613028578063134e18f414612ffe578063158b1a5714612fc657806317cc915c14612f9757806318160ddd14612f795780631a7af37914612ec75780631f57801314612ea05780631fe56f7d14612da05780631ffbb06414612d7c57806323b872dd14612d53578063313ce56714612d325780633950935114612ce95780633d1ddc5b14612c305780633f4ba83a14612b8f57806340c10f19146129c257806342a47abc146129095780634710362d146127f65780634a6cc677146126475780634a9f14d1146125885780634e50c9e71461255a57806354fd4d501461253e5780635c975abb1461251b5780636290865d146124f457806368573107146122c057806369af4765146121a75780636f9fb98a1461218b57806370a0823114612153578063715018a6146120f857806375135d2d14611e30578063839df94514611e015780638456cb5914611d9d57806384e7984214611cc757806388d695b214611c685780638da5cb5b14611c415780639285948a14611c0057806395d89b4114611b2f57806397a6278e14611a3557806398c6964814611a195780639dc29fac146118a75780639fc1d0e714611881578063a457c2d714611826578063a9059cbb146117e5578063aa0a817114611741578063aba6370514611717578063b214faa5146114f3578063b5d7663114611314578063b84c8246146111ff578063bb6bfa65146111e1578063c233d5a7146111ad578063c47f00271461100b578063c5008f4614610fef578063c69c09cf14610f66578063cbf3f86114610ed9578063d4af891014610ddc578063db2e21bc14610d8b578063dd62ed3e14610d3d578063e583983614610d00578063f2fde38b14610c59578063f898178914610b57578063f91b619c1461042d578063fb2732081461040f5763fc7e5fa80361000f573461040c576102fd366134a5565b909192845b84811061030d578580f35b61032061031b828785613a8f565b613ab3565b6001600160a01b03610333838688613a8f565b35916103466103413361362c565b6139c5565b1690818852602090606682526040892054606d9081845261036b8360408d2054613970565b116103c957918184936103ad7fa065e63c631c86f1b9f66a4a2f63f2093bf1c2168d23290259dbd969e0222a459460408e6103c49a9981528487522054613970565b90858d52835260408c2055604051908152a2613a81565b610302565b6064836040519062461bcd60e51b825280600483015260248201527f416d6f756e74206578636565647320617661696c61626c652062616c616e63656044820152fd5b80fd5b503461040c578060031936011261040c57602060a154604051908152f35b503461040c5760c036600319011261040c57610447613326565b61044f61333c565b60443567ffffffffffffffff8111610b535761046f903690600401613446565b9160643567ffffffffffffffff8111610b4f57610490903690600401613446565b610498613464565b906104a1613352565b9086549560ff8760081c161596878098610b42575b8015610b2b575b15610ac15760ff198116600117895587610ab0575b506001600160a01b0360335416610a6c576001600160a01b038516151580610a5a575b6104fe906135e1565b6040516020810190602082526105298161051b60408201866132e8565b03601f1981018352826133de565b5190206040516020810190602082525f60408201526040815261054b816133c2565b519020141580610a0b575b61055f9061369c565b601260ff8516116109c75761058360ff895460081c1661057e81614958565b614958565b61058c33614a21565b80519067ffffffffffffffff82116109b35781906105b4826105af6069546136e7565b61378f565b602090601f831160011461092c578a92610921575b50508160011b915f199060031b1c1916176069555b80519067ffffffffffffffff821161090d57610604826105ff606a546136e7565b61371f565b602090601f831160011461087c579180600194926001600160a01b039796948b92610871575b50505f19600383901b1c191690841b17606a555b606b549174ffffffffffffffffffffffffffffffffffffffff0092839260ff7fffffffffffffffffffffff00000000000000000000000000000000000000000094859260081b16931691161717606b55606e54918360ff19841617606e556106a46149c9565b8460081b1691161717606e55167fd2be862d755bca7e0d39772b2cab3a5578da9c285f69199f4c063c2294a7f36c8480a26106dd6149c9565b826001600160a01b03606f54168061082d575b50506001600160a01b0316828181606f54826001600160a01b0319821617606f551617803b1561082957818091602460405180948193631ffad50160e11b83523060048401525af1801561081e57610806575b50807f7f3a888862559648ec01d97deb7b5012bff86dc91e654a1de397170db40e35b691a2606b546107736137ff565b61077b613838565b7f6a1105ac8148a3c319adbc369f9072573e8a11d3a3d195e067e7c40767ec54d16107c56107a76138d3565b9360405191829160ff6001600160a01b038960081c16981683613956565b0390a46107cf5780f35b61ff001981541681557f7f26b83ff96e1f2b6a682f133852f6798a09c465da95921460cefb3847402498602060405160018152a180f35b61080f9061337e565b61081a57825f610743565b8280fd5b6040513d84823e3d90fd5b5080fd5b803b156108295781809160246040518094819363040db3b560e41b83523060048401525af1801561081e57156106f0576108669061337e565b61081a57825f6106f0565b015190505f8061062a565b90606a89527f116fea137db6e131133e7f2bab296045d8f41cc5607279db17b218cab0929a5191895b601f19851681106108f55750926001949285926001600160a01b0398979583601f198116106108dd575b505050811b01606a5561063e565b01515f1960f88460031b161c191690555f80806108cf565b919260206001819286850151815501940192016108a5565b602488634e487b7160e01b81526041600452fd5b015190505f806105c9565b925060698a527f7fb4302e8e91f9110a6554c2c0a24601252c2a42c2220ca988efcfe399914308908a935b601f1984168510610998576001945083601f19811610610980575b505050811b016069556105de565b01515f1960f88460031b161c191690555f8080610972565b81810151835560209485019460019093019290910190610957565b602489634e487b7160e01b81526041600452fd5b606460405162461bcd60e51b815260206004820152601960248201527f646563696d616c73206265747765656e203020616e64203138000000000000006044820152fd5b5061055f604051602081019060208252610a2c8161051b60408201886132e8565b5190206040516020810190602082525f604082015260408152610a4e816133c2565b51902014159050610556565b506001600160a01b03861615156104f5565b606460405162461bcd60e51b815260206004820152601360248201527f616c726561647920696e697469616c697a6564000000000000000000000000006044820152fd5b61ffff19166101011788555f6104d2565b608460405162461bcd60e51b815260206004820152602e60248201527f496e697469616c697a61626c653a20636f6e747261637420697320616c72656160448201527f647920696e697469616c697a65640000000000000000000000000000000000006064820152fd5b50303b1580156104bd5750600160ff8216146104bd565b50600160ff8216106104b6565b8480fd5b8380fd5b503461040c57602036600319011261040c57610b71613326565b610b796149c9565b6001600160a01b03908282606f541680610c15575b505016818181606f54826001600160a01b0319821617606f551617803b1561082957818091602460405180948193631ffad50160e11b83523060048401525af1801561081e57610c01575b50807f7f3a888862559648ec01d97deb7b5012bff86dc91e654a1de397170db40e35b691a280f35b610c0a9061337e565b61082957815f610bd9565b803b156108295781809160246040518094819363040db3b560e41b83523060048401525af1801561081e5715610b8e57610c4e9061337e565b61081a57825f610b8e565b503461040c57602036600319011261040c57610c73613326565b610c7b6149c9565b6001600160a01b03811615610c9657610c9390614a21565b80f35b608460405162461bcd60e51b815260206004820152602660248201527f4f776e61626c653a206e6577206f776e657220697320746865207a65726f206160448201527f64647265737300000000000000000000000000000000000000000000000000006064820152fd5b503461040c57602036600319011261040c5760ff60406020926001600160a01b03610d29613326565b168152606c84522054166040519015158152f35b503461040c57604036600319011261040c57610d57613326565b6040610d6161333c565b926001600160a01b03809316815260676020522091165f52602052602060405f2054604051908152f35b503461040c578060031936011261040c57610da46149c9565b808080806001600160a01b03603354164790828215610dd3575bf115610dc75780f35b604051903d90823e3d90fd5b506108fc610dbe565b503461040c5760031960803682011261082957610df7613326565b90610e0061333c565b90610e09613368565b606435936001600160a01b0391828616809603610ed55785610e2d88971515614a68565b6001600160a01b031960a254161760a255610e46613525565b610e4e6135a8565b90303b15610ed15787958592610e91610ea093856040519b8c9a8b9a633e46d86760e21b8c521660048b015216602489015260c0604489015260c48801906132e8565b918683030160648701526132e8565b91601260848501521660a4830152038183305af1801561081e57610ec15750f35b610eca9061337e565b61040c5780f35b8780fd5b5f80fd5b503461040c57602036600319011261040c576001600160a01b03610efb613326565b610f036149c9565b606e5474ffffffffffffffffffffffffffffffffffffffff001974ffffffffffffffffffffffffffffffffffffffff008360081b16911617606e55167fd2be862d755bca7e0d39772b2cab3a5578da9c285f69199f4c063c2294a7f36c8280a280f35b503461040c57604036600319011261040c57610f80613326565b6024359081151590818303610b53576001600160a01b03610fc691610fa76103413361362c565b1692838552606c602052604085209060ff801983541691151516179055565b33917f7fa523c84ab8d7fc5b72f08b9e46dbbf10c39e119a075b3e317002d14bc9f4368480a480f35b503461040c578060031936011261040c57602060405160128152f35b503461040c5761101a3661355e565b6110259291926149c9565b6040519260209061107c8286018661103e86858461399e565b0396611052601f19988981018352826133de565b519020604051848101908582525f604082015260408152611072816133c2565b519020141561369c565b67ffffffffffffffff83116111995761109a836105af6069546136e7565b8391601f8411600114611118575083839495509261110d575b50508160011b915f199060031b1c1916176069555b606b546110d36137ff565b6110db613838565b7f6a1105ac8148a3c319adbc369f9072573e8a11d3a3d195e067e7c40767ec54d16111076107a76138d3565b0390a480f35b013590505f806110b3565b9194831694606985527f7fb4302e8e91f9110a6554c2c0a24601252c2a42c2220ca988efcfe3999143089285905b878210611181575050836001959610611168575b505050811b016069556110c8565b01355f19600384901b60f8161c191690555f808061115a565b80600184968294958701358155019501920190611146565b602484634e487b7160e01b81526041600452fd5b503461040c578060031936011261040c576111dd6111c96135a8565b6040519182916020835260208301906132e8565b0390f35b503461040c578060031936011261040c57602060a354604051908152f35b503461040c5761120e3661355e565b6112199291926149c9565b604051926020906112328286018661103e86858461399e565b67ffffffffffffffff831161119957611250836105ff606a546136e7565b8391601f84116001146112935750838394955092611288575b50508160011b915f199060031b1c191617606a55606b546110d36137ff565b013590505f80611269565b9194831694606a85527f116fea137db6e131133e7f2bab296045d8f41cc5607279db17b218cab0929a519285905b8782106112fc5750508360019596106112e3575b505050811b01606a556110c8565b01355f19600384901b60f8161c191690555f80806112d5565b806001849682949587013581550195019201906112c1565b503461040c57611323366134f0565b9092606e5461133560ff821615613a36565b6040519463b9209e3360e01b86526001600160a01b0395869283831660048301528160248160209a8b9460081c165afa9081156114e8579061137e9185916114bb575b50614b11565b6040828616938481526067885220335f52865260405f205492848410611451576113e79594926113df94926113da926127106113bc60a15488614afe565b04926113c88488613991565b8481956113f0575b5050505086614561565b613991565b903390614843565b60405160018152f35b611420817f26ba5d65fe51cc055ccbe2fcbd0c98cfc9677e185b1095d5a53f349a680a4a5f9460a254168d614561565b61142c8160a354613970565b60a355604080518a81526020810192909252810191909152606090a25f8083816113d0565b6084876040519062461bcd60e51b82526004820152602860248201527f45524332303a207472616e7366657220616d6f756e742065786365656473206160448201527f6c6c6f77616e63650000000000000000000000000000000000000000000000006064820152fd5b6114db9150883d8a116114e1575b6114d381836133de565b810190613b5d565b5f611378565b503d6114c9565b6040513d86823e3d90fd5b5060208060031936011261082957600435606e549161151560ff841615613a36565b34156116d35760405163b9209e3360e01b815233600482015281816024816001600160a01b03809860081c165afa80156116c85761155a9186916116ab575b50614ab3565b81845260a4815260ff6040852054166116675761271061157c60a15434614afe565b04846115888234613991565b9482159081156115e8575b50508390525060a4815260408420805460ff191660011790556115b683336146ba565b6040519283528201527f1a771fe656018364a9369da21954bb3081cb08b0196c27e43ca59c7cae87273760403392a280f35b82848193829360a2541690839061165e575bf1156114e85761160c8160a354613970565b60a3557f26ba5d65fe51cc055ccbe2fcbd0c98cfc9677e185b1095d5a53f349a680a4a5f6040518061165287339534846040919493926060820195825260208201520152565b0390a25f848180611593565b506108fc6115fa565b6064906040519062461bcd60e51b82526004820152601960248201527f436f6d6d69746d656e7420616c726561647920657869737473000000000000006044820152fd5b6116c29150833d85116114e1576114d381836133de565b5f611554565b6040513d87823e3d90fd5b6064906040519062461bcd60e51b82526004820152601060248201527f4d757374206465706f73697420455448000000000000000000000000000000006044820152fd5b503461040c578060031936011261040c5760206001600160a01b03606b5460081c16604051908152f35b503461040c57602036600319011261040c5760043561175e6149c9565b6103e881116117a15760407fcfe4e1608ea0076b765194155ac15428bcdd5280fa116bdd0d60cc9dfdb7fe309160a154908060a15582519182526020820152a180f35b606460405162461bcd60e51b815260206004820152601a60248201527f54445320726174652063616e6e6f7420657863656564203130250000000000006044820152fd5b503461040c57604036600319011261040c57602061181c611804613326565b61181360ff606e541615613a36565b602435906141ef565b6040519015158152f35b503461040c57604036600319011261040c57611876906040611846613326565b913381526067602052206001600160a01b0382165f5260205261186f60243560405f2054613991565b9033614843565b602060405160018152f35b503461040c57602061181c611895366134f0565b916118a26103413361362c565b6143c2565b503461040c57604036600319011261040c576118c1613326565b906024356118d16103413361362c565b6001600160a01b03928381169384845260209460668652836040862054106119d5578495818652606681526119136040872054606d8352604088205490613991565b9081861161197a575b505050611929838361476c565b606f541691823b156119755760405163469753b960e11b81526001600160a01b03909216600483015260248201529082908290818381604481015b03925af1801561081e57610ec15750f35b505050fd5b6119a57f9bed35cb62ad0dba04f9d5bfee4b5bc91443e77da8a65c4c84834c51bb08b0d69287613991565b838852606d82526119ba8160408a2054613991565b848952606d83526040892055604051908152a25f808061191c565b6064866040519062461bcd60e51b82526004820152601d60248201527f63616e6e6f74206275726e206d6f7265207468616e2062616c616e63650000006044820152fd5b503461040c578060031936011261040c576111dd6111c9613525565b503461040c57602036600319011261040c57611a4f613326565b611a576149c9565b6001600160a01b03811690611a6d8215156135e1565b611a768161362c565b15611ac557611a96906001600160a01b03165f52606560205260405f2090565b805460ff191690557fed9c8ad8d5a0a66898ea49d2956929c93ae2e8bd50281b2ed897c5d1a6737e0b8280a280f35b608460405162461bcd60e51b815260206004820152602160248201527f526f6c65733a206163636f756e7420646f6573206e6f74206861766520726f6c60448201527f65000000000000000000000000000000000000000000000000000000000000006064820152fd5b503461040c578060031936011261040c576040519080606a54611b51816136e7565b80855291600191808316908115611bd65750600114611b7b575b6111dd856111c9818703826133de565b9250606a83527f116fea137db6e131133e7f2bab296045d8f41cc5607279db17b218cab0929a515b828410611bbe5750505081016020016111c9826111dd611b6b565b80546020858701810191909152909301928101611ba3565b8695506111dd969350602092506111c994915060ff191682840152151560051b8201019293611b6b565b503461040c57606036600319011261040c57602061181c611c1f613326565b611c2761333c565b611c2f613368565b91611c3c6103413361362c565b613dac565b503461040c578060031936011261040c5760206001600160a01b0360335416604051908152f35b503461040c57611c77366134a5565b9091845b818110611c86578580f35b80611cbc611c9b61031b611cc294868a613a8f565b611ca6838789613a8f565b3590611cb760ff606e541615613a36565b6141ef565b50613a81565b611c7b565b503461040c57602036600319011261040c57611ce1613326565b611ce96149c9565b6001600160a01b03811690611cff8215156135e1565b611d088161362c565b611d5957611d27906001600160a01b03165f52606560205260405f2090565b805460ff191660011790557ff68e73cec97f2d70aa641fb26e87a4383686e2efacb648f2165aeb02ac562ec58280a280f35b606460405162461bcd60e51b815260206004820152601f60248201527f526f6c65733a206163636f756e7420616c72656164792068617320726f6c65006044820152fd5b503461040c578060031936011261040c57611dba6103413361362c565b6001606e54611dcc60ff821615613a36565b60ff191617606e557f62e78cea01bee320cd4e420270b5ea74000d11b0c9f74754ebdbfc544b05a2586020604051338152a180f35b503461040c57602036600319011261040c5760ff6040602092600435815260a484522054166040519015158152f35b503461040c57606036600319011261040c576024803560043560443567ffffffffffffffff8111610b4f5736602382011215610b4f57611e799036908581600401359101613400565b90606e5493611e8b60ff861615613a36565b81156120b45783865260209260a5845260ff6040882054166120715760405163b9209e3360e01b8152336004820152848184816001600160a01b03809b60081c165afa801561206657611ee491899161204f5750614ab3565b511561200c5750612710611efa60a15483614afe565b0485611f068284613991565b85825260a5855260408220805460ff1916600117905595611f27843361476c565b8180888015612002575b8280929181923390f115611ff5578215908115611f80575b50505050506040519283528201527f806bc37112176c187cccea4249aea74827b609b5e40d595301442638bfd5736760403392a280f35b82848193829360a25416908390611fec575bf1156116c8578481611fc77f26ba5d65fe51cc055ccbe2fcbd0c98cfc9677e185b1095d5a53f349a680a4a5f9360a354613970565b60a3556040805194855260208501919091528301523391606090a25f80858180611f49565b506108fc611f92565b50604051903d90823e3d90fd5b6108fc9150611f31565b82600d6064926040519262461bcd60e51b845260048401528201527f496e76616c69642070726f6f66000000000000000000000000000000000000006044820152fd5b6116c29150863d88116114e1576114d381836133de565b6040513d8a823e3d90fd5b6064846016846040519262461bcd60e51b845260048401528201527f4e756c6c696669657220616c72656164792075736564000000000000000000006044820152fd5b606490601d6040519162461bcd60e51b8352602060048401528201527f416d6f756e74206d7573742062652067726561746572207468616e20300000006044820152fd5b503461040c578060031936011261040c576121116149c9565b5f6001600160a01b036033546001600160a01b03198116603355167f8be0079c531659141344cd1fd0a4f28419497f9722a3daafe3b4186f6b6457e08280a380f35b503461040c57602036600319011261040c5760406020916001600160a01b0361217a613326565b168152606683522054604051908152f35b503461040c578060031936011261040c57602047604051908152f35b503461040c57604036600319011261040c576121c1613326565b606e54906024356121d560ff841615613a36565b60405163b9209e3360e01b81526020816024816001600160a01b038098818916600484015260081c165afa9081156116c8579061221b9161187696916122a85750614b11565b61271061222a60a15483614afe565b04926122368483613991565b848195612248575b5050505033614561565b612278817f26ba5d65fe51cc055ccbe2fcbd0c98cfc9677e185b1095d5a53f349a680a4a5f9460a2541633614561565b6122848160a354613970565b60a3556040805194855260208501919091528301523391606090a25f80838161223e565b6114db915060203d81116114e1576114d381836133de565b503461040c576122cf366134a5565b929091845b8181106122df578580f35b6122ed61031b828486613a8f565b6122f8828787613a8f565b35906123066103413361362c565b6001600160a01b0380606e5460081c1660405180809263b9209e3360e01b82528486166004830152602092839160249586915afa9081156124e9578c916124cc575b501561248a57606f80546040516372331c7360e11b81525f60048201526001600160a01b0387166024820152604481018890529193919083908290606490829089165afa90811561247f578d91612462575b501561241f5750509082916123b1858c96956146ba565b541691823b15610b5357604051635f8dead360e01b81526001600160a01b0392909216600483015260248201529082908290604490829084905af1801561081e57612407575b505061240290613a81565b6122d4565b6124109061337e565b61241b57855f6123f7565b8580fd5b9060176064926040519262461bcd60e51b845260048401528201527f436f6d706c69616e6365206e6f7420666f6c6c6f7765640000000000000000006044820152fd5b6124799150833d85116114e1576114d381836133de565b5f61239a565b6040513d8f823e3d90fd5b60196064926040519262461bcd60e51b845260048401528201527f4964656e74697479206973206e6f742076657269666965642e000000000000006044820152fd5b6124e39150823d84116114e1576114d381836133de565b5f612348565b6040513d8e823e3d90fd5b503461040c578060031936011261040c5760206001600160a01b03606f5416604051908152f35b503461040c578060031936011261040c57602060ff606e54166040519015158152f35b503461040c578060031936011261040c576111dd6111c96137ff565b503461040c57602036600319011261040c57602061271061257f60a154600435614afe565b04604051908152f35b503461040c57602036600319011261040c576125a2613326565b6125aa6149c9565b6001600160a01b038091168015612603577f08f3108d338541d6d5dd1f53b5d3c50071e2a67a80f0a4d7a389c82a33c4e28f9160409160a25491816001600160a01b031984161760a2558351921682526020820152a180f35b606460405162461bcd60e51b815260206004820152601960248201527f496e76616c696420636f6c6c6563746f722061646472657373000000000000006044820152fd5b503461040c57612656366134a5565b929091845b818110612666578580f35b61267461031b828486613a8f565b61267f828787613a8f565b359061268d6103413361362c565b6001600160a01b03808216808a5260666020908082528560408d2054106127b2579082918c96959493875281526040862054906126d4606d92838352604089205490613991565b91828711612757575b505050506126eb838361476c565b606f541691823b15610b535760405163469753b960e11b81526001600160a01b0392909216600483015260248201529082908290604490829084905af1801561081e57612743575b505061273e90613a81565b61265b565b61274c9061337e565b61241b57855f612733565b6127827f9bed35cb62ad0dba04f9d5bfee4b5bc91443e77da8a65c4c84834c51bb08b0d69388613991565b908489528083526127978260408b2054613991565b90858a5283526040892055604051908152a25f8080806126dd565b6064826040519062461bcd60e51b82526004820152601d60248201527f63616e6e6f74206275726e206d6f7265207468616e2062616c616e63650000006044820152fd5b503461040c57612805366134a5565b909192845b848110612815578580f35b61282361031b828785613a8f565b6001600160a01b03612836838688613a8f565b35916128446103413361362c565b1690818852606d906020918083528160408b20541061289f57918184936103ad7f9bed35cb62ad0dba04f9d5bfee4b5bc91443e77da8a65c4c84834c51bb08b0d69460408e61289a9a9981528487522054613991565b61280a565b6084836040519062461bcd60e51b82526004820152603460248201527f416d6f756e742073686f756c64206265206c657373207468616e206f7220657160448201527f75616c20746f2066726f7a656e20746f6b656e730000000000000000000000006064820152fd5b503461040c57606036600319011261040c5767ffffffffffffffff60043581811161081a5761293c903690600401613474565b602492919235828111610b4f57612957903690600401613474565b909260443590811161241b57612971903690600401613474565b919092865b818110612981578780f35b80611cbc61299661031b6129bd94868c613a8f565b6129a461031b84888c613a8f565b6129af84898b613a8f565b35916118a26103413361362c565b612976565b503461040c57604036600319011261040c576129dc613326565b906024356129ec6103413361362c565b6001600160a01b039283606e5460081c1693604051809563b9209e3360e01b8252828416600483015281602460209889935afa9081156116c8578591612b72575b5015612b2e57606f546040516372331c7360e11b81525f60048201526001600160a01b0384166024820152604481018590529086908290606490829086165afa9081156116c8578591612b11575b5015612acd57839450612a8e83836146ba565b606f541691823b1561197557604051635f8dead360e01b81526001600160a01b0390921660048301526024820152908290829081838160448101611964565b6064856040519062461bcd60e51b82526004820152601760248201527f436f6d706c69616e6365206e6f7420666f6c6c6f7765640000000000000000006044820152fd5b612b289150863d88116114e1576114d381836133de565b5f612a7b565b6064856040519062461bcd60e51b82526004820152601960248201527f4964656e74697479206973206e6f742076657269666965642e000000000000006044820152fd5b612b899150863d88116114e1576114d381836133de565b5f612a2d565b503461040c578060031936011261040c57612bac6103413361362c565b606e5460ff811615612bec5760ff1916606e557f5db9ee0a495bf2e6ff9c91a7834c1ba4fdd244a5e8aa4e537bd38aeae4b073aa6020604051338152a180f35b606460405162461bcd60e51b815260206004820152601460248201527f5061757361626c653a206e6f74207061757365640000000000000000000000006044820152fd5b503461040c57602036600319011261040c57612c4a613326565b612c526149c9565b74ffffffffffffffffffffffffffffffffffffffff00606b549160081b1674ffffffffffffffffffffffffffffffffffffffff001982161780606b55612c966137ff565b907f6a1105ac8148a3c319adbc369f9072573e8a11d3a3d195e067e7c40767ec54d16001600160a01b03612cc8613838565b92611107612cd46138d3565b9560ff60405194859460081c16981683613956565b503461040c57604036600319011261040c57611876906040612d09613326565b913381526067602052206001600160a01b0382165f5260205261186f60243560405f2054613970565b503461040c578060031936011261040c57602060ff606b5416604051908152f35b503461040c57602061181c612d67366134f0565b91612d7760ff606e541615613a36565b613b75565b503461040c57602036600319011261040c57602061181c612d9b613326565b61362c565b503461040c57604036600319011261040c57612dba613326565b6001600160a01b0360243591612dd26103413361362c565b1690818352606d60205280604084205410612e365760207f9bed35cb62ad0dba04f9d5bfee4b5bc91443e77da8a65c4c84834c51bb08b0d691838552606d8252612e20816040872054613991565b848652606d83526040862055604051908152a280f35b608460405162461bcd60e51b815260206004820152603460248201527f416d6f756e742073686f756c64206265206c657373207468616e206f7220657160448201527f75616c20746f2066726f7a656e20746f6b656e730000000000000000000000006064820152fd5b503461040c578060031936011261040c5760206001600160a01b0360a25416604051908152f35b503461040c57612ed6366134a5565b909291845b818110612ee6578580f35b612ef461031b828487613a8f565b90612f00818588613a8f565b35801515808203612f7557612f456001600160a01b03612f7095612f266103413361362c565b1692838b52606c60205260408b209060ff801983541691151516179055565b33917f7fa523c84ab8d7fc5b72f08b9e46dbbf10c39e119a075b3e317002d14bc9f4368a80a4613a81565b612edb565b8880fd5b503461040c578060031936011261040c576020606854604051908152f35b503461040c57602036600319011261040c5760ff6040602092600435815260a584522054166040519015158152f35b503461040c57602036600319011261040c5760406020916001600160a01b03612fed613326565b168152606d83522054604051908152f35b503461040c578060031936011261040c5760206001600160a01b03606e5460081c16604051908152f35b503461040c57604036600319011261040c57613042613326565b6001600160a01b036024359161305a6103413361362c565b1690818352602090606682526040842054606d835261307d826040872054613970565b116130ba57907fa065e63c631c86f1b9f66a4a2f63f2093bf1c2168d23290259dbd969e0222a4591838552606d8252612e20816040872054613970565b6064826040519062461bcd60e51b825280600483015260248201527f416d6f756e74206578636565647320617661696c61626c652062616c616e63656044820152fd5b503461040c5760031960e0368201126108295781613119613326565b61312161333c565b67ffffffffffffffff9390604435858111610b4f57613144903690600401613446565b94606435908111610b4f5761315d903690600401613446565b613165613464565b9161316e613352565b9060c435976001600160a01b0398898116809103612f7557613191811515614a68565b6001600160a01b031960a254161760a255303b15610ed157633e46d86760e21b9589946131e66131f5938760ff966040519e8f9d8e9d8e521660048d01521660248b015260c060448b015260c48a01906132e8565b918883030160648901526132e8565b931660848501521660a4830152038183305af1801561081e57613216575080f35b610c939061337e565b503461040c57604036600319011261040c5761187661323c613326565b6024359033614843565b823461040c578060031936011261040c5780606954613264816136e7565b80855291600191808316908115611bd6575060011461328d576111dd856111c9818703826133de565b9250606983527f7fb4302e8e91f9110a6554c2c0a24601252c2a42c2220ca988efcfe3999143085b8284106132d05750505081016020016111c9826111dd611b6b565b805460208587018101919091529093019281016132b5565b91908251928382525f5b848110613312575050825f602080949584010152601f8019910116010190565b6020818301810151848301820152016132f2565b600435906001600160a01b0382168203610ed557565b602435906001600160a01b0382168203610ed557565b60a435906001600160a01b0382168203610ed557565b604435906001600160a01b0382168203610ed557565b67ffffffffffffffff811161339257604052565b634e487b7160e01b5f52604160045260245ffd5b6040810190811067ffffffffffffffff82111761339257604052565b6060810190811067ffffffffffffffff82111761339257604052565b90601f8019910116810190811067ffffffffffffffff82111761339257604052565b92919267ffffffffffffffff8211613392576040519161342a601f8201601f1916602001846133de565b829481845281830111610ed5578281602093845f960137010152565b9080601f83011215610ed55781602061346193359101613400565b90565b6084359060ff82168203610ed557565b9181601f84011215610ed55782359167ffffffffffffffff8311610ed5576020808501948460051b010111610ed557565b6040600319820112610ed55767ffffffffffffffff91600435838111610ed557826134d291600401613474565b93909392602435918211610ed5576134ec91600401613474565b9091565b6060906003190112610ed5576001600160a01b03906004358281168103610ed557916024359081168103610ed5579060443590565b60405190613532826133a6565b600d82527f7a6b455448657220546f6b656e000000000000000000000000000000000000006020830152565b906020600319830112610ed55760043567ffffffffffffffff92838211610ed55780602383011215610ed5578160040135938411610ed55760248483010111610ed5576024019190565b604051906135b5826133a6565b600582527f7a6b4554480000000000000000000000000000000000000000000000000000006020830152565b156135e857565b606460405162461bcd60e51b815260206004820152601f60248201527f696e76616c696420617267756d656e74202d207a65726f2061646472657373006044820152fd5b6001600160a01b0316801561364d575f52606560205260ff60405f20541690565b608460405162461bcd60e51b815260206004820152602260248201527f526f6c65733a206163636f756e7420697320746865207a65726f206164647265604482015261737360f01b6064820152fd5b156136a357565b606460405162461bcd60e51b815260206004820152601f60248201527f696e76616c696420617267756d656e74202d20656d70747920737472696e67006044820152fd5b90600182811c92168015613715575b602083101461370157565b634e487b7160e01b5f52602260045260245ffd5b91607f16916136f6565b601f811161372b575050565b5f90606a82527f116fea137db6e131133e7f2bab296045d8f41cc5607279db17b218cab0929a51906020601f850160051c83019410613785575b601f0160051c01915b82811061377a57505050565b81815560010161376e565b9092508290613765565b601f811161379b575050565b5f90606982527f7fb4302e8e91f9110a6554c2c0a24601252c2a42c2220ca988efcfe399914308906020601f850160051c830194106137f5575b601f0160051c01915b8281106137ea57505050565b8181556001016137de565b90925082906137d5565b6040519061380c826133a6565b600582527f342e312e330000000000000000000000000000000000000000000000000000006020830152565b604051805f606954613849816136e7565b906001908181169081156138bc5750600114613868575b505003902090565b60695f9081529192507f7fb4302e8e91f9110a6554c2c0a24601252c2a42c2220ca988efcfe3999143085b8383106138a65750505081015f80613860565b8054868401528594506020909201918101613893565b60ff19168552505080151502820190505f80613860565b604051805f606a546138e4816136e7565b906001908181169081156138bc575060011461390257505003902090565b606a5f9081529192507f116fea137db6e131133e7f2bab296045d8f41cc5607279db17b218cab0929a515b8383106139405750505081015f80613860565b805486840152859450602090920191810161392d565b60409060ff613461949316815281602082015201906132e8565b9190820180921161397d57565b634e487b7160e01b5f52601160045260245ffd5b9190820391821161397d57565b90918060409360208452816020850152848401375f828201840152601f01601f1916010190565b156139cc57565b608460405162461bcd60e51b815260206004820152602e60248201527f4167656e74526f6c653a2063616c6c657220646f6573206e6f7420686176652060448201527f746865204167656e7420726f6c650000000000000000000000000000000000006064820152fd5b15613a3d57565b606460405162461bcd60e51b815260206004820152601060248201527f5061757361626c653a20706175736564000000000000000000000000000000006044820152fd5b5f19811461397d5760010190565b9190811015613a9f5760051b0190565b634e487b7160e01b5f52603260045260245ffd5b356001600160a01b0381168103610ed55790565b15613ace57565b606460405162461bcd60e51b815260206004820152601060248201527f77616c6c65742069732066726f7a656e000000000000000000000000000000006044820152fd5b15613b1957565b606460405162461bcd60e51b815260206004820152601460248201527f496e73756666696369656e742042616c616e63650000000000000000000000006044820152fd5b90816020910312610ed557518015158103610ed55790565b919290926001600160a01b0392838516945f948686526020606c815260409760ff89892054161580613d99575b613bab90613ac7565b8285169081895260668352613bd6613bce8b8b2054606d86528c8c205490613991565b881115613b12565b8284606e5460081c169160248c518094819363b9209e3360e01b835260048301525afa908115613d72578991613d7c575b5080613d05575b613c5657885162461bcd60e51b815260206004820152601560248201527f5472616e73666572206e6f7420706f737369626c6500000000000000000000006044820152606490fd5b8798969752606781528588209033895252613c7e613c7785878a2054613991565b3385614843565b613c89848385614561565b606f541691823b15613d015784516322ebca6d60e21b81526001600160a01b0391821660048201529116602482015260448101929092529293909281908490818381606481015b03925af1918215613cf7575050613ce8575b50600190565b613cf19061337e565b5f613ce2565b51903d90823e3d90fd5b8680fd5b50606f5489516372331c7360e11b81526001600160a01b03878116600483015286166024820152604481018890529083908290606490829088165afa908115613d72578991613d55575b50613c0e565b613d6c9150833d85116114e1576114d381836133de565b5f613d4f565b8a513d8b823e3d90fd5b613d939150833d85116114e1576114d381836133de565b5f613c07565b5084831688528888205460ff1615613ba2565b9290915f916001600160a01b0392838616938482526020946066865260409485842054156141ac57821692855192878401818a1694858252898152613df0816133a6565b519020998751997fd202158d000000000000000000000000000000000000000000000000000000008b5260049b8c8c015260249a60018c8201528a816044818b5afa9081156141a2578591614185575b50613e865760648c60158d8d8d519362461bcd60e51b85528401528201527f5265636f76657279206e6f7420706f737369626c6500000000000000000000006044820152fd5b8484989c979b9599969a939452606683528588205490606d8452868920549285606e5460081c1688517f7e42683b0000000000000000000000000000000000000000000000000000000081528c8b82015286818a81855afa90811561417b578c91614143575b50813b1561413f578d8f8c8e8c9561ffff8f96606495849851998a9889977f454a03e00000000000000000000000000000000000000000000000000000000089528801528601521660448401525af180156141355761411c575b5090613f5992916118a26103413361362c565b5080614060575b50868652606c8152600160ff8588205416151514614011575b50606e5460081c1692833b15610b4f578491869183855196879485937fa8d29d1d0000000000000000000000000000000000000000000000000000000085528401525af19081156140085750613ff4575b50807ff0c9129a94f30f1caaceb63e44b9811d0a3edf1d6c23757f346093af5553fed091a4600190565b613ffe829161337e565b61040c575f613fca565b513d84823e3d90fd5b606c906140206103413361362c565b88875252828520600160ff19825416179055336001887f7fa523c84ab8d7fc5b72f08b9e46dbbf10c39e119a075b3e317002d14bc9f4368880a45f613f79565b61406c6103413361362c565b8887526066825284872054606d835261408882878a2054613970565b116140dc577fa065e63c631c86f1b9f66a4a2f63f2093bf1c2168d23290259dbd969e0222a45828a92838a52606d82526140c581898c2054613970565b848b52606d8352888b20558751908152a25f613f60565b60648683868189519362461bcd60e51b85528401528201527f416d6f756e74206578636565647320617661696c61626c652062616c616e63656044820152fd5b9961412c613f599493929b61337e565b99909192613f46565b89513d8d823e3d90fd5b8b80fd5b90508681813d8311614174575b61415a81836133de565b8101031261413f575161ffff8116810361413f575f613eec565b503d614150565b8a513d8e823e3d90fd5b61419c91508b3d8d116114e1576114d381836133de565b5f613e40565b8a513d87823e3d90fd5b60648787519062461bcd60e51b82526004820152601460248201527f6e6f20746f6b656e7320746f207265636f7665720000000000000000000000006044820152fd5b916001600160a01b03808416935f91858352602095606c875260409660ff888620541615806143b1575b61422290613ac7565b33855260668152614241613bce89872054606d84528a88205490613991565b8083606e5460081c169260248a518095819363b9209e3360e01b835260048301525afa918215614388578592614392575b508161431a575b506142c257855162461bcd60e51b815260206004820152601560248201527f5472616e73666572206e6f7420706f737369626c6500000000000000000000006044820152606490fd5b6142d185839795969733614561565b606f541690813b1561081a5783516322ebca6d60e21b81523360048201526001600160a01b03909116602482015260448101959095529293928190849081838160648101613cd0565b606f5488516372331c7360e11b81523360048201526001600160a01b03861660248201526044810189905291925082908290606490829087165afa91821561438857859261436b575b50505f614279565b6143819250803d106114e1576114d381836133de565b5f80614363565b88513d87823e3d90fd5b816143aa9293503d84116114e1576114d381836133de565b905f614272565b503385528785205460ff1615614219565b919290926001600160a01b0392838116945f9486865260206066815260409785898920541061451e578088526066825261440789892054606d84528a8a205490613991565b828188116144c6575b90506024915083606e5460081c168a519283809263b9209e3360e01b825287891660048301525afa9182156144bc57889261449f575b505061449057865162461bcd60e51b815260206004820152601560248201527f5472616e73666572206e6f7420706f737369626c6500000000000000000000006044820152606490fd5b613c8984838599979899614561565b6144b59250803d106114e1576114d381836133de565b5f80614446565b89513d8a823e3d90fd5b6144f17f9bed35cb62ad0dba04f9d5bfee4b5bc91443e77da8a65c4c84834c51bb08b0d69289613991565b838b52606d8252614505818d8d2054613991565b848c52606d83528c8c20558b51908152a25f8082614410565b6064828a519062461bcd60e51b82526004820152601660248201527f73656e6465722062616c616e636520746f6f206c6f77000000000000000000006044820152fd5b6001600160a01b0380911691821561465057169182156145e65760207fddf252ad1be2c89b69c2b068fc378daa952ba7f163c4a11628f55a4df523b3ef915f848152606683526145b5826040832054613991565b85825260668452604082205585815260406145d38382842054613970565b91878152606685522055604051908152a3565b608460405162461bcd60e51b815260206004820152602360248201527f45524332303a207472616e7366657220746f20746865207a65726f206164647260448201527f65737300000000000000000000000000000000000000000000000000000000006064820152fd5b608460405162461bcd60e51b815260206004820152602560248201527f45524332303a207472616e736665722066726f6d20746865207a65726f20616460448201527f64726573730000000000000000000000000000000000000000000000000000006064820152fd5b6001600160a01b0316908115614728577fddf252ad1be2c89b69c2b068fc378daa952ba7f163c4a11628f55a4df523b3ef6020826146fb5f94606854613970565b60685584845260668252614713816040862054613970565b858552606683526040852055604051908152a3565b606460405162461bcd60e51b815260206004820152601f60248201527f45524332303a206d696e7420746f20746865207a65726f2061646472657373006044820152fd5b6001600160a01b031680156147d9577fddf252ad1be2c89b69c2b068fc378daa952ba7f163c4a11628f55a4df523b3ef60205f93838552606682526147b5816040872054613991565b8486526066835260408620556147cd81606854613991565b606855604051908152a3565b608460405162461bcd60e51b815260206004820152602160248201527f45524332303a206275726e2066726f6d20746865207a65726f2061646472657360448201527f73000000000000000000000000000000000000000000000000000000000000006064820152fd5b6001600160a01b038091169182156148ef57169182156148a05760207f8c5be1e5ebec7d5bd14f71427d1e84f3dd0314c0f7b2291e5b200ac8c7c3b92591835f526067825260405f20855f5282528060405f2055604051908152a3565b608460405162461bcd60e51b815260206004820152602260248201527f45524332303a20617070726f766520746f20746865207a65726f206164647265604482015261737360f01b6064820152fd5b608460405162461bcd60e51b8152602060048201526024808201527f45524332303a20617070726f76652066726f6d20746865207a65726f2061646460448201527f72657373000000000000000000000000000000000000000000000000000000006064820152fd5b1561495f57565b608460405162461bcd60e51b815260206004820152602b60248201527f496e697469616c697a61626c653a20636f6e7472616374206973206e6f74206960448201527f6e697469616c697a696e670000000000000000000000000000000000000000006064820152fd5b6001600160a01b036033541633036149dd57565b606460405162461bcd60e51b815260206004820152602060248201527f4f776e61626c653a2063616c6c6572206973206e6f7420746865206f776e65726044820152fd5b603354906001600160a01b0380911691826001600160a01b0319821617603355167f8be0079c531659141344cd1fd0a4f28419497f9722a3daafe3b4186f6b6457e05f80a3565b15614a6f57565b606460405162461bcd60e51b815260206004820152601560248201527f496e76616c69642054445320636f6c6c6563746f7200000000000000000000006044820152fd5b15614aba57565b606460405162461bcd60e51b815260206004820152601560248201527f4964656e74697479206e6f7420766572696669656400000000000000000000006044820152fd5b8181029291811591840414171561397d57565b15614b1857565b606460405162461bcd60e51b815260206004820152601660248201527f526563697069656e74206e6f74207665726966696564000000000000000000006044820152fdfea2646970667358221220058986204ff906b24bd054309965be7803d35974f88e6f7dfa5c0223328994ad64736f6c63430008140033","linkReferences":{}},"methodIdentifiers":{"DEFAULT_DECIMALS()":"c5008f46","DEFAULT_NAME()":"98c69648","DEFAULT_SYMBOL()":"c233d5a7","addAgent(address)":"84e79842","allowance(address,address)":"dd62ed3e","approve(address,uint256)":"095ea7b3","balanceOf(address)":"70a08231","batchBurn(address[],uint256[])":"4a6cc677","batchForcedTransfer(address[],address[],uint256[])":"42a47abc","batchFreezePartialTokens(address[],uint256[])":"fc7e5fa8","batchMint(address[],uint256[])":"68573107","batchSetAddressFrozen(address[],bool[])":"1a7af379","batchTransfer(address[],uint256[])":"88d695b2","batchUnfreezePartialTokens(address[],uint256[])":"4710362d","burn(address,uint256)":"9dc29fac","calculateTDS(uint256)":"4e50c9e7","commitments(bytes32)":"839df945","compliance()":"6290865d","decimals()":"313ce567","decreaseAllowance(address,uint256)":"a457c2d7","deposit(bytes32)":"b214faa5","emergencyWithdraw()":"db2e21bc","forcedTransfer(address,address,uint256)":"9fc1d0e7","freezePartialTokens(address,uint256)":"125c4a33","getContractBalance()":"6f9fb98a","getFrozenTokens(address)":"158b1a57","identityRegistry()":"134e18f4","increaseAllowance(address,uint256)":"39509351","init(address,address,string,string,uint8,address)":"f91b619c","initialize(address,address,string,string,uint8,address,address)":"0cf39ef8","initializeWithDefaults(address,address,address,address)":"d4af8910","isAgent(address)":"1ffbb064","isFrozen(address)":"e5839836","mint(address,uint256)":"40c10f19","name()":"06fdde03","nullifierHashes(bytes32)":"17cc915c","onchainID()":"aba63705","owner()":"8da5cb5b","pause()":"8456cb59","paused()":"5c975abb","recoveryAddress(address,address,address)":"9285948a","removeAgent(address)":"97a6278e","renounceOwnership()":"715018a6","setAddressFrozen(address,bool)":"c69c09cf","setCompliance(address)":"f8981789","setIdentityRegistry(address)":"cbf3f861","setName(string)":"c47f0027","setOnchainID(address)":"3d1ddc5b","setSymbol(string)":"b84c8246","setTDSCollector(address)":"4a9f14d1","setTDSRate(uint256)":"aa0a8171","symbol()":"95d89b41","tdsCollector()":"1f578013","tdsRate()":"fb273208","totalSupply()":"18160ddd","totalTDSCollected()":"bb6bfa65","transfer(address,uint256)":"a9059cbb","transferFrom(address,address,uint256)":"23b872dd","transferFromWithTDS(address,address,uint256)":"b5d76631","transferOwnership(address)":"f2fde38b","transferWithTDS(address,uint256)":"69af4765","unfreezePartialTokens(address,uint256)":"1fe56f7d","unpause()":"3f4ba83a","version()":"54fd4d50","withdraw(uint256,bytes32,bytes)":"75135d2d"},"id":49}