{"abi":[{"type":"constructor","inputs":[{"name":"initialManagementKey","type":"address","internalType":"address"},{"name":"_isLibrary","type":"bool","internalType":"bool"}],"stateMutability":"nonpayable"},{"type":"function","name":"addClaim","inputs":[{"name":"_topic","type":"uint256","internalType":"uint256"},{"name":"_scheme","type":"uint256","internalType":"uint256"},{"name":"_issuer","type":"address","internalType":"address"},{"name":"_signature","type":"bytes","internalType":"bytes"},{"name":"_data","type":"bytes","internalType":"bytes"},{"name":"_uri","type":"string","internalType":"string"}],"outputs":[{"name":"claimRequestId","type":"bytes32","internalType":"bytes32"}],"stateMutability":"nonpayable"},{"type":"function","name":"addKey","inputs":[{"name":"_key","type":"bytes32","internalType":"bytes32"},{"name":"_purpose","type":"uint256","internalType":"uint256"},{"name":"_type","type":"uint256","internalType":"uint256"}],"outputs":[{"name":"success","type":"bool","internalType":"bool"}],"stateMutability":"nonpayable"},{"type":"function","name":"approve","inputs":[{"name":"_id","type":"uint256","internalType":"uint256"},{"name":"_approve","type":"bool","internalType":"bool"}],"outputs":[{"name":"success","type":"bool","internalType":"bool"}],"stateMutability":"nonpayable"},{"type":"function","name":"execute","inputs":[{"name":"_to","type":"address","internalType":"address"},{"name":"_value","type":"uint256","internalType":"uint256"},{"name":"_data","type":"bytes","internalType":"bytes"}],"outputs":[{"name":"executionId","type":"uint256","internalType":"uint256"}],"stateMutability":"payable"},{"type":"function","name":"getClaim","inputs":[{"name":"_claimId","type":"bytes32","internalType":"bytes32"}],"outputs":[{"name":"topic","type":"uint256","internalType":"uint256"},{"name":"scheme","type":"uint256","internalType":"uint256"},{"name":"issuer","type":"address","internalType":"address"},{"name":"signature","type":"bytes","internalType":"bytes"},{"name":"data","type":"bytes","internalType":"bytes"},{"name":"uri","type":"string","internalType":"string"}],"stateMutability":"view"},{"type":"function","name":"getClaimIdsByTopic","inputs":[{"name":"_topic","type":"uint256","internalType":"uint256"}],"outputs":[{"name":"claimIds","type":"bytes32[]","internalType":"bytes32[]"}],"stateMutability":"view"},{"type":"function","name":"getKey","inputs":[{"name":"_key","type":"bytes32","internalType":"bytes32"}],"outputs":[{"name":"purposes","type":"uint256[]","internalType":"uint256[]"},{"name":"keyType","type":"uint256","internalType":"uint256"},{"name":"key","type":"bytes32","internalType":"bytes32"}],"stateMutability":"view"},{"type":"function","name":"getKeyPurposes","inputs":[{"name":"_key","type":"bytes32","internalType":"bytes32"}],"outputs":[{"name":"_purposes","type":"uint256[]","internalType":"uint256[]"}],"stateMutability":"view"},{"type":"function","name":"getKeysByPurpose","inputs":[{"name":"_purpose","type":"uint256","internalType":"uint256"}],"outputs":[{"name":"keys","type":"bytes32[]","internalType":"bytes32[]"}],"stateMutability":"view"},{"type":"function","name":"getRecoveredAddress","inputs":[{"name":"sig","type":"bytes","internalType":"bytes"},{"name":"dataHash","type":"bytes32","internalType":"bytes32"}],"outputs":[{"name":"addr","type":"address","internalType":"address"}],"stateMutability":"pure"},{"type":"function","name":"initialize","inputs":[{"name":"initialManagementKey","type":"address","internalType":"address"}],"outputs":[],"stateMutability":"nonpayable"},{"type":"function","name":"isClaimValid","inputs":[{"name":"_identity","type":"address","internalType":"contract IIdentity"},{"name":"claimTopic","type":"uint256","internalType":"uint256"},{"name":"sig","type":"bytes","internalType":"bytes"},{"name":"data","type":"bytes","internalType":"bytes"}],"outputs":[{"name":"claimValid","type":"bool","internalType":"bool"}],"stateMutability":"view"},{"type":"function","name":"keyHasPurpose","inputs":[{"name":"_key","type":"bytes32","internalType":"bytes32"},{"name":"_purpose","type":"uint256","internalType":"uint256"}],"outputs":[{"name":"result","type":"bool","internalType":"bool"}],"stateMutability":"view"},{"type":"function","name":"removeClaim","inputs":[{"name":"_claimId","type":"bytes32","internalType":"bytes32"}],"outputs":[{"name":"success","type":"bool","internalType":"bool"}],"stateMutability":"nonpayable"},{"type":"function","name":"removeKey","inputs":[{"name":"_key","type":"bytes32","internalType":"bytes32"},{"name":"_purpose","type":"uint256","internalType":"uint256"}],"outputs":[{"name":"success","type":"bool","internalType":"bool"}],"stateMutability":"nonpayable"},{"type":"function","name":"version","inputs":[],"outputs":[{"name":"","type":"string","internalType":"string"}],"stateMutability":"pure"},{"type":"event","name":"Approved","inputs":[{"name":"executionId","type":"uint256","indexed":true,"internalType":"uint256"},{"name":"approved","type":"bool","indexed":false,"internalType":"bool"}],"anonymous":false},{"type":"event","name":"ClaimAdded","inputs":[{"name":"claimId","type":"bytes32","indexed":true,"internalType":"bytes32"},{"name":"topic","type":"uint256","indexed":true,"internalType":"uint256"},{"name":"scheme","type":"uint256","indexed":false,"internalType":"uint256"},{"name":"issuer","type":"address","indexed":true,"internalType":"address"},{"name":"signature","type":"bytes","indexed":false,"internalType":"bytes"},{"name":"data","type":"bytes","indexed":false,"internalType":"bytes"},{"name":"uri","type":"string","indexed":false,"internalType":"string"}],"anonymous":false},{"type":"event","name":"ClaimChanged","inputs":[{"name":"claimId","type":"bytes32","indexed":true,"internalType":"bytes32"},{"name":"topic","type":"uint256","indexed":true,"internalType":"uint256"},{"name":"scheme","type":"uint256","indexed":false,"internalType":"uint256"},{"name":"issuer","type":"address","indexed":true,"internalType":"address"},{"name":"signature","type":"bytes","indexed":false,"internalType":"bytes"},{"name":"data","type":"bytes","indexed":false,"internalType":"bytes"},{"name":"uri","type":"string","indexed":false,"internalType":"string"}],"anonymous":false},{"type":"event","name":"ClaimRemoved","inputs":[{"name":"claimId","type":"bytes32","indexed":true,"internalType":"bytes32"},{"name":"topic","type":"uint256","indexed":true,"internalType":"uint256"},{"name":"scheme","type":"uint256","indexed":false,"internalType":"uint256"},{"name":"issuer","type":"address","indexed":true,"internalType":"address"},{"name":"signature","type":"bytes","indexed":false,"internalType":"bytes"},{"name":"data","type":"bytes","indexed":false,"internalType":"bytes"},{"name":"uri","type":"string","indexed":false,"internalType":"string"}],"anonymous":false},{"type":"event","name":"Executed","inputs":[{"name":"executionId","type":"uint256","indexed":true,"internalType":"uint256"},{"name":"to","type":"address","indexed":true,"internalType":"address"},{"name":"value","type":"uint256","indexed":true,"internalType":"uint256"},{"name":"data","type":"bytes","indexed":false,"internalType":"bytes"}],"anonymous":false},{"type":"event","name":"ExecutionFailed","inputs":[{"name":"executionId","type":"uint256","indexed":true,"internalType":"uint256"},{"name":"to","type":"address","indexed":true,"internalType":"address"},{"name":"value","type":"uint256","indexed":true,"internalType":"uint256"},{"name":"data","type":"bytes","indexed":false,"internalType":"bytes"}],"anonymous":false},{"type":"event","name":"ExecutionRequested","inputs":[{"name":"executionId","type":"uint256","indexed":true,"internalType":"uint256"},{"name":"to","type":"address","indexed":true,"internalType":"address"},{"name":"value","type":"uint256","indexed":true,"internalType":"uint256"},{"name":"data","type":"bytes","indexed":false,"internalType":"bytes"}],"anonymous":false},{"type":"event","name":"KeyAdded","inputs":[{"name":"key","type":"bytes32","indexed":true,"internalType":"bytes32"},{"name":"purpose","type":"uint256","indexed":true,"internalType":"uint256"},{"name":"keyType","type":"uint256","indexed":true,"internalType":"uint256"}],"anonymous":false},{"type":"event","name":"KeyRemoved","inputs":[{"name":"key","type":"bytes32","indexed":true,"internalType":"bytes32"},{"name":"purpose","type":"uint256","indexed":true,"internalType":"uint256"},{"name":"keyType","type":"uint256","indexed":true,"internalType":"uint256"}],"anonymous":false}],"bytecode":{"object":"0x608034620002d1576001600160401b0390620029ea90601f38839003908101601f191682019084821183831017620002185780839160409586948552833981010312620002d15780516001600160a01b03811690819003620002d15760208092015191821592831503620002d15761ffff19928360065416908160065583156200028d57156200027a57506006549260ff9384811615801562000270575b156200022c5716610101176006558351818101928352818152928385019286841185851017620002185783865284519020925f9684885260606001968786528660028a8c20015501908282109082111762000204578652848152838752848352858720908154868355808710620001da575b5090875282872085885b818110620001c557505050505081855282808587200155828552600281528385209081549168010000000000000000831015620001b1578483018082558310156200019d577f480000bb1edad8ca1470381cc334b1917fbd51c6531f3a623ea8e0ec7e38a6e99287928592879899528320015580a45b516127149081620002d68239f35b634e487b7160e01b87526032600452602487fd5b634e487b7160e01b87526041600452602487fd5b85858551169401938184015501869062000119565b8289528680868b2092830192015b828110620001f85750506200010f565b8a8155018790620001e8565b634e487b7160e01b88526041600452602488fd5b634e487b7160e01b5f52604160045260245ffd5b855162461bcd60e51b815260048101849052601e60248201527f496e697469616c206b65792077617320616c72656164792073657475702e00006044820152606490fd5b50303b156200009d565b925050506001919250176006556200018f565b855162461bcd60e51b815260048101849052601f60248201527f696e76616c696420617267756d656e74202d207a65726f2061646472657373006044820152606490fd5b5f80fdfe60806040526004361015610011575f80fd5b5f3560e01c806312aaac70146101145780631d3812401461010f5780634eee424a1461010a57806353d413c51461010557806354fd4d5014610100578063747442d3146100fb57806380e9e9e1146100f65780639010f726146100f1578063b1a34e0d146100ec578063b61d27f6146100e7578063c0969a6e146100e2578063c3b129e3146100dd578063c4d66de8146100d8578063c9100bcb146100d3578063d202158d146100ce5763fb307b34146100c9575f80fd5b6111ed565b6111cc565b61112f565b610f39565b610ee9565b610e82565b610ccc565b610c29565b610ab0565b610a3f565b6109bb565b610954565b610667565b6103c6565b6101a9565b61014c565b9081518082526020808093019301915f5b828110610138575050505090565b83518552938101939281019260010161012a565b346101a55760203660031901126101a5576004355f52600160205261019660405f20600181015461018160028301549261144d565b91604051938493606085526060850190610119565b91602084015260408301520390f35b5f80fd5b346101a55760603660031901126101a5576004803590602435604435916001906101de8260ff60065460081c1615151461122b565b3033148015610398575b6101f190611499565b83856002610207825f52600160205260405f2090565b0154036103405750610229610224865f52600160205260405f2090565b61144d565b5f835b61029b575b505050506102508161024b855f52600160205260405f2090565b6115a9565b6102668361024b835f52600260205260405f2090565b604051927f480000bb1edad8ca1470381cc334b1917fbd51c6531f3a623ea8e0ec7e38a6e95f80a460018152602090f35b0390f35b815181101561033b57846102af828461157b565b51146102c4576102be90611429565b8361022c565b6103378360405191829162461bcd60e51b8352820160809060208152602160208201527f436f6e666c6963743a204b657920616c72656164792068617320707572706f7360408201527f650000000000000000000000000000000000000000000000000000000000000060608201520190565b0390fd5b610231565b919050846002610358825f52600160205260405f2090565b015561037f610365610b99565b84815261037a875f52600160205260405f2090565b611532565b610391855f52600160205260405f2090565b0155610250565b506101f16103bf6040516020810190338252602081526103b781610b5b565b5190206122bf565b90506101e8565b346101a55760203660031901126101a55760043560016103f18160ff60065460081c1615151461122b565b3033148015610639575b6104049061206e565b610416825f52600460205260405f2090565b549081156105ce575f81610432845f52600560205260405f2090565b54905b61058b575b9161049a849261049461047c61047261057f999761046c61046661057a9b5f52600560205260405f2090565b91611cf2565b90611594565b90549060031b1c90565b9161048f865f52600560205260405f2090565b611594565b906112d4565b6104b46104af835f52600560205260405f2090565b611d7a565b6104c6835f52600460205260405f2090565b015490827f3cf57863a89432c61c4a27073c6ee39e8a764bff5a05aebfbcdcdc80b2e6130a6001600160a01b03610518600261050a855f52600460205260405f2090565b01546001600160a01b031690565b610569600361052f865f52600460205260405f2090565b016004610544875f52600460205260405f2090565b016005610559885f52600460205260405f2090565b01916040519586951699856121b1565b0390a45f52600460205260405f2090565b612235565b60405160018152602090f35b90846105a66104728361048f885f52600560205260405f2090565b146105c8576105b490611429565b90808210156105c35782610435565b61043a565b9061043a565b60405162461bcd60e51b815260206004820152602b60248201527f4e6f6e4578697374696e673a205468657265206973206e6f20636c61696d207760448201527f69746820746869732049440000000000000000000000000000000000000000006064820152608490fd5b5061040461066060405160208101903382526020815261065881610b5b565b519020612356565b90506103fb565b346101a5576040806003193601126101a55760048035916024359060016106998160ff60065460081c1615151461122b565b30331480156108f1575b6106ac90611499565b6106cc8560026106c4825f52600160205260405f2090565b015414611c81565b806106e2610224875f52600160205260405f2090565b945f915b61084f575b5061070a6107026106fc8751611cf2565b8761157b565b51918661157b565b5261072684610721875f52600160205260405f2090565b611d00565b61073b6104af865f52600160205260405f2090565b805f61074f855f52600260205260405f2090565b54925b610814575b6107909061049461077d6104726107c09661046c6104668b5f52600260205260405f2090565b9161048f885f52600260205260405f2090565b6107a56104af855f52600260205260405f2090565b6107b7865f52600160205260405f2090565b01549351611cf2565b156107f5575b51927f585a4aef50f8267a92b32412b331b20f7f8b96f2245b253b9cc50dcc621d33975f80a460018152602090f35b61080f61080a855f52600160205260405f2090565b611db7565b6107c6565b8661082e6104728361048f895f52600260205260405f2090565b1461084a5761083c90611429565b8281101561084a5781610752565b610757565b908461085b828861157b565b51146108eb5761086a90611429565b908186511461087957826106e6565b61033790845191829162461bcd60e51b8352820160809060208152602a60208201527f4e6f6e4578697374696e673a204b657920646f65736e2774206861766520737560408201527f636820707572706f73650000000000000000000000000000000000000000000060608201520190565b906106eb565b506106ac61090f83516020810190338252602081526103b781610b5b565b90506106a3565b91908251928382525f5b848110610940575050825f602080949584010152601f8019910116010190565b602081830181015184830182015201610920565b346101a5575f3660031901126101a55761029760405161097381610b5b565b600581527f322e322e310000000000000000000000000000000000000000000000000000006020820152604051918291602083526020830190610916565b801515036101a557565b346101a55760403660031901126101a55760206109fb6024356109dd816109b1565b6109f3600160ff60065460081c1615151461122b565b600435611b70565b6040519015158152f35b602090816040818301928281528551809452019301915f5b828110610a2b575050505090565b835185529381019392810192600101610a1d565b346101a5576020806003193601126101a5576004355f526005815260405f209060405190818184549182815201935f52815f20915f905b828210610a995761029785610a8d81890382610b77565b60405191829182610a05565b835486529485019460019384019390910190610a76565b346101a5576020806003193601126101a5576004355f526002815260405f209060405190818184549182815201935f52815f20915f905b828210610afe5761029785610a8d81890382610b77565b835486529485019460019384019390910190610ae7565b6001600160a01b038116036101a557565b634e487b7160e01b5f52604160045260245ffd5b6060810190811067ffffffffffffffff821117610b5657604052565b610b26565b6040810190811067ffffffffffffffff821117610b5657604052565b90601f8019910116810190811067ffffffffffffffff821117610b5657604052565b604051906020820182811067ffffffffffffffff821117610b5657604052565b67ffffffffffffffff8111610b5657601f01601f191660200190565b929192610be182610bb9565b91610bef6040519384610b77565b8294818452818301116101a5578281602093845f960137010152565b9080601f830112156101a557816020610c2693359101610bd5565b90565b346101a55760c03660031901126101a557604435610c4681610b15565b67ffffffffffffffff6064358181116101a557610c67903690600401610c0b565b916084358281116101a557610c80903690600401610c0b565b60a4359283116101a557366023840112156101a55761029793610cb0610cbc943690602481600401359101610bd5565b92602435600435611dea565b6040519081529081906020820190565b60603660031901126101a557600435610ce481610b15565b6024359060443567ffffffffffffffff81116101a557610297926001600160a01b0392610d18610de4933690600401610c0b565b90610d2f600160ff60065460081c1615151461122b565b7f8afcfabcb00e47a53a8fc3e9f23ff47ee1926194bb1350dd007c50b412a6cee85f549582610d938894610d6b865f52600360205260405f2090565b906001600160a01b031673ffffffffffffffffffffffffffffffffffffffff19825416179055565b856001610da8865f52600360205260405f2090565b0155610dc8856002610dc2875f52600360205260405f2090565b0161134c565b610dd25f54611429565b5f55169485936040519182918261143c565b0390a4604080513360208083019182528252601f199392610e0a92906103b79082610b77565b15610e2b575050610e1a816115e6565b506040519081529081906020820190565b3014159081610e4a575b5015610cbc57610e44816115e6565b50610cbc565b604080513360208201908152610e7c9450929091610e749190839081015b03908101835282610b77565b5190206123e3565b5f610e35565b346101a55760803660031901126101a557600435610e9f81610b15565b67ffffffffffffffff6044358181116101a557610ec0903690600401610c0b565b916064359182116101a557602092610edf6109fb933690600401610c0b565b9160243590612513565b346101a55760403660031901126101a55760043567ffffffffffffffff81116101a557610f28610f1f6020923690600401610c0b565b602435906125e7565b6001600160a01b0360405191168152f35b346101a55760203660031901126101a557600435610f5681610b15565b6001600160a01b0381161561109957600654600191829160ff16158015611090575b610f819061265b565b610f93600160ff196006541617600655565b610fa761010061ff00196006541617600655565b604051610fda81610fcc6020820194859190916001600160a01b036020820193169052565b03601f198101835282610b77565b519020806002610ff2825f52600160205260405f2090565b015561101a610fff610b99565b60018152611015835f52600160205260405f2090565b6126a6565b61103782611030835f52600160205260405f2090565b0160019055565b60015f52600260205261106a817fe90b7bceb6e7df5418fb78d8ee546e97c83a08bbccc01a0644d599ccd2a7c2e06115a9565b7f480000bb1edad8ca1470381cc334b1917fbd51c6531f3a623ea8e0ec7e38a6e95f80a4005b50303b15610f78565b606460405162461bcd60e51b815260206004820152601f60248201527f696e76616c696420617267756d656e74202d207a65726f2061646472657373006044820152fd5b9491936001600160a01b0361112194610c269896611113948952602089015216604087015260c0606087015260c0860190610916565b908482036080860152610916565b9160a0818403910152610916565b346101a55760203660031901126101a557600435805f52600460205260405f209061029782549160046001850154946111bf60056111836001600160a01b03600285015416955f52600460205260405f2090565b016111ba604051936111a38561119c816003850161182b565b0386610b77565b6111b3604051809781930161182b565b0385610b77565b6122a4565b92604051968796876110dd565b346101a55760403660031901126101a55760206109fb602435600435612482565b346101a55760203660031901126101a5576004355f52600160205261029761121760405f2061144d565b604051918291602083526020830190610119565b1561123257565b608460405162461bcd60e51b815260206004820152603360248201527f496e746572616374696e67207769746820746865206c69627261727920636f6e60448201527f747261637420697320666f7262696464656e2e000000000000000000000000006064820152fd5b90600182811c921680156112ca575b60208310146112b657565b634e487b7160e01b5f52602260045260245ffd5b91607f16916112ab565b916112ed9183549060031b91821b915f19901b19161790565b9055565b8181106112fc575050565b5f81556001016112f1565b9190601f811161131657505050565b611340925f5260205f20906020601f840160051c83019310611342575b601f0160051c01906112f1565b565b9091508190611333565b919091825167ffffffffffffffff8111610b56576113748161136e845461129c565b84611307565b602080601f83116001146113ae5750819293945f926113a3575b50508160011b915f199060031b1c1916179055565b015190505f8061138e565b90601f198316956113c2855f5260205f2090565b925f905b8882106113fd575050836001959697106113e5575b505050811b019055565b01515f1960f88460031b161c191690555f80806113db565b806001859682949686015181550195019301906113c6565b634e487b7160e01b5f52601160045260245ffd5b5f1981146114375760010190565b611415565b906020610c26928181520190610916565b906040519182815491828252602092838301915f52835f20935f905b82821061147f5750505061134092500383610b77565b855484526001958601958895509381019390910190611469565b156114a057565b608460405162461bcd60e51b815260206004820152603060248201527f5065726d697373696f6e733a2053656e64657220646f6573206e6f742068617660448201527f65206d616e6167656d656e74206b6579000000000000000000000000000000006064820152fd5b8054600182558060011061151c575050565b611340915f52600160205f2091820191016112f1565b9061153c8261150a565b905f52602090815f205f5b600181106115555750505050565b82518282015591830191600101611547565b634e487b7160e01b5f52603260045260245ffd5b805182101561158f5760209160051b010190565b611567565b805482101561158f575f5260205f2001905f90565b80549068010000000000000000821015610b5657816115d09160016112ed94018155611594565b819391549060031b91821b915f19901b19161790565b610c2690611600600160ff60065460081c1615151461122b565b6118cc565b1561160c57565b608460405162461bcd60e51b815260206004820152602760248201527f43616e6e6f7420617070726f76652061206e6f6e2d6578697374696e6720657860448201527f65637574696f6e000000000000000000000000000000000000000000000000006064820152fd5b1561167d57565b606460405162461bcd60e51b815260206004820152601860248201527f5265717565737420616c726561647920657865637574656400000000000000006044820152fd5b156116c857565b606460405162461bcd60e51b815260206004820152601f60248201527f53656e64657220646f6573206e6f74206861766520616374696f6e206b6579006044820152fd5b1561171357565b608460405162461bcd60e51b815260206004820152602360248201527f53656e64657220646f6573206e6f742068617665206d616e6167656d656e742060448201527f6b657900000000000000000000000000000000000000000000000000000000006064820152fd5b5f9291815461178b8161129c565b926001918083169081156117e157506001146117a8575b50505050565b9091929394505f52602090815f20905f915b8583106117d0575050505001905f8080806117a2565b8054858401529183019181016117ba565b60ff191684525050508115159091020191505f8080806117a2565b3d15611826573d9061180d82610bb9565b9161181b6040519384610b77565b82523d5f602084013e565b606090565b905f929180549161183b8361129c565b9182825260019384811690815f14611898575060011461185b5750505050565b90919394505f52602092835f2092845f945b83861061188457505050500101905f8080806117a2565b80548587018301529401938590820161186d565b9294505050602093945060ff191683830152151560051b0101905f8080806117a2565b906020610c2692818152019061182b565b6118d85f548210611605565b61190961190461190060036118f5855f52600360205260405f2090565b015460081c60ff1690565b1590565b611676565b61192b61191e825f52600360205260405f2090565b546001600160a01b031690565b6001600160a01b03919082163003611b44576040805133602082019081526119649261195f92906103b79082908101610fcc565b61170c565b807fb3932da477fe5d6c8ff2eafef050c0f3a1af18fc07121001482600f36f3715d86040518061199981906001602083019252565b0390a26119c160036119b3835f52600360205260405f2090565b01805460ff19166001179055565b5f806119d861191e845f52600360205260405f2090565b611a1260016119ef865f52600360205260405f2090565b01546002611a05875f52600360205260405f2090565b016040519283809261177d565b03925af1611a1e6117fc565b5015611ac857611a4b6003611a3b835f52600360205260405f2090565b01805461ff001916610100179055565b611a6061191e825f52600360205260405f2090565b907f1f920dbda597d7bf95035464170fa58d0a4b57f13a1c315ace6793b9f63688b86001611a96835f52600360205260405f2090565b0154936002611aad845f52600360205260405f2090565b0193611ac06040519283921695826118bb565b0390a4600190565b611add61191e825f52600360205260405f2090565b907fe10c49d9f7c71da23262367013434763cfdb2332267641728d25cd712c5c6a686001611b13835f52600360205260405f2090565b0154936002611b2a845f52600360205260405f2090565b0193611b3d6040519283921695826118bb565b0390a45f90565b604080513360208201908152611b6b92611b669290610e749082908101610fcc565b6116c1565b611964565b611b7c5f548210611605565b611b9961190461190060036118f5855f52600360205260405f2090565b6001611bb061191e835f52600360205260405f2090565b6001600160a01b03939084163003611c5a57604080513360208201908152611be49261195f92906103b79082908101610fcc565b604051811515815283907fb3932da477fe5d6c8ff2eafef050c0f3a1af18fc07121001482600f36f3715d890602090a2151503611c32576119c160036119b3835f52600360205260405f2090565b611c569150611c4b6003915f52600360205260405f2090565b01805460ff19169055565b5f90565b604080513360208201908152611c7c92611b669290610e749082908101610fcc565b611be4565b15611c8857565b608460405162461bcd60e51b815260206004820152602160248201527f4e6f6e4578697374696e673a204b65792069736e27742072656769737465726560448201527f64000000000000000000000000000000000000000000000000000000000000006064820152fd5b5f1981019190821161143757565b81519167ffffffffffffffff8311610b5657680100000000000000008311610b56578154838355808410611d5e575b506020809101915f52805f20905f5b848110611d4c575050505050565b83518382015592810192600101611d3e565b611d7490835f528460205f2091820191016112f1565b5f611d2f565b8054908115611da3575f1991820191611d938383611594565b909182549160031b1b1916905555565b634e487b7160e01b5f52603160045260245ffd5b60025f91805483825580611dd1575b508260018201550155565b81845260208420611de4918101906112f1565b5f611dc6565b9294909394611e05600160ff60065460081c1615151461122b565b3033148015612048575b611e189061206e565b6001600160a01b03831694308603611fba575b604080516001600160a01b03861660208201908152918101879052611e538160608101610fcc565b51902096879486611e6c875f52600460205260405f2090565b55826001611e82885f52600460205260405f2090565b0155611e9c846003610dc2895f52600460205260405f2090565b611eb4826004610dc2895f52600460205260405f2090565b611ecc856005610dc2895f52600460205260405f2090565b87611ef3611ee7600261050a8a5f52600460205260405f2090565b6001600160a01b031690565b14611f875793611f8191611f757f46149b18aa084502c3f12bc75e19eda8bda8d102b82cce8474677a6d0d5f43c596611f388961024b8c5f52600560205260405f2090565b6002611f4c8a5f52600460205260405f2090565b01906001600160a01b031673ffffffffffffffffffffffffffffffffffffffff19825416179055565b60405194859485612183565b0390a490565b507f3bab293fc00db832d7619a9299914251b8747c036867ec056cbd506f60135b1393611f819160405194859485612183565b6040517fc0969a6e00000000000000000000000000000000000000000000000000000000815260208180611ff48b878b30600486016120f4565b03818a5afa801561204357612010915f91612015575b50612138565b611e2b565b612036915060203d811161203c575b61202e8183610b77565b8101906120df565b5f61200a565b503d612024565b61212d565b50611e1861206760405160208101903382526020815261065881610b5b565b9050611e0f565b1561207557565b608460405162461bcd60e51b815260206004820152603260248201527f5065726d697373696f6e733a2053656e64657220646f6573206e6f742068617660448201527f6520636c61696d207369676e6572206b657900000000000000000000000000006064820152fd5b908160209103126101a55751610c26816109b1565b92610c2694926001600160a01b0361211f931685526020850152608060408501526080840190610916565b916060818403910152610916565b6040513d5f823e3d90fd5b1561213f57565b606460405162461bcd60e51b815260206004820152600d60248201527f696e76616c696420636c61696d000000000000000000000000000000000000006044820152fd5b926121a3610c26959361211f938652608060208701526080860190610916565b908482036040860152610916565b926121d1610c2695936121df93865260806020870152608086019061182b565b90848203604086015261182b565b91606081840391015261182b565b6121f7815461129c565b9081612201575050565b81601f5f9311600114612212575055565b908083918252612231601f60208420940160051c8401600185016112f1565b5555565b60055f91828155826001820155826002820155612254600382016121ed565b612260600482016121ed565b0161226b815461129c565b8061227557505050565b82601f821160011461228657505055565b9091808252612231601f60208420940160051c8401600185016112f1565b906113406122b8926040519384809261182b565b0383610b77565b5f5260018060205260405f206002604051916122da83610b3a565b6122e38161144d565b8352838101546020840152015480604083015215612350575f90825b61230b575b5050505f90565b805191825181101561234a578361232382829561157b565b51148015612345575b61233f5761233990611429565b916122ff565b50505090565b61232c565b50612304565b50505f90565b5f5260018060205260405f2060026040519161237183610b3a565b61237a8161144d565b8352838101546020840152015480604083015215612350575f90825b6123a1575050505f90565b805191825181101561234a576123b881859461157b565b518381149081156123d8575b5061233f576123d290611429565b91612396565b60039150145f6123c4565b5f5260018060205260405f20604051906123fc82610b3a565b6124058161144d565b825282810154602083015260028091015480604084015215612304575f91835b612432575b505050505f90565b805192835181101561247c5761244981869561157b565b5183858214918215612472575b505061246b5761246590611429565b92612425565b5050505090565b149050835f612456565b5061242a565b5f526001908160205260405f209060026040519261249f84610b3a565b6124a88161144d565b8452848101546020850152015480604084015215612304575f91835b6124d057505050505f90565b805192835181101561247c576124e781869561157b565b5183858214918215612509575b505061246b5761250390611429565b926124c4565b149050835f6124f4565b916125da93926125b69261254b6040519586926001600160a01b03602085019516855260408401526060808401526080830190610916565b039361255f601f1995868101835282610b77565b5190206040516125ad816125a1602082019485603c917f19457468657265756d205369676e6564204d6573736167653a0a3332000000008252601c8201520190565b03868101835282610b77565b519020906125e7565b604080516001600160a01b0390921660208301908152926106589183908101610e68565b6125e2575f90565b600190565b905f60418351036126555760208301519060606040850151940151901a601b811061263e575b9160209360809260ff5f9560405194855216868401526040830152606082015282805260015afa15612043575f5190565b601b90929192019060ff821161143757919061260d565b91505090565b1561266257565b606460405162461bcd60e51b815260206004820152601e60248201527f496e697469616c206b65792077617320616c72656164792073657475702e00006044820152fd5b906126b08261150a565b905f52602090815f205f5b600181106126c95750505050565b825160ff1682820155918301916001016126bb56fea2646970667358221220e6ff6de2b2eb536d1747cc17f6b33f2e591b034edf6ea0b5a625819b784af1d364736f6c63430008140033","linkReferences":{}},"methodIdentifiers":{"addClaim(uint256,uint256,address,bytes,bytes,string)":"b1a34e0d","addKey(bytes32,uint256,uint256)":"1d381240","approve(uint256,bool)":"747442d3","execute(address,uint256,bytes)":"b61d27f6","getClaim(bytes32)":"c9100bcb","getClaimIdsByTopic(uint256)":"80e9e9e1","getKey(bytes32)":"12aaac70","getKeyPurposes(bytes32)":"fb307b34","getKeysByPurpose(uint256)":"9010f726","getRecoveredAddress(bytes,bytes32)":"c3b129e3","initialize(address)":"c4d66de8","isClaimValid(address,uint256,bytes,bytes)":"c0969a6e","keyHasPurpose(bytes32,uint256)":"d202158d","removeClaim(bytes32)":"4eee424a","removeKey(bytes32,uint256)":"53d413c5","version()":"54fd4d50"},"id":31}