{"abi":[{"type":"function","name":"arithmeticError","inputs":[],"outputs":[{"name":"","type":"bytes","internalType":"bytes"}],"stateMutability":"view"},{"type":"function","name":"assertionError","inputs":[],"outputs":[{"name":"","type":"bytes","internalType":"bytes"}],"stateMutability":"view"},{"type":"function","name":"divisionError","inputs":[],"outputs":[{"name":"","type":"bytes","internalType":"bytes"}],"stateMutability":"view"},{"type":"function","name":"encodeStorageError","inputs":[],"outputs":[{"name":"","type":"bytes","internalType":"bytes"}],"stateMutability":"view"},{"type":"function","name":"enumConversionError","inputs":[],"outputs":[{"name":"","type":"bytes","internalType":"bytes"}],"stateMutability":"view"},{"type":"function","name":"indexOOBError","inputs":[],"outputs":[{"name":"","type":"bytes","internalType":"bytes"}],"stateMutability":"view"},{"type":"function","name":"memOverflowError","inputs":[],"outputs":[{"name":"","type":"bytes","internalType":"bytes"}],"stateMutability":"view"},{"type":"function","name":"popError","inputs":[],"outputs":[{"name":"","type":"bytes","internalType":"bytes"}],"stateMutability":"view"},{"type":"function","name":"zeroVarError","inputs":[],"outputs":[{"name":"","type":"bytes","internalType":"bytes"}],"stateMutability":"view"}],"bytecode":{"object":"0x6080806040523461001a57610318908161001f823930815050f35b5f80fdfe608060408181526004361015610013575f80fd5b5f91823560e01c90816305ee8612146102335750806310332977146101ff5780631de45560146101cb5780638995290f14610197578063986c5f6814610163578063b22dc54d1461012f578063b67689da146100fb578063d160e4de146100c75763fa784a4414610082575f80fd5b816003193601126100c357806100bf915190634e487b7160e01b602083015260126024830152602482526100b58261026b565b519182918261029b565b0390f35b5080fd5b50816003193601126100c357806100bf915190634e487b7160e01b602083015260226024830152602482526100b58261026b565b50816003193601126100c357806100bf915190634e487b7160e01b602083015260516024830152602482526100b58261026b565b50816003193601126100c357806100bf915190634e487b7160e01b602083015260316024830152602482526100b58261026b565b50816003193601126100c357806100bf915190634e487b7160e01b602083015260416024830152602482526100b58261026b565b50816003193601126100c357806100bf915190634e487b7160e01b602083015260116024830152602482526100b58261026b565b50816003193601126100c357806100bf915190634e487b7160e01b602083015260216024830152602482526100b58261026b565b50816003193601126100c357806100bf915190634e487b7160e01b602083015260016024830152602482526100b58261026b565b91905082600319360112610267576100bf9250634e487b7160e01b602083015260326024830152602482526100b58261026b565b8280fd5b6060810190811067ffffffffffffffff82111761028757604052565b634e487b7160e01b5f52604160045260245ffd5b602080825282518183018190529093925f5b8281106102ce57505060409293505f838284010152601f8019910116010190565b8181018601518482016040015285016102ad56fea2646970667358221220b9cfa88a892963ad06495571258ca1007b954e579c12b2740b34c224b94eb4eb64736f6c63430008140033","linkReferences":{}},"methodIdentifiers":{"arithmeticError()":"8995290f","assertionError()":"10332977","divisionError()":"fa784a44","encodeStorageError()":"d160e4de","enumConversionError()":"1de45560","indexOOBError()":"05ee8612","memOverflowError()":"986c5f68","popError()":"b22dc54d","zeroVarError()":"b67689da"},"id":16}