{"abi":[{"type":"function","name":"version","inputs":[],"outputs":[{"name":"","type":"string","internalType":"string"}],"stateMutability":"pure"}],"bytecode":{"object":"0x6080806040523461001657610120908161001b8239f35b5f80fdfe60806004361015600d575f80fd5b5f90813560e01c6354fd4d50146021575f80fd5b3460e6578160031936011260e65760409081810181811067ffffffffffffffff82111760b9578252600581526020907f322e322e310000000000000000000000000000000000000000000000000000008282015282519382859384528251928382860152825b84811060a457505050828201840152601f01601f19168101030190f35b81810183015188820188015287955082016087565b6024847f4e487b710000000000000000000000000000000000000000000000000000000081526041600452fd5b5080fdfea26469706673582212208027b53f4ea941b1bc27b5599bd5830ca33ff4bbdd37b0652552cac0470c739e64736f6c63430008140033","linkReferences":{}},"methodIdentifiers":{"version()":"54fd4d50"},"id":38}