{"abi":[{"type":"function","name":"addAgent","inputs":[{"name":"_agent","type":"address","internalType":"address"}],"outputs":[],"stateMutability":"nonpayable"},{"type":"function","name":"isAgent","inputs":[{"name":"_agent","type":"address","internalType":"address"}],"outputs":[{"name":"","type":"bool","internalType":"bool"}],"stateMutability":"view"},{"type":"function","name":"owner","inputs":[],"outputs":[{"name":"","type":"address","internalType":"address"}],"stateMutability":"view"},{"type":"function","name":"removeAgent","inputs":[{"name":"_agent","type":"address","internalType":"address"}],"outputs":[],"stateMutability":"nonpayable"},{"type":"function","name":"renounceOwnership","inputs":[],"outputs":[],"stateMutability":"nonpayable"},{"type":"function","name":"transferOwnership","inputs":[{"name":"newOwner","type":"address","internalType":"address"}],"outputs":[],"stateMutability":"nonpayable"},{"type":"event","name":"AgentAdded","inputs":[{"name":"_agent","type":"address","indexed":true,"internalType":"address"}],"anonymous":false},{"type":"event","name":"AgentRemoved","inputs":[{"name":"_agent","type":"address","indexed":true,"internalType":"address"}],"anonymous":false},{"type":"event","name":"Initialized","inputs":[{"name":"version","type":"uint8","indexed":false,"internalType":"uint8"}],"anonymous":false},{"type":"event","name":"OwnershipTransferred","inputs":[{"name":"previousOwner","type":"address","indexed":true,"internalType":"address"},{"name":"newOwner","type":"address","indexed":true,"internalType":"address"}],"anonymous":false}],"bytecode":{"object":"0x608080604052346100165761055c908161001b8239f35b5f80fdfe604060808152600480361015610013575f80fd5b5f91823560e01c80631ffbb064146103be578063715018a61461035357806384e79842146102795780638da5cb5b1461024d57806397a6278e1461014f5763f2fde38b1461005f575f80fd5b3461014b57602036600319011261014b578135916001600160a01b03918284168094036101475761008e6104ce565b83156100de5750506033548273ffffffffffffffffffffffffffffffffffffffff19821617603355167f8be0079c531659141344cd1fd0a4f28419497f9722a3daafe3b4186f6b6457e08380a380f35b906020608492519162461bcd60e51b8352820152602660248201527f4f776e61626c653a206e6577206f776e657220697320746865207a65726f206160448201527f64647265737300000000000000000000000000000000000000000000000000006064820152fd5b8480fd5b8280fd5b50903461014b57602036600319011261014b578035906001600160a01b038216928383036101475761017f6104ce565b61018a8415156103f8565b61019383610443565b156101e45750506101b5906001600160a01b03165f52606560205260405f2090565b805460ff191690557fed9c8ad8d5a0a66898ea49d2956929c93ae2e8bd50281b2ed897c5d1a6737e0b8280a280f35b906020608492519162461bcd60e51b8352820152602160248201527f526f6c65733a206163636f756e7420646f6573206e6f74206861766520726f6c60448201527f65000000000000000000000000000000000000000000000000000000000000006064820152fd5b8382346102755781600319360112610275576020906001600160a01b03603354169051908152f35b5080fd5b50903461014b57602036600319011261014b578035906001600160a01b03821692838303610147576102a96104ce565b6102b48415156103f8565b6102bd83610443565b6103105750506102de906001600160a01b03165f52606560205260405f2090565b805460ff191660011790557ff68e73cec97f2d70aa641fb26e87a4383686e2efacb648f2165aeb02ac562ec58280a280f35b906020606492519162461bcd60e51b8352820152601f60248201527f526f6c65733a206163636f756e7420616c72656164792068617320726f6c65006044820152fd5b83346103bb57806003193601126103bb5761036c6104ce565b806001600160a01b0360335473ffffffffffffffffffffffffffffffffffffffff198116603355167f8be0079c531659141344cd1fd0a4f28419497f9722a3daafe3b4186f6b6457e08280a380f35b80fd5b50903461014b57602036600319011261014b5735916001600160a01b03831683036103bb57506103ef602092610443565b90519015158152f35b156103ff57565b606460405162461bcd60e51b815260206004820152601f60248201527f696e76616c696420617267756d656e74202d207a65726f2061646472657373006044820152fd5b6001600160a01b03168015610464575f52606560205260ff60405f20541690565b608460405162461bcd60e51b815260206004820152602260248201527f526f6c65733a206163636f756e7420697320746865207a65726f20616464726560448201527f73730000000000000000000000000000000000000000000000000000000000006064820152fd5b6001600160a01b036033541633036104e257565b606460405162461bcd60e51b815260206004820152602060248201527f4f776e61626c653a2063616c6c6572206973206e6f7420746865206f776e65726044820152fdfea26469706673582212207a0c561e15171c4fb7f8ffe659930ca60dad789627be4251a26af80aca0329e764736f6c63430008140033","linkReferences":{}},"methodIdentifiers":{"addAgent(address)":"84e79842","isAgent(address)":"1ffbb064","owner()":"8da5cb5b","removeAgent(address)":"97a6278e","renounceOwnership()":"715018a6","transferOwnership(address)":"f2fde38b"},"id":5}