{"abi":[{"type":"receive","stateMutability":"payable"},{"type":"function","name":"addAgent","inputs":[{"name":"_agent","type":"address","internalType":"address"}],"outputs":[],"stateMutability":"nonpayable"},{"type":"function","name":"allowance","inputs":[{"name":"_owner","type":"address","internalType":"address"},{"name":"_spender","type":"address","internalType":"address"}],"outputs":[{"name":"","type":"uint256","internalType":"uint256"}],"stateMutability":"view"},{"type":"function","name":"approve","inputs":[{"name":"_spender","type":"address","internalType":"address"},{"name":"_amount","type":"uint256","internalType":"uint256"}],"outputs":[{"name":"","type":"bool","internalType":"bool"}],"stateMutability":"nonpayable"},{"type":"function","name":"balanceOf","inputs":[{"name":"_userAddress","type":"address","internalType":"address"}],"outputs":[{"name":"","type":"uint256","internalType":"uint256"}],"stateMutability":"view"},{"type":"function","name":"batchBurn","inputs":[{"name":"_userAddresses","type":"address[]","internalType":"address[]"},{"name":"_amounts","type":"uint256[]","internalType":"uint256[]"}],"outputs":[],"stateMutability":"nonpayable"},{"type":"function","name":"batchForcedTransfer","inputs":[{"name":"_fromList","type":"address[]","internalType":"address[]"},{"name":"_toList","type":"address[]","internalType":"address[]"},{"name":"_amounts","type":"uint256[]","internalType":"uint256[]"}],"outputs":[],"stateMutability":"nonpayable"},{"type":"function","name":"batchFreezePartialTokens","inputs":[{"name":"_userAddresses","type":"address[]","internalType":"address[]"},{"name":"_amounts","type":"uint256[]","internalType":"uint256[]"}],"outputs":[],"stateMutability":"nonpayable"},{"type":"function","name":"batchMint","inputs":[{"name":"_toList","type":"address[]","internalType":"address[]"},{"name":"_amounts","type":"uint256[]","internalType":"uint256[]"}],"outputs":[],"stateMutability":"nonpayable"},{"type":"function","name":"batchSetAddressFrozen","inputs":[{"name":"_userAddresses","type":"address[]","internalType":"address[]"},{"name":"_freeze","type":"bool[]","internalType":"bool[]"}],"outputs":[],"stateMutability":"nonpayable"},{"type":"function","name":"batchTransfer","inputs":[{"name":"_toList","type":"address[]","internalType":"address[]"},{"name":"_amounts","type":"uint256[]","internalType":"uint256[]"}],"outputs":[],"stateMutability":"nonpayable"},{"type":"function","name":"batchUnfreezePartialTokens","inputs":[{"name":"_userAddresses","type":"address[]","internalType":"address[]"},{"name":"_amounts","type":"uint256[]","internalType":"uint256[]"}],"outputs":[],"stateMutability":"nonpayable"},{"type":"function","name":"burn","inputs":[{"name":"_userAddress","type":"address","internalType":"address"},{"name":"_amount","type":"uint256","internalType":"uint256"}],"outputs":[],"stateMutability":"nonpayable"},{"type":"function","name":"calculateTDS","inputs":[{"name":"_amount","type":"uint256","internalType":"uint256"}],"outputs":[{"name":"","type":"uint256","internalType":"uint256"}],"stateMutability":"view"},{"type":"function","name":"commitments","inputs":[{"name":"","type":"bytes32","internalType":"bytes32"}],"outputs":[{"name":"","type":"bool","internalType":"bool"}],"stateMutability":"view"},{"type":"function","name":"compliance","inputs":[],"outputs":[{"name":"","type":"address","internalType":"contract IModularCompliance"}],"stateMutability":"view"},{"type":"function","name":"decimals","inputs":[],"outputs":[{"name":"","type":"uint8","internalType":"uint8"}],"stateMutability":"view"},{"type":"function","name":"decreaseAllowance","inputs":[{"name":"_spender","type":"address","internalType":"address"},{"name":"_subtractedValue","type":"uint256","internalType":"uint256"}],"outputs":[{"name":"","type":"bool","internalType":"bool"}],"stateMutability":"nonpayable"},{"type":"function","name":"deposit","inputs":[{"name":"_commitment","type":"bytes32","internalType":"bytes32"}],"outputs":[],"stateMutability":"payable"},{"type":"function","name":"depositWithSandboxTDS","inputs":[{"name":"_commitment","type":"bytes32","internalType":"bytes32"},{"name":"_tdsResponse","type":"tuple","internalType":"struct SandboxAPITypes.TDSCalculationResponse","components":[{"name":"transaction_id","type":"string","internalType":"string"},{"name":"gross_amount","type":"uint256","internalType":"uint256"},{"name":"tds_rate","type":"uint256","internalType":"uint256"},{"name":"tds_amount","type":"uint256","internalType":"uint256"},{"name":"net_amount","type":"uint256","internalType":"uint256"},{"name":"tds_certificate","type":"string","internalType":"string"},{"name":"signature","type":"bytes","internalType":"bytes"}]}],"outputs":[],"stateMutability":"payable"},{"type":"function","name":"emergencyWithdraw","inputs":[],"outputs":[],"stateMutability":"nonpayable"},{"type":"function","name":"forcedTransfer","inputs":[{"name":"_from","type":"address","internalType":"address"},{"name":"_to","type":"address","internalType":"address"},{"name":"_amount","type":"uint256","internalType":"uint256"}],"outputs":[{"name":"","type":"bool","internalType":"bool"}],"stateMutability":"nonpayable"},{"type":"function","name":"freezePartialTokens","inputs":[{"name":"_userAddress","type":"address","internalType":"address"},{"name":"_amount","type":"uint256","internalType":"uint256"}],"outputs":[],"stateMutability":"nonpayable"},{"type":"function","name":"getContractBalance","inputs":[],"outputs":[{"name":"","type":"uint256","internalType":"uint256"}],"stateMutability":"view"},{"type":"function","name":"getFrozenTokens","inputs":[{"name":"_userAddress","type":"address","internalType":"address"}],"outputs":[{"name":"","type":"uint256","internalType":"uint256"}],"stateMutability":"view"},{"type":"function","name":"getTDSCertificate","inputs":[{"name":"_transactionId","type":"string","internalType":"string"}],"outputs":[{"name":"","type":"string","internalType":"string"}],"stateMutability":"view"},{"type":"function","name":"identityRegistry","inputs":[],"outputs":[{"name":"","type":"address","internalType":"contract IIdentityRegistry"}],"stateMutability":"view"},{"type":"function","name":"increaseAllowance","inputs":[{"name":"_spender","type":"address","internalType":"address"},{"name":"_addedValue","type":"uint256","internalType":"uint256"}],"outputs":[{"name":"","type":"bool","internalType":"bool"}],"stateMutability":"nonpayable"},{"type":"function","name":"init","inputs":[{"name":"_identityRegistry","type":"address","internalType":"address"},{"name":"_compliance","type":"address","internalType":"address"},{"name":"_name","type":"string","internalType":"string"},{"name":"_symbol","type":"string","internalType":"string"},{"name":"_decimals","type":"uint8","internalType":"uint8"},{"name":"_onchainID","type":"address","internalType":"address"}],"outputs":[],"stateMutability":"nonpayable"},{"type":"function","name":"initialize","inputs":[{"name":"_identityRegistry","type":"address","internalType":"address"},{"name":"_compliance","type":"address","internalType":"address"},{"name":"_name","type":"string","internalType":"string"},{"name":"_symbol","type":"string","internalType":"string"},{"name":"_decimals","type":"uint8","internalType":"uint8"},{"name":"_onchainID","type":"address","internalType":"address"},{"name":"_tdsCollector","type":"address","internalType":"address"},{"name":"_sandboxPublicKey","type":"address","internalType":"address"}],"outputs":[],"stateMutability":"nonpayable"},{"type":"function","name":"isAgent","inputs":[{"name":"_agent","type":"address","internalType":"address"}],"outputs":[{"name":"","type":"bool","internalType":"bool"}],"stateMutability":"view"},{"type":"function","name":"isCommitmentUsed","inputs":[{"name":"_commitment","type":"bytes32","internalType":"bytes32"}],"outputs":[{"name":"","type":"bool","internalType":"bool"}],"stateMutability":"view"},{"type":"function","name":"isFrozen","inputs":[{"name":"_userAddress","type":"address","internalType":"address"}],"outputs":[{"name":"","type":"bool","internalType":"bool"}],"stateMutability":"view"},{"type":"function","name":"isNullifierUsed","inputs":[{"name":"_nullifierHash","type":"bytes32","internalType":"bytes32"}],"outputs":[{"name":"","type":"bool","internalType":"bool"}],"stateMutability":"view"},{"type":"function","name":"mint","inputs":[{"name":"_to","type":"address","internalType":"address"},{"name":"_amount","type":"uint256","internalType":"uint256"}],"outputs":[],"stateMutability":"nonpayable"},{"type":"function","name":"name","inputs":[],"outputs":[{"name":"","type":"string","internalType":"string"}],"stateMutability":"view"},{"type":"function","name":"nullifierHashes","inputs":[{"name":"","type":"bytes32","internalType":"bytes32"}],"outputs":[{"name":"","type":"bool","internalType":"bool"}],"stateMutability":"view"},{"type":"function","name":"onchainID","inputs":[],"outputs":[{"name":"","type":"address","internalType":"address"}],"stateMutability":"view"},{"type":"function","name":"owner","inputs":[],"outputs":[{"name":"","type":"address","internalType":"address"}],"stateMutability":"view"},{"type":"function","name":"pause","inputs":[],"outputs":[],"stateMutability":"nonpayable"},{"type":"function","name":"pauseContract","inputs":[],"outputs":[],"stateMutability":"nonpayable"},{"type":"function","name":"pauseToken","inputs":[],"outputs":[],"stateMutability":"nonpayable"},{"type":"function","name":"paused","inputs":[],"outputs":[{"name":"","type":"bool","internalType":"bool"}],"stateMutability":"view"},{"type":"function","name":"processedTransactions","inputs":[{"name":"","type":"string","internalType":"string"}],"outputs":[{"name":"","type":"bool","internalType":"bool"}],"stateMutability":"view"},{"type":"function","name":"recoveryAddress","inputs":[{"name":"_lostWallet","type":"address","internalType":"address"},{"name":"_newWallet","type":"address","internalType":"address"},{"name":"_investorOnchainID","type":"address","internalType":"address"}],"outputs":[{"name":"","type":"bool","internalType":"bool"}],"stateMutability":"nonpayable"},{"type":"function","name":"removeAgent","inputs":[{"name":"_agent","type":"address","internalType":"address"}],"outputs":[],"stateMutability":"nonpayable"},{"type":"function","name":"renounceOwnership","inputs":[],"outputs":[],"stateMutability":"nonpayable"},{"type":"function","name":"sandboxPublicKey","inputs":[],"outputs":[{"name":"","type":"address","internalType":"address"}],"stateMutability":"view"},{"type":"function","name":"setAddressFrozen","inputs":[{"name":"_userAddress","type":"address","internalType":"address"},{"name":"_freeze","type":"bool","internalType":"bool"}],"outputs":[],"stateMutability":"nonpayable"},{"type":"function","name":"setCompliance","inputs":[{"name":"_compliance","type":"address","internalType":"address"}],"outputs":[],"stateMutability":"nonpayable"},{"type":"function","name":"setIdentityRegistry","inputs":[{"name":"_identityRegistry","type":"address","internalType":"address"}],"outputs":[],"stateMutability":"nonpayable"},{"type":"function","name":"setName","inputs":[{"name":"_name","type":"string","internalType":"string"}],"outputs":[],"stateMutability":"nonpayable"},{"type":"function","name":"setOnchainID","inputs":[{"name":"_onchainID","type":"address","internalType":"address"}],"outputs":[],"stateMutability":"nonpayable"},{"type":"function","name":"setSymbol","inputs":[{"name":"_symbol","type":"string","internalType":"string"}],"outputs":[],"stateMutability":"nonpayable"},{"type":"function","name":"setTDSCollector","inputs":[{"name":"_newCollector","type":"address","internalType":"address"}],"outputs":[],"stateMutability":"nonpayable"},{"type":"function","name":"setTDSRate","inputs":[{"name":"_newRate","type":"uint256","internalType":"uint256"}],"outputs":[],"stateMutability":"nonpayable"},{"type":"function","name":"storeTDSCertificate","inputs":[{"name":"_transactionId","type":"string","internalType":"string"},{"name":"_certificate","type":"string","internalType":"string"}],"outputs":[],"stateMutability":"nonpayable"},{"type":"function","name":"symbol","inputs":[],"outputs":[{"name":"","type":"string","internalType":"string"}],"stateMutability":"view"},{"type":"function","name":"tdsCertificates","inputs":[{"name":"","type":"string","internalType":"string"}],"outputs":[{"name":"","type":"string","internalType":"string"}],"stateMutability":"view"},{"type":"function","name":"tdsCollector","inputs":[],"outputs":[{"name":"","type":"address","internalType":"address"}],"stateMutability":"view"},{"type":"function","name":"tdsRate","inputs":[],"outputs":[{"name":"","type":"uint256","internalType":"uint256"}],"stateMutability":"view"},{"type":"function","name":"totalSupply","inputs":[],"outputs":[{"name":"","type":"uint256","internalType":"uint256"}],"stateMutability":"view"},{"type":"function","name":"totalTDSCollected","inputs":[],"outputs":[{"name":"","type":"uint256","internalType":"uint256"}],"stateMutability":"view"},{"type":"function","name":"transfer","inputs":[{"name":"_to","type":"address","internalType":"address"},{"name":"_amount","type":"uint256","internalType":"uint256"}],"outputs":[{"name":"","type":"bool","internalType":"bool"}],"stateMutability":"nonpayable"},{"type":"function","name":"transferFrom","inputs":[{"name":"_from","type":"address","internalType":"address"},{"name":"_to","type":"address","internalType":"address"},{"name":"_amount","type":"uint256","internalType":"uint256"}],"outputs":[{"name":"","type":"bool","internalType":"bool"}],"stateMutability":"nonpayable"},{"type":"function","name":"transferFromWithTDS","inputs":[{"name":"_from","type":"address","internalType":"address"},{"name":"_to","type":"address","internalType":"address"},{"name":"_amount","type":"uint256","internalType":"uint256"}],"outputs":[{"name":"","type":"bool","internalType":"bool"}],"stateMutability":"nonpayable"},{"type":"function","name":"transferOwnership","inputs":[{"name":"newOwner","type":"address","internalType":"address"}],"outputs":[],"stateMutability":"nonpayable"},{"type":"function","name":"transferWithSandboxTDS","inputs":[{"name":"_to","type":"address","internalType":"address"},{"name":"_amount","type":"uint256","internalType":"uint256"},{"name":"_tdsResponse","type":"tuple","internalType":"struct SandboxAPITypes.TDSCalculationResponse","components":[{"name":"transaction_id","type":"string","internalType":"string"},{"name":"gross_amount","type":"uint256","internalType":"uint256"},{"name":"tds_rate","type":"uint256","internalType":"uint256"},{"name":"tds_amount","type":"uint256","internalType":"uint256"},{"name":"net_amount","type":"uint256","internalType":"uint256"},{"name":"tds_certificate","type":"string","internalType":"string"},{"name":"signature","type":"bytes","internalType":"bytes"}]}],"outputs":[{"name":"","type":"bool","internalType":"bool"}],"stateMutability":"nonpayable"},{"type":"function","name":"transferWithTDS","inputs":[{"name":"_to","type":"address","internalType":"address"},{"name":"_amount","type":"uint256","internalType":"uint256"}],"outputs":[{"name":"","type":"bool","internalType":"bool"}],"stateMutability":"nonpayable"},{"type":"function","name":"unfreezePartialTokens","inputs":[{"name":"_userAddress","type":"address","internalType":"address"},{"name":"_amount","type":"uint256","internalType":"uint256"}],"outputs":[],"stateMutability":"nonpayable"},{"type":"function","name":"unpause","inputs":[],"outputs":[],"stateMutability":"nonpayable"},{"type":"function","name":"unpauseContract","inputs":[],"outputs":[],"stateMutability":"nonpayable"},{"type":"function","name":"unpauseToken","inputs":[],"outputs":[],"stateMutability":"nonpayable"},{"type":"function","name":"userVerificationIds","inputs":[{"name":"","type":"address","internalType":"address"},{"name":"","type":"uint256","internalType":"uint256"}],"outputs":[{"name":"","type":"string","internalType":"string"}],"stateMutability":"view"},{"type":"function","name":"verifySandboxTDSSignature","inputs":[{"name":"_response","type":"tuple","internalType":"struct SandboxAPITypes.TDSCalculationResponse","components":[{"name":"transaction_id","type":"string","internalType":"string"},{"name":"gross_amount","type":"uint256","internalType":"uint256"},{"name":"tds_rate","type":"uint256","internalType":"uint256"},{"name":"tds_amount","type":"uint256","internalType":"uint256"},{"name":"net_amount","type":"uint256","internalType":"uint256"},{"name":"tds_certificate","type":"string","internalType":"string"},{"name":"signature","type":"bytes","internalType":"bytes"}]}],"outputs":[{"name":"","type":"bool","internalType":"bool"}],"stateMutability":"pure"},{"type":"function","name":"verifyzkETHerProof","inputs":[{"name":"_nullifierHash","type":"bytes32","internalType":"bytes32"},{"name":"_commitment","type":"bytes32","internalType":"bytes32"},{"name":"_proof","type":"bytes","internalType":"bytes"}],"outputs":[{"name":"","type":"bool","internalType":"bool"}],"stateMutability":"pure"},{"type":"function","name":"version","inputs":[],"outputs":[{"name":"","type":"string","internalType":"string"}],"stateMutability":"pure"},{"type":"function","name":"withdraw","inputs":[{"name":"_amount","type":"uint256","internalType":"uint256"},{"name":"_nullifierHash","type":"bytes32","internalType":"bytes32"},{"name":"_proof","type":"bytes","internalType":"bytes"}],"outputs":[],"stateMutability":"nonpayable"},{"type":"function","name":"withdrawWithSandboxTDS","inputs":[{"name":"_amount","type":"uint256","internalType":"uint256"},{"name":"_nullifierHash","type":"bytes32","internalType":"bytes32"},{"name":"_proof","type":"bytes","internalType":"bytes"},{"name":"_tdsResponse","type":"tuple","internalType":"struct SandboxAPITypes.TDSCalculationResponse","components":[{"name":"transaction_id","type":"string","internalType":"string"},{"name":"gross_amount","type":"uint256","internalType":"uint256"},{"name":"tds_rate","type":"uint256","internalType":"uint256"},{"name":"tds_amount","type":"uint256","internalType":"uint256"},{"name":"net_amount","type":"uint256","internalType":"uint256"},{"name":"tds_certificate","type":"string","internalType":"string"},{"name":"signature","type":"bytes","internalType":"bytes"}]}],"outputs":[],"stateMutability":"nonpayable"},{"type":"event","name":"AddressFrozen","inputs":[{"name":"_userAddress","type":"address","indexed":true,"internalType":"address"},{"name":"_isFrozen","type":"bool","indexed":true,"internalType":"bool"},{"name":"_owner","type":"address","indexed":true,"internalType":"address"}],"anonymous":false},{"type":"event","name":"AgentAdded","inputs":[{"name":"_agent","type":"address","indexed":true,"internalType":"address"}],"anonymous":false},{"type":"event","name":"AgentRemoved","inputs":[{"name":"_agent","type":"address","indexed":true,"internalType":"address"}],"anonymous":false},{"type":"event","name":"Approval","inputs":[{"name":"owner","type":"address","indexed":true,"internalType":"address"},{"name":"spender","type":"address","indexed":true,"internalType":"address"},{"name":"value","type":"uint256","indexed":false,"internalType":"uint256"}],"anonymous":false},{"type":"event","name":"ComplianceAdded","inputs":[{"name":"_compliance","type":"address","indexed":true,"internalType":"address"}],"anonymous":false},{"type":"event","name":"Deposit","inputs":[{"name":"user","type":"address","indexed":true,"internalType":"address"},{"name":"amount","type":"uint256","indexed":false,"internalType":"uint256"},{"name":"commitment","type":"bytes32","indexed":false,"internalType":"bytes32"}],"anonymous":false},{"type":"event","name":"IdentityRegistryAdded","inputs":[{"name":"_identityRegistry","type":"address","indexed":true,"internalType":"address"}],"anonymous":false},{"type":"event","name":"Initialized","inputs":[{"name":"version","type":"uint8","indexed":false,"internalType":"uint8"}],"anonymous":false},{"type":"event","name":"OwnershipTransferred","inputs":[{"name":"previousOwner","type":"address","indexed":true,"internalType":"address"},{"name":"newOwner","type":"address","indexed":true,"internalType":"address"}],"anonymous":false},{"type":"event","name":"Paused","inputs":[{"name":"_userAddress","type":"address","indexed":false,"internalType":"address"}],"anonymous":false},{"type":"event","name":"RecoverySuccess","inputs":[{"name":"_lostWallet","type":"address","indexed":true,"internalType":"address"},{"name":"_newWallet","type":"address","indexed":true,"internalType":"address"},{"name":"_investorOnchainID","type":"address","indexed":true,"internalType":"address"}],"anonymous":false},{"type":"event","name":"SandboxTDSCalculated","inputs":[{"name":"transactionId","type":"string","indexed":true,"internalType":"string"},{"name":"grossAmount","type":"uint256","indexed":false,"internalType":"uint256"},{"name":"tdsAmount","type":"uint256","indexed":false,"internalType":"uint256"}],"anonymous":false},{"type":"event","name":"TDSCollectorUpdated","inputs":[{"name":"oldCollector","type":"address","indexed":false,"internalType":"address"},{"name":"newCollector","type":"address","indexed":false,"internalType":"address"}],"anonymous":false},{"type":"event","name":"TDSDeducted","inputs":[{"name":"user","type":"address","indexed":true,"internalType":"address"},{"name":"grossAmount","type":"uint256","indexed":false,"internalType":"uint256"},{"name":"tdsAmount","type":"uint256","indexed":false,"internalType":"uint256"},{"name":"netAmount","type":"uint256","indexed":false,"internalType":"uint256"}],"anonymous":false},{"type":"event","name":"TDSRateUpdated","inputs":[{"name":"oldRate","type":"uint256","indexed":false,"internalType":"uint256"},{"name":"newRate","type":"uint256","indexed":false,"internalType":"uint256"}],"anonymous":false},{"type":"event","name":"TokensFrozen","inputs":[{"name":"_userAddress","type":"address","indexed":true,"internalType":"address"},{"name":"_amount","type":"uint256","indexed":false,"internalType":"uint256"}],"anonymous":false},{"type":"event","name":"TokensUnfrozen","inputs":[{"name":"_userAddress","type":"address","indexed":true,"internalType":"address"},{"name":"_amount","type":"uint256","indexed":false,"internalType":"uint256"}],"anonymous":false},{"type":"event","name":"Transfer","inputs":[{"name":"from","type":"address","indexed":true,"internalType":"address"},{"name":"to","type":"address","indexed":true,"internalType":"address"},{"name":"value","type":"uint256","indexed":false,"internalType":"uint256"}],"anonymous":false},{"type":"event","name":"Unpaused","inputs":[{"name":"_userAddress","type":"address","indexed":false,"internalType":"address"}],"anonymous":false},{"type":"event","name":"UpdatedTokenInformation","inputs":[{"name":"_newName","type":"string","indexed":true,"internalType":"string"},{"name":"_newSymbol","type":"string","indexed":true,"internalType":"string"},{"name":"_newDecimals","type":"uint8","indexed":false,"internalType":"uint8"},{"name":"_newVersion","type":"string","indexed":false,"internalType":"string"},{"name":"_newOnchainID","type":"address","indexed":true,"internalType":"address"}],"anonymous":false},{"type":"event","name":"Withdrawal","inputs":[{"name":"user","type":"address","indexed":true,"internalType":"address"},{"name":"amount","type":"uint256","indexed":false,"internalType":"uint256"},{"name":"nullifierHash","type":"bytes32","indexed":false,"internalType":"bytes32"}],"anonymous":false}],"bytecode":{"object":"0x608080604052346100265760ff19606e5416606e55606460a155615bd290816200002b8239f35b5f80fdfe608080604052600436101561001c575b50361561001a575f80fd5b005b5f90813560e01c90816306fdde0314613f5d5750806307f2797414613f0a578063095ea7b314613ee3578063125c4a3314613e0e578063134e18f414613de4578063158b1a5714613dac57806317cc915c14613b6657806318160ddd14613d8e5780631a7af37914613ce05780631f57801314613cb95780631fe56f7d14613bb95780631ffbb06414613b9557806322a1eb24146122af57806322dc7b4c14613b6657806323b872dd14613b3d5780632998ff0914613b165780632c3496271461336b578063313ce56714613af55780633644c8c0146137d057806339509351146137865780633d1ddc5b146136cd5780633f4ba83a1461362c57806340c10f191461344d57806342a47abc14613394578063439766ce1461336b5780634710362d146132585780634a6cc677146130a95780634a9f14d114612fea5780634e50c9e714612fc357806350669a03146118a657806354fd4d5014612fa75780635c975abb14612f845780636290865d14612f5d5780636857310714612d2d57806369af476514612be95780636e31067514612ac05780636f9fb98a14612aa457806370a0823114612a6c578063715018a614612a1157806375135d2d146127d8578063839df945146116435780638456cb591461277457806384e798421461269e57806388d695b21461263f5780638b97d790146122fb5780638d2246f4146122af5780638da5cb5b146122885780639285948a1461223a57806395d89b411461216e57806396285e411461210757806397a6278e1461200d5780639dc29fac14611e8d5780639ea3284414611e2a5780639fc1d0e714611e04578063a457c2d714611da9578063a9059cbb14611d68578063aa0a817114611cc4578063aba6370514611c9a578063b10e84ad14611aa3578063b214faa5146118cc578063b33712c5146118a6578063b5d76631146116de578063b5deaed814611672578063b61b395c14611643578063b84c82461461152e578063bb6bfa6514611510578063c47f00271461136e578063c69c09cf146112e5578063cbf3f86114611258578063db2e21bc14611207578063dd62ed3e146111b9578063e58398361461117c578063ed39a08814610d8f578063f2fde38b14610ce8578063f898178914610be6578063f91b619c146104bc578063fb2732081461049e5763fc7e5fa80361000f573461049b5761038c366141bb565b909192845b84811061039c578580f35b6103af6103aa82878561492f565b614953565b6001600160a01b036103c283868861492f565b35916103d56103d0336144ae565b614865565b1690818852602090606682526040892054606d908184526103fa8360408d2054614810565b11610458579181849361043c7fa065e63c631c86f1b9f66a4a2f63f2093bf1c2168d23290259dbd969e0222a459460408e6104539a9981528487522054614810565b90858d52835260408c2055604051908152a2614921565b610391565b6064836040519062461bcd60e51b825280600483015260248201527f416d6f756e74206578636565647320617661696c61626c652062616c616e63656044820152fd5b80fd5b503461049b578060031936011261049b57602060a154604051908152f35b503461049b5760c036600319011261049b576104d6614148565b6104de61415e565b60443567ffffffffffffffff8111610be2576104fe9036906004016140f2565b9160643567ffffffffffffffff8111610bde5761051f9036906004016140f2565b610527614409565b90610530614174565b9086549560ff8760081c161596878098610bd1575b8015610bba575b15610b505760ff198116600117895587610b3f575b506001600160a01b0360335416610afb576001600160a01b038516151580610ae9575b61058d90614463565b6040516020810190602082526105b8816105aa604082018661404b565b03601f1981018352826140d0565b5190206040516020810190602082525f6040820152604081526105da816140b4565b519020141580610a9a575b6105ee9061451e565b601260ff851611610a565761061260ff895460081c1661060d816157f8565b6157f8565b61061b336158c1565b80519067ffffffffffffffff8211610a425781906106438261063e606954614252565b6145d9565b602090601f83116001146109bb578a926109b0575b50508160011b915f199060031b1c1916176069555b80519067ffffffffffffffff821161099c576106938261068e606a54614252565b614569565b602090601f831160011461090b579180600194926001600160a01b039796948b92610900575b50505f19600383901b1c191690841b17606a555b606b549174ffffffffffffffffffffffffffffffffffffffff0092839260ff7fffffffffffffffffffffff00000000000000000000000000000000000000000094859260081b16931691161717606b55606e54918360ff19841617606e55610733615869565b8460081b1691161717606e55167fd2be862d755bca7e0d39772b2cab3a5578da9c285f69199f4c063c2294a7f36c8480a261076c615869565b826001600160a01b03606f5416806108bc575b50506001600160a01b0316828181606f54826001600160a01b0319821617606f551617803b156108b857818091602460405180948193631ffad50160e11b83523060048401525af180156108ad57610895575b50807f7f3a888862559648ec01d97deb7b5012bff86dc91e654a1de397170db40e35b691a2606b5461080261469c565b61080a6146d5565b7f6a1105ac8148a3c319adbc369f9072573e8a11d3a3d195e067e7c40767ec54d1610854610836614770565b9360405191829160ff6001600160a01b038960081c169816836147f3565b0390a461085e5780f35b61ff001981541681557f7f26b83ff96e1f2b6a682f133852f6798a09c465da95921460cefb3847402498602060405160018152a180f35b61089e90614070565b6108a957825f6107d2565b8280fd5b6040513d84823e3d90fd5b5080fd5b803b156108b85781809160246040518094819363040db3b560e41b83523060048401525af180156108ad571561077f576108f590614070565b6108a957825f61077f565b015190505f806106b9565b90606a89527f116fea137db6e131133e7f2bab296045d8f41cc5607279db17b218cab0929a5191895b601f19851681106109845750926001949285926001600160a01b0398979583601f1981161061096c575b505050811b01606a556106cd565b01515f1960f88460031b161c191690555f808061095e565b91926020600181928685015181550194019201610934565b602488634e487b7160e01b81526041600452fd5b015190505f80610658565b925060698a527f7fb4302e8e91f9110a6554c2c0a24601252c2a42c2220ca988efcfe399914308908a935b601f1984168510610a27576001945083601f19811610610a0f575b505050811b0160695561066d565b01515f1960f88460031b161c191690555f8080610a01565b818101518355602094850194600190930192909101906109e6565b602489634e487b7160e01b81526041600452fd5b606460405162461bcd60e51b815260206004820152601960248201527f646563696d616c73206265747765656e203020616e64203138000000000000006044820152fd5b506105ee604051602081019060208252610abb816105aa604082018861404b565b5190206040516020810190602082525f604082015260408152610add816140b4565b519020141590506105e5565b506001600160a01b0386161515610584565b606460405162461bcd60e51b815260206004820152601360248201527f616c726561647920696e697469616c697a6564000000000000000000000000006044820152fd5b61ffff19166101011788555f610561565b608460405162461bcd60e51b815260206004820152602e60248201527f496e697469616c697a61626c653a20636f6e747261637420697320616c72656160448201527f647920696e697469616c697a65640000000000000000000000000000000000006064820152fd5b50303b15801561054c5750600160ff82161461054c565b50600160ff821610610545565b8480fd5b8380fd5b503461049b57602036600319011261049b57610c00614148565b610c08615869565b6001600160a01b03908282606f541680610ca4575b505016818181606f54826001600160a01b0319821617606f551617803b156108b857818091602460405180948193631ffad50160e11b83523060048401525af180156108ad57610c90575b50807f7f3a888862559648ec01d97deb7b5012bff86dc91e654a1de397170db40e35b691a280f35b610c9990614070565b6108b857815f610c68565b803b156108b85781809160246040518094819363040db3b560e41b83523060048401525af180156108ad5715610c1d57610cdd90614070565b6108a957825f610c1d565b503461049b57602036600319011261049b57610d02614148565b610d0a615869565b6001600160a01b03811615610d2557610d22906158c1565b80f35b608460405162461bcd60e51b815260206004820152602660248201527f4f776e61626c653a206e6577206f776e657220697320746865207a65726f206160448201527f64647265737300000000000000000000000000000000000000000000000000006064820152fd5b503461049b57608036600319011261049b5767ffffffffffffffff90600435602435604435848111610be257610dc99036906004016140f2565b90606435858111610bde57610de2903690600401614360565b91606e5491610df460ff8416156148d6565b6040519463b9209e3360e01b865233600487015260209586816024816001600160a01b03809960081c165afa9081156111715790610e39918991611144575b50615908565b610e468551511515615953565b610e5d60ff610e558751614206565b54161561599e565b85850192610e6d845183146159e9565b82885260a88752610e8560ff60408a20541615615a9f565b5115158061113b575b610e9790615aea565b610ea18551614206565b60019060ff1990828282541617905583895260a888528160408a209182541617905560a086015190815161104f575b5050610ee391929394959697503361560c565b6080840190868080808551818115611046575b3390f115611032578660608601948551908115908115610fcf575b838a7fe0ce13a3cd9de6edf09dc77870eada01d20b3a4e26a34307bef0f1d604b821de60408b8b610fc28f8d8d8151908751918252898201527f806bc37112176c187cccea4249aea74827b609b5e40d595301442638bfd57367873392a283518551915187519182526020820192909252604081019190915233907f26ba5d65fe51cc055ccbe2fcbd0c98cfc9677e185b1095d5a53f349a680a4a5f9080606081015b0390a2519151925191615a7f565b948351928352820152a280f35b83928392839260a29a99989a541690839061103d575bf115611032577fe0ce13a3cd9de6edf09dc77870eada01d20b3a4e26a34307bef0f1d604b821de94604094610fc292611021865160a354614810565b60a355928992978295969750610f11565b6040513d88823e3d90fd5b506108fc610fe5565b506108fc610ef6565b611059875161422c565b9180519a8b11611127576110778b6110718554614252565b85614649565b8890601f8c116001146110c3579a809281928c9d610ee398999a9b9c9d946110b8575b50501b915f199060031b1c19161790555b879695949392915f610ed0565b015192505f8061109a565b838b52898b20909b91601f1983168c5b81811061111257509c83610ee398999a9b9c9d9e106110fa575b505050811b0190556110ab565b01515f1960f88460031b161c191690555f80806110ed565b8e830151845592850192918c01918c016110d3565b60248a634e487b7160e01b81526041600452fd5b50811515610e8e565b6111649150883d8a1161116a575b61115c81836140d0565b8101906149fd565b5f610e33565b503d611152565b6040513d8a823e3d90fd5b503461049b57602036600319011261049b5760ff60406020926001600160a01b036111a5614148565b168152606c84522054166040519015158152f35b503461049b57604036600319011261049b576111d3614148565b60406111dd61415e565b926001600160a01b03809316815260676020522091165f52602052602060405f2054604051908152f35b503461049b578060031936011261049b57611220615869565b808080806001600160a01b0360335416479082821561124f575bf1156112435780f35b604051903d90823e3d90fd5b506108fc61123a565b503461049b57602036600319011261049b576001600160a01b0361127a614148565b611282615869565b606e5474ffffffffffffffffffffffffffffffffffffffff001974ffffffffffffffffffffffffffffffffffffffff008360081b16911617606e55167fd2be862d755bca7e0d39772b2cab3a5578da9c285f69199f4c063c2294a7f36c8280a280f35b503461049b57604036600319011261049b576112ff614148565b6024359081151590818303610be2576001600160a01b03611345916113266103d0336144ae565b1692838552606c602052604085209060ff801983541691151516179055565b33917f7fa523c84ab8d7fc5b72f08b9e46dbbf10c39e119a075b3e317002d14bc9f4368480a480f35b503461049b5761137d36614419565b611388929192615869565b604051926020906113df828601866113a186858461483e565b03966113b5601f19988981018352826140d0565b519020604051848101908582525f6040820152604081526113d5816140b4565b519020141561451e565b67ffffffffffffffff83116114fc576113fd8361063e606954614252565b8391601f841160011461147b5750838394955092611470575b50508160011b915f199060031b1c1916176069555b606b5461143661469c565b61143e6146d5565b7f6a1105ac8148a3c319adbc369f9072573e8a11d3a3d195e067e7c40767ec54d161146a610836614770565b0390a480f35b013590505f80611416565b9194831694606985527f7fb4302e8e91f9110a6554c2c0a24601252c2a42c2220ca988efcfe3999143089285905b8782106114e45750508360019596106114cb575b505050811b0160695561142b565b01355f19600384901b60f8161c191690555f80806114bd565b806001849682949587013581550195019201906114a9565b602484634e487b7160e01b81526041600452fd5b503461049b578060031936011261049b57602060a354604051908152f35b503461049b5761153d36614419565b611548929192615869565b60405192602090611561828601866113a186858461483e565b67ffffffffffffffff83116114fc5761157f8361068e606a54614252565b8391601f84116001146115c257508383949550926115b7575b50508160011b915f199060031b1c191617606a55606b5461143661469c565b013590505f80611598565b9194831694606a85527f116fea137db6e131133e7f2bab296045d8f41cc5607279db17b218cab0929a519285905b87821061162b575050836001959610611612575b505050811b01606a5561142b565b01355f19600384901b60f8161c191690555f8080611604565b806001849682949587013581550195019201906115f0565b503461049b57602036600319011261049b5760ff6040602092600435815260a784522054166040519015158152f35b503461049b57602036600319011261049b576004359067ffffffffffffffff821161049b5760206116a63660048501614360565b805151151590816116d1575b816116c3575b506040519015158152f35b6080915001511515826116b8565b82810151151591506116b2565b503461049b576116ed3661432b565b9092606e546116ff60ff8216156148d6565b6040519463b9209e3360e01b86526001600160a01b0395869283831660048301528160248160209a8b9460081c165afa90811561189b579061174891859161187e575b50615b35565b6040828616938481526067885220335f52865260405f2054928484106118145784926117a2949261179d926117806117aa9998615b80565b9261178b8488614831565b8481956117b3575b5050505086615401565b614831565b9033906156e3565b60405160018152f35b6117e3817f26ba5d65fe51cc055ccbe2fcbd0c98cfc9677e185b1095d5a53f349a680a4a5f9460a254168d615401565b6117ef8160a354614810565b60a355604080518a81526020810192909252810191909152606090a25f808381611793565b6084876040519062461bcd60e51b82526004820152602860248201527f45524332303a207472616e7366657220616d6f756e742065786365656473206160448201527f6c6c6f77616e63650000000000000000000000000000000000000000000000006064820152fd5b6118959150883d8a1161116a5761115c81836140d0565b5f611742565b6040513d86823e3d90fd5b503461049b578060031936011261049b576118bf615869565b60ff19606e5416606e5580f35b506020806003193601126108b857600435606e54916118ee60ff8416156148d6565b60405163b9209e3360e01b815233600482015281816024816001600160a01b03809860081c165afa8015611a985761192c918691611a815750615908565b3415611a3d5781845260a7815261194a60ff60408620541615615a34565b61195334615b80565b8461195e8234614831565b9482159081156119be575b50508390525060a7815260408420805460ff1916600117905561198c833361555a565b6040519283528201527f1a771fe656018364a9369da21954bb3081cb08b0196c27e43ca59c7cae87273760403392a280f35b82848193829360a25416908390611a34575bf11561189b576119e28160a354614810565b60a3557f26ba5d65fe51cc055ccbe2fcbd0c98cfc9677e185b1095d5a53f349a680a4a5f60405180611a2887339534846040919493926060820195825260208201520152565b0390a25f848180611969565b506108fc6119d0565b6064906040519062461bcd60e51b82526004820152601060248201527f4d757374206465706f73697420455448000000000000000000000000000000006044820152fd5b6111649150833d851161116a5761115c81836140d0565b6040513d87823e3d90fd5b503461049b57600319610100368201126108b857611abf614148565b611ac761415e565b67ffffffffffffffff604435818111611c9657611ae89036906004016140f2565b90606435908111611c9657611b019036906004016140f2565b90611b0a614409565b93611b13614174565b9560c435956001600160a01b0394858816809803611c925760e43598868a16809a03611c92578a97303b15611c8e57611ba87ff91b619c00000000000000000000000000000000000000000000000000000000958994611b998c9a8760ff966040519e8f9d8e9d8e521660048d01521660248b015260c060448b015260c48a019061404b565b9188830301606489015261404b565b931660848501521660a4830152038183305af180156108ad57611c7a575b50508015611c36578115611bf2576001600160a01b0319908160a254161760a25560a454161760a45580f35b606460405162461bcd60e51b815260206004820152601360248201527f496e76616c69642053616e64626f78206b6579000000000000000000000000006044820152fd5b606460405162461bcd60e51b815260206004820152601560248201527f496e76616c69642054445320636f6c6c6563746f7200000000000000000000006044820152fd5b611c8390614070565b6108a957825f611bc6565b8880fd5b5f80fd5b8580fd5b503461049b578060031936011261049b5760206001600160a01b03606b5460081c16604051908152f35b503461049b57602036600319011261049b57600435611ce1615869565b6103e88111611d245760407fcfe4e1608ea0076b765194155ac15428bcdd5280fa116bdd0d60cc9dfdb7fe309160a154908060a15582519182526020820152a180f35b606460405162461bcd60e51b815260206004820152601a60248201527f54445320726174652063616e6e6f7420657863656564203130250000000000006044820152fd5b503461049b57604036600319011261049b576020611d9f611d87614148565b611d9660ff606e5416156148d6565b6024359061508f565b6040519015158152f35b503461049b57604036600319011261049b57611df9906040611dc9614148565b913381526067602052206001600160a01b0382165f52602052611df260243560405f2054614831565b90336156e3565b602060405160018152f35b503461049b576020611d9f611e183661432b565b91611e256103d0336144ae565b615262565b503461049b57602036600319011261049b576004359067ffffffffffffffff821161049b57602060ff611e7782611e6436600488016140f2565b816040519382858094519384920161402a565b810160a681520301902054166040519015158152f35b503461049b57604036600319011261049b57611ea7614148565b90602435611eb76103d0336144ae565b6001600160a01b0392838116938484526020946066865283604086205410611fc957849581865260668152611ef96040872054606d8352604088205490614831565b90818611611f6e575b505050611f0f838361560c565b606f541691823b15611f695760405163469753b960e11b81526001600160a01b0392909216600483015260248201529082908290604490829084905af180156108ad57611f595750f35b611f6290614070565b61049b5780f35b505050fd5b611f997f9bed35cb62ad0dba04f9d5bfee4b5bc91443e77da8a65c4c84834c51bb08b0d69287614831565b838852606d8252611fae8160408a2054614831565b848952606d83526040892055604051908152a25f8080611f02565b6064866040519062461bcd60e51b82526004820152601d60248201527f63616e6e6f74206275726e206d6f7265207468616e2062616c616e63650000006044820152fd5b503461049b57602036600319011261049b57612027614148565b61202f615869565b6001600160a01b03811690612045821515614463565b61204e816144ae565b1561209d5761206e906001600160a01b03165f52606560205260405f2090565b805460ff191690557fed9c8ad8d5a0a66898ea49d2956929c93ae2e8bd50281b2ed897c5d1a6737e0b8280a280f35b608460405162461bcd60e51b815260206004820152602160248201527f526f6c65733a206163636f756e7420646f6573206e6f74206861766520726f6c60448201527f65000000000000000000000000000000000000000000000000000000000000006064820152fd5b503461049b57604036600319011261049b57612121614148565b6001600160a01b036024359116825260a96020526040822080548210156108a957906020836121569361216a9552200161428a565b60405191829160208352602083019061404b565b0390f35b503461049b578060031936011261049b576040515f606a5461218f81614252565b8084529060019081811690811561221357506001146121b9575b61216a84612156818603826140d0565b606a5f90815292507f116fea137db6e131133e7f2bab296045d8f41cc5607279db17b218cab0929a515b8284106121fb575050508101602001612156826121a9565b805460208587018101919091529093019281016121e3565b60ff191660208087019190915292151560051b8501909201925061215691508390506121a9565b503461049b57606036600319011261049b57612254614148565b61225c61415e565b906044356001600160a01b0381168103611c9257602092611d9f926122836103d0336144ae565b614c4c565b503461049b578060031936011261049b5760206001600160a01b0360335416604051908152f35b503461049b57602036600319011261049b576004359067ffffffffffffffff821161049b5761216a6121566122ec6020611e6436600488016140f2565b810160a581520301902061428a565b503461049b57606036600319011261049b57612315614148565b9067ffffffffffffffff906044358281116108b857612338903690600401614360565b606e549061234960ff8316156148d6565b6001600160a01b03809260081c16946040519563b9209e3360e01b8088523360048901526020978881602481865afa9081156126345789929161239291899161261d5750615908565b61239f8551511515615953565b6123ae60ff610e558751614206565b602460405180948193825288871660048301525afa908115611a9857906123db91869161187e5750615b35565b858201936123ed8551602435146159e9565b6123f78351614206565b956001968760ff1982541617905560a08401519182516124e2575b505050916124678261245c7fe0ce13a3cd9de6edf09dc77870eada01d20b3a4e26a34307bef0f1d604b821de956060604096019485518061247a575b505060808301519033615401565b519451915194615a7f565b93825191825286820152a2604051908152f35b6124889160a2541633615401565b612495855160a354614810565b60a35587518551608085015188519283526020830191909152604082015233907f26ba5d65fe51cc055ccbe2fcbd0c98cfc9677e185b1095d5a53f349a680a4a5f90606090a25f8061244e565b6124ec855161422c565b9280519283116126095761250a836125048654614252565b86614649565b8991601f84116001146125785793836040979461245c947fe0ce13a3cd9de6edf09dc77870eada01d20b3a4e26a34307bef0f1d604b821de9a9894612467989261256d575b50505f19600383901b1c1916908b1b1790555b939550819450612412565b015190505f8061254f565b9091899392601f1984168684528c8420935b8d8282106125f3575050937fe0ce13a3cd9de6edf09dc77870eada01d20b3a4e26a34307bef0f1d604b821de999793612467979360409a97938361245c98106125db575b505050811b019055612562565b01515f1960f88460031b161c191690555f80806125ce565b8385015186558d9790950194938401930161258a565b602482634e487b7160e01b81526041600452fd5b6111649150843d861161116a5761115c81836140d0565b6040513d89823e3d90fd5b503461049b5761264e366141bb565b9091845b81811061265d578580f35b806126936126726103aa61269994868a61492f565b61267d83878961492f565b359061268e60ff606e5416156148d6565b61508f565b50614921565b612652565b503461049b57602036600319011261049b576126b8614148565b6126c0615869565b6001600160a01b038116906126d6821515614463565b6126df816144ae565b612730576126fe906001600160a01b03165f52606560205260405f2090565b805460ff191660011790557ff68e73cec97f2d70aa641fb26e87a4383686e2efacb648f2165aeb02ac562ec58280a280f35b606460405162461bcd60e51b815260206004820152601f60248201527f526f6c65733a206163636f756e7420616c72656164792068617320726f6c65006044820152fd5b503461049b578060031936011261049b576127916103d0336144ae565b6001606e546127a360ff8216156148d6565b60ff191617606e557f62e78cea01bee320cd4e420270b5ea74000d11b0c9f74754ebdbfc544b05a2586020604051338152a180f35b503461049b57606036600319011261049b5760043560243560443567ffffffffffffffff8111610be2576128109036906004016140f2565b606e549261282160ff8516156148d6565b6040519163b9209e3360e01b835233600484015260209283816024816001600160a01b03809a60081c165afa8015612634576128639188916129fa5750615908565b81156129b65783865260a8835261288160ff60408820541615615a9f565b511515806129ad575b61289390615aea565b61289c81615b80565b856128a78284614831565b85825260a8855260408220805460ff19166001179055956128c8843361560c565b81808880156129a3575b8280929181923390f115612996578215908115612921575b50505050506040519283528201527f806bc37112176c187cccea4249aea74827b609b5e40d595301442638bfd5736760403392a280f35b82848193829360a2541690839061298d575bf115611a985784816129687f26ba5d65fe51cc055ccbe2fcbd0c98cfc9677e185b1095d5a53f349a680a4a5f9360a354614810565b60a3556040805194855260208501919091528301523391606090a25f808581806128ea565b506108fc612933565b50604051903d90823e3d90fd5b6108fc91506128d2565b5082151561288a565b6064836040519062461bcd60e51b82526004820152601d60248201527f416d6f756e74206d7573742062652067726561746572207468616e20300000006044820152fd5b6111649150853d871161116a5761115c81836140d0565b503461049b578060031936011261049b57612a2a615869565b5f6001600160a01b036033546001600160a01b03198116603355167f8be0079c531659141344cd1fd0a4f28419497f9722a3daafe3b4186f6b6457e08280a380f35b503461049b57602036600319011261049b5760406020916001600160a01b03612a93614148565b168152606683522054604051908152f35b503461049b578060031936011261049b57602047604051908152f35b503461049b57604036600319011261049b5767ffffffffffffffff906004358281116108b857612af49036906004016140f2565b6024358381116108a957612b0c9036906004016140f2565b92612b15615869565b6040518281809451612b2d816020978880960161402a565b810160a58152030190209184519182116114fc57612b4f826110718554614252565b80601f8311600114612b885750839482939492612b7d575b50508160011b915f199060031b1c191617905580f35b015190505f80612b67565b90601f198316958486528286209286905b888210612bd157505083600195969710612bb9575b505050811b01905580f35b01515f1960f88460031b161c191690555f8080612bae565b80600185968294968601518155019501930190612b99565b503461049b57604036600319011261049b57612c03614148565b606e5460243591612c1760ff8316156148d6565b6001600160a01b03809260081c16926040519363b9209e3360e01b948581523360048201526020958682602481865afa918215611171578792612c60918a9161261d5750615908565b602460405180948193825288881660048301525afa9081156110325794956117aa95612c9092612d165750615b35565b612c9981615b80565b92612ca48483614831565b848195612cb6575b5050505033615401565b612ce6817f26ba5d65fe51cc055ccbe2fcbd0c98cfc9677e185b1095d5a53f349a680a4a5f9460a2541633615401565b612cf28160a354614810565b60a3556040805194855260208501919091528301523391606090a25f808381612cac565b6118959150873d891161116a5761115c81836140d0565b503461049b57612d3c366141bb565b929091845b818110612d4c578580f35b612d5a6103aa82848661492f565b612d6582878761492f565b3590612d736103d0336144ae565b6001600160a01b0380606e5460081c1660405180809263b9209e3360e01b82528486166004830152602092839160249586915afa908115612f52578c91612f35575b5015612ef357606f80546040516372331c7360e11b81525f60048201526001600160a01b0387166024820152604481018890529193919083908290606490829089165afa908115612ee8578d91612ecb575b5015612e88575050908291612e1e858c969561555a565b541691823b15610be257604051635f8dead360e01b81526001600160a01b0392909216600483015260248201529082908290604490829084905af180156108ad57612e74575b5050612e6f90614921565b612d41565b612e7d90614070565b611c9657855f612e64565b9060176064926040519262461bcd60e51b845260048401528201527f436f6d706c69616e6365206e6f7420666f6c6c6f7765640000000000000000006044820152fd5b612ee29150833d851161116a5761115c81836140d0565b5f612e07565b6040513d8f823e3d90fd5b60196064926040519262461bcd60e51b845260048401528201527f4964656e74697479206973206e6f742076657269666965642e000000000000006044820152fd5b612f4c9150823d841161116a5761115c81836140d0565b5f612db5565b6040513d8e823e3d90fd5b503461049b578060031936011261049b5760206001600160a01b03606f5416604051908152f35b503461049b578060031936011261049b57602060ff606e54166040519015158152f35b503461049b578060031936011261049b5761216a61215661469c565b503461049b57602036600319011261049b576020612fe2600435615b80565b604051908152f35b503461049b57602036600319011261049b57613004614148565b61300c615869565b6001600160a01b038091168015613065577f08f3108d338541d6d5dd1f53b5d3c50071e2a67a80f0a4d7a389c82a33c4e28f9160409160a25491816001600160a01b031984161760a2558351921682526020820152a180f35b606460405162461bcd60e51b815260206004820152601960248201527f496e76616c696420636f6c6c6563746f722061646472657373000000000000006044820152fd5b503461049b576130b8366141bb565b929091845b8181106130c8578580f35b6130d66103aa82848661492f565b6130e182878761492f565b35906130ef6103d0336144ae565b6001600160a01b03808216808a5260666020908082528560408d205410613214579082918c9695949387528152604086205490613136606d92838352604089205490614831565b918287116131b9575b5050505061314d838361560c565b606f541691823b15610be25760405163469753b960e11b81526001600160a01b0392909216600483015260248201529082908290604490829084905af180156108ad576131a5575b50506131a090614921565b6130bd565b6131ae90614070565b611c9657855f613195565b6131e47f9bed35cb62ad0dba04f9d5bfee4b5bc91443e77da8a65c4c84834c51bb08b0d69388614831565b908489528083526131f98260408b2054614831565b90858a5283526040892055604051908152a25f80808061313f565b6064826040519062461bcd60e51b82526004820152601d60248201527f63616e6e6f74206275726e206d6f7265207468616e2062616c616e63650000006044820152fd5b503461049b57613267366141bb565b909192845b848110613277578580f35b6132856103aa82878561492f565b6001600160a01b0361329883868861492f565b35916132a66103d0336144ae565b1690818852606d906020918083528160408b205410613301579181849361043c7f9bed35cb62ad0dba04f9d5bfee4b5bc91443e77da8a65c4c84834c51bb08b0d69460408e6132fc9a9981528487522054614831565b61326c565b6084836040519062461bcd60e51b82526004820152603460248201527f416d6f756e742073686f756c64206265206c657373207468616e206f7220657160448201527f75616c20746f2066726f7a656e20746f6b656e730000000000000000000000006064820152fd5b503461049b578060031936011261049b57613384615869565b600160ff19606e541617606e5580f35b503461049b57606036600319011261049b5767ffffffffffffffff6004358181116108a9576133c790369060040161418a565b602492919235828111610bde576133e290369060040161418a565b9092604435908111611c96576133fc90369060040161418a565b919092865b81811061340c578780f35b806126936134216103aa61344894868c61492f565b61342f6103aa84888c61492f565b61343a84898b61492f565b3591611e256103d0336144ae565b613401565b503461049b57604036600319011261049b57613467614148565b6024356134766103d0336144ae565b6001600160a01b0380606e5460081c16604051809163b9209e3360e01b8252838616600483015281602460209485935afa90811561103257869161360f575b50156135cb57606f546040516372331c7360e11b81525f60048201526001600160a01b0386166024820152604481018590529082908290606490829087165afa9081156110325786916135ae575b501561356a5750908391613517828561555a565b606f5416803b156108a957604051635f8dead360e01b81526001600160a01b0394909416600485015260248401919091528290604490829084905af180156108ad57613561575080f35b610d2290614070565b6064906040519062461bcd60e51b82526004820152601760248201527f436f6d706c69616e6365206e6f7420666f6c6c6f7765640000000000000000006044820152fd5b6135c59150823d841161116a5761115c81836140d0565b5f613503565b6064906040519062461bcd60e51b82526004820152601960248201527f4964656e74697479206973206e6f742076657269666965642e000000000000006044820152fd5b6136269150823d841161116a5761115c81836140d0565b5f6134b5565b503461049b578060031936011261049b576136496103d0336144ae565b606e5460ff8116156136895760ff1916606e557f5db9ee0a495bf2e6ff9c91a7834c1ba4fdd244a5e8aa4e537bd38aeae4b073aa6020604051338152a180f35b606460405162461bcd60e51b815260206004820152601460248201527f5061757361626c653a206e6f74207061757365640000000000000000000000006044820152fd5b503461049b57602036600319011261049b576136e7614148565b6136ef615869565b74ffffffffffffffffffffffffffffffffffffffff00606b549160081b1674ffffffffffffffffffffffffffffffffffffffff001982161780606b5561373361469c565b907f6a1105ac8148a3c319adbc369f9072573e8a11d3a3d195e067e7c40767ec54d16001600160a01b036137656146d5565b9261146a613771614770565b9560ff60405194859460081c169816836147f3565b503461049b57604036600319011261049b57611df990611df26137a7614148565b913381526067602052604081206001600160a01b03841682526020526040602435912054614810565b50604036600319011261049b5767ffffffffffffffff600435602435828111610be257613801903690600401614360565b91606e549061381360ff8316156148d6565b6040519363b9209e3360e01b855233600486015260209485816024816001600160a01b03809860081c165afa801561263457613855918891613ade5750615908565b6138628151511515615953565b61387160ff610e558351614206565b84810191613881835134146159e9565b84875260a7865261389960ff60408920541615615a34565b6138a38251614206565b9060019060ff1992828482541617905560a0840151908151613a0e575b5050876060840195865190811590811561399f575b50505095610fc292604096959492827fe0ce13a3cd9de6edf09dc77870eada01d20b3a4e26a34307bef0f1d604b821de995260a78a52878b2091825416179055608082019061392582513361555a565b8151908751918252898201527f1a771fe656018364a9369da21954bb3081cb08b0196c27e43ca59c7cae872737873392a283518551915187519182526020820192909252604081019190915233907f26ba5d65fe51cc055ccbe2fcbd0c98cfc9677e185b1095d5a53f349a680a4a5f908060608101610fb4565b83928392839260a29b9a9997989b5416908390613a05575bf115612634577fe0ce13a3cd9de6edf09dc77870eada01d20b3a4e26a34307bef0f1d604b821de95604095610fc2936139f3875160a354614810565b60a355929495968a92988295506138d5565b506108fc6139b7565b613a18855161422c565b918051918211613aca578190613a32826125048654614252565b8a90601f8311600114613a6b578c92613a60575b50505f19600383901b1c191690831b1790555b5f806138c0565b015190505f80613a46565b848d528b8d208694509190601f1984168e8e5b828210613ab35750508411613a9b575b505050811b019055613a59565b01515f1960f88460031b161c191690555f8080613a8e565b83850151865589979095019493840193018e613a7e565b60248b634e487b7160e01b81526041600452fd5b6111649150873d891161116a5761115c81836140d0565b503461049b578060031936011261049b57602060ff606b5416604051908152f35b503461049b578060031936011261049b5760206001600160a01b0360a45416604051908152f35b503461049b576020611d9f613b513661432b565b91613b6160ff606e5416156148d6565b614a15565b503461049b57602036600319011261049b5760ff6040602092600435815260a884522054166040519015158152f35b503461049b57602036600319011261049b576020611d9f613bb4614148565b6144ae565b503461049b57604036600319011261049b57613bd3614148565b6001600160a01b0360243591613beb6103d0336144ae565b1690818352606d60205280604084205410613c4f5760207f9bed35cb62ad0dba04f9d5bfee4b5bc91443e77da8a65c4c84834c51bb08b0d691838552606d8252613c39816040872054614831565b848652606d83526040862055604051908152a280f35b608460405162461bcd60e51b815260206004820152603460248201527f416d6f756e742073686f756c64206265206c657373207468616e206f7220657160448201527f75616c20746f2066726f7a656e20746f6b656e730000000000000000000000006064820152fd5b503461049b578060031936011261049b5760206001600160a01b0360a25416604051908152f35b503461049b57613cef366141bb565b909291845b818110613cff578580f35b613d0d6103aa82848761492f565b90613d1981858861492f565b35801515808203611c8e57613d5e6001600160a01b03613d8995613d3f6103d0336144ae565b1692838b52606c60205260408b209060ff801983541691151516179055565b33917f7fa523c84ab8d7fc5b72f08b9e46dbbf10c39e119a075b3e317002d14bc9f4368a80a4614921565b613cf4565b503461049b578060031936011261049b576020606854604051908152f35b503461049b57602036600319011261049b5760406020916001600160a01b03613dd3614148565b168152606d83522054604051908152f35b503461049b578060031936011261049b5760206001600160a01b03606e5460081c16604051908152f35b503461049b57604036600319011261049b57613e28614148565b6001600160a01b0360243591613e406103d0336144ae565b1690818352602090606682526040842054606d8352613e63826040872054614810565b11613ea057907fa065e63c631c86f1b9f66a4a2f63f2093bf1c2168d23290259dbd969e0222a4591838552606d8252613c39816040872054614810565b6064826040519062461bcd60e51b825280600483015260248201527f416d6f756e74206578636565647320617661696c61626c652062616c616e63656044820152fd5b503461049b57604036600319011261049b57611df9613f00614148565b60243590336156e3565b503461049b57606036600319011261049b5760443567ffffffffffffffff81116108b857613f3c9036906004016140f2565b51151580613f52575b6020906040519015158152f35b506004351515613f45565b823461049b578060031936011261049b5780606954613f7b81614252565b808552916001918083169081156140005750600114613fa5575b61216a85612156818703826140d0565b9250606983527f7fb4302e8e91f9110a6554c2c0a24601252c2a42c2220ca988efcfe3999143085b828410613fe85750505081016020016121568261216a613f95565b80546020858701810191909152909301928101613fcd565b86955061216a9693506020925061215694915060ff191682840152151560051b8201019293613f95565b5f5b83811061403b5750505f910152565b818101518382015260200161402c565b906020916140648151809281855285808601910161402a565b601f01601f1916010190565b67ffffffffffffffff811161408457604052565b634e487b7160e01b5f52604160045260245ffd5b6040810190811067ffffffffffffffff82111761408457604052565b6060810190811067ffffffffffffffff82111761408457604052565b90601f8019910116810190811067ffffffffffffffff82111761408457604052565b81601f82011215611c925780359067ffffffffffffffff82116140845760405192614127601f8401601f1916602001856140d0565b82845260208383010111611c9257815f926020809301838601378301015290565b600435906001600160a01b0382168203611c9257565b602435906001600160a01b0382168203611c9257565b60a435906001600160a01b0382168203611c9257565b9181601f84011215611c925782359167ffffffffffffffff8311611c92576020808501948460051b010111611c9257565b6040600319820112611c925767ffffffffffffffff91600435838111611c9257826141e89160040161418a565b93909392602435918211611c92576142029160040161418a565b9091565b602061421f91816040519382858094519384920161402a565b810160a681520301902090565b602061424591816040519382858094519384920161402a565b810160a581520301902090565b90600182811c92168015614280575b602083101461426c57565b634e487b7160e01b5f52602260045260245ffd5b91607f1691614261565b9060405191825f82549261429d84614252565b9081845260019485811690815f1461430857506001146142c8575b50506142c6925003836140d0565b565b909391505f52602090815f20935f915b8183106142f05750506142c693508201015f806142b8565b855488840185015294850194879450918301916142d8565b9150506142c694506020925060ff191682840152151560051b8201015f806142b8565b6060906003190112611c92576001600160a01b03906004358281168103611c9257916024359081168103611c92579060443590565b91909160e081840312611c92576040519067ffffffffffffffff9060e08301828111848210176140845760405282948135838111611c9257816143a49184016140f2565b84526020820135602085015260408201356040850152606082013560608501526080820135608085015260a0820135838111611c9257816143e69184016140f2565b60a085015260c0820135928311611c925760c09261440492016140f2565b910152565b6084359060ff82168203611c9257565b906020600319830112611c925760043567ffffffffffffffff92838211611c925780602383011215611c92578160040135938411611c925760248483010111611c92576024019190565b1561446a57565b606460405162461bcd60e51b815260206004820152601f60248201527f696e76616c696420617267756d656e74202d207a65726f2061646472657373006044820152fd5b6001600160a01b031680156144cf575f52606560205260ff60405f20541690565b608460405162461bcd60e51b815260206004820152602260248201527f526f6c65733a206163636f756e7420697320746865207a65726f206164647265604482015261737360f01b6064820152fd5b1561452557565b606460405162461bcd60e51b815260206004820152601f60248201527f696e76616c696420617267756d656e74202d20656d70747920737472696e67006044820152fd5b601f8111614575575050565b5f90606a82527f116fea137db6e131133e7f2bab296045d8f41cc5607279db17b218cab0929a51906020601f850160051c830194106145cf575b601f0160051c01915b8281106145c457505050565b8181556001016145b8565b90925082906145af565b601f81116145e5575050565b5f90606982527f7fb4302e8e91f9110a6554c2c0a24601252c2a42c2220ca988efcfe399914308906020601f850160051c8301941061463f575b601f0160051c01915b82811061463457505050565b818155600101614628565b909250829061461f565b90601f811161465757505050565b5f91825260208220906020601f850160051c83019410614692575b601f0160051c01915b82811061468757505050565b81815560010161467b565b9092508290614672565b604051906146a982614098565b600582527f342e312e330000000000000000000000000000000000000000000000000000006020830152565b604051805f6069546146e681614252565b906001908181169081156147595750600114614705575b505003902090565b60695f9081529192507f7fb4302e8e91f9110a6554c2c0a24601252c2a42c2220ca988efcfe3999143085b8383106147435750505081015f806146fd565b8054868401528594506020909201918101614730565b60ff19168552505080151502820190505f806146fd565b604051805f606a5461478181614252565b90600190818116908115614759575060011461479f57505003902090565b606a5f9081529192507f116fea137db6e131133e7f2bab296045d8f41cc5607279db17b218cab0929a515b8383106147dd5750505081015f806146fd565b80548684015285945060209092019181016147ca565b60409060ff61480d9493168152816020820152019061404b565b90565b9190820180921161481d57565b634e487b7160e01b5f52601160045260245ffd5b9190820391821161481d57565b90918060409360208452816020850152848401375f828201840152601f01601f1916010190565b1561486c57565b608460405162461bcd60e51b815260206004820152602e60248201527f4167656e74526f6c653a2063616c6c657220646f6573206e6f7420686176652060448201527f746865204167656e7420726f6c650000000000000000000000000000000000006064820152fd5b156148dd57565b606460405162461bcd60e51b815260206004820152601060248201527f5061757361626c653a20706175736564000000000000000000000000000000006044820152fd5b5f19811461481d5760010190565b919081101561493f5760051b0190565b634e487b7160e01b5f52603260045260245ffd5b356001600160a01b0381168103611c925790565b1561496e57565b606460405162461bcd60e51b815260206004820152601060248201527f77616c6c65742069732066726f7a656e000000000000000000000000000000006044820152fd5b156149b957565b606460405162461bcd60e51b815260206004820152601460248201527f496e73756666696369656e742042616c616e63650000000000000000000000006044820152fd5b90816020910312611c9257518015158103611c925790565b919290926001600160a01b0392838516945f948686526020606c815260409760ff89892054161580614c39575b614a4b90614967565b8285169081895260668352614a76614a6e8b8b2054606d86528c8c205490614831565b8811156149b2565b8284606e5460081c169160248c518094819363b9209e3360e01b835260048301525afa908115614c12578991614c1c575b5080614ba5575b614af657885162461bcd60e51b815260206004820152601560248201527f5472616e73666572206e6f7420706f737369626c6500000000000000000000006044820152606490fd5b8798969752606781528588209033895252614b1e614b1785878a2054614831565b33856156e3565b614b29848385615401565b606f541691823b15614ba15784516322ebca6d60e21b81526001600160a01b0391821660048201529116602482015260448101929092529293909281908490818381606481015b03925af1918215614b97575050614b88575b50600190565b614b9190614070565b5f614b82565b51903d90823e3d90fd5b8680fd5b50606f5489516372331c7360e11b81526001600160a01b03878116600483015286166024820152604481018890529083908290606490829088165afa908115614c12578991614bf5575b50614aae565b614c0c9150833d851161116a5761115c81836140d0565b5f614bef565b8a513d8b823e3d90fd5b614c339150833d851161116a5761115c81836140d0565b5f614aa7565b5084831688528888205460ff1615614a42565b9290915f916001600160a01b03928386169384825260209460668652604094858420541561504c57821692855192878401818a1694858252898152614c9081614098565b519020998751997fd202158d000000000000000000000000000000000000000000000000000000008b5260049b8c8c015260249a60018c8201528a816044818b5afa908115615042578591615025575b50614d265760648c60158d8d8d519362461bcd60e51b85528401528201527f5265636f76657279206e6f7420706f737369626c6500000000000000000000006044820152fd5b8484989c979b9599969a939452606683528588205490606d8452868920549285606e5460081c1688517f7e42683b0000000000000000000000000000000000000000000000000000000081528c8b82015286818a81855afa90811561501b578c91614fe3575b50813b15614fdf578d8f8c8e8c9561ffff8f96606495849851998a9889977f454a03e00000000000000000000000000000000000000000000000000000000089528801528601521660448401525af18015614fd557614fbc575b5090614df99291611e256103d0336144ae565b5080614f00575b50868652606c8152600160ff8588205416151514614eb1575b50606e5460081c1692833b15610bde578491869183855196879485937fa8d29d1d0000000000000000000000000000000000000000000000000000000085528401525af1908115614ea85750614e94575b50807ff0c9129a94f30f1caaceb63e44b9811d0a3edf1d6c23757f346093af5553fed091a4600190565b614e9e8291614070565b61049b575f614e6a565b513d84823e3d90fd5b606c90614ec06103d0336144ae565b88875252828520600160ff19825416179055336001887f7fa523c84ab8d7fc5b72f08b9e46dbbf10c39e119a075b3e317002d14bc9f4368880a45f614e19565b614f0c6103d0336144ae565b8887526066825284872054606d8352614f2882878a2054614810565b11614f7c577fa065e63c631c86f1b9f66a4a2f63f2093bf1c2168d23290259dbd969e0222a45828a92838a52606d8252614f6581898c2054614810565b848b52606d8352888b20558751908152a25f614e00565b60648683868189519362461bcd60e51b85528401528201527f416d6f756e74206578636565647320617661696c61626c652062616c616e63656044820152fd5b99614fcc614df99493929b614070565b99909192614de6565b89513d8d823e3d90fd5b8b80fd5b90508681813d8311615014575b614ffa81836140d0565b81010312614fdf575161ffff81168103614fdf575f614d8c565b503d614ff0565b8a513d8e823e3d90fd5b61503c91508b3d8d1161116a5761115c81836140d0565b5f614ce0565b8a513d87823e3d90fd5b60648787519062461bcd60e51b82526004820152601460248201527f6e6f20746f6b656e7320746f207265636f7665720000000000000000000000006044820152fd5b916001600160a01b03808416935f91858352602095606c875260409660ff88862054161580615251575b6150c290614967565b338552606681526150e1614a6e89872054606d84528a88205490614831565b8083606e5460081c169260248a518095819363b9209e3360e01b835260048301525afa918215615228578592615232575b50816151ba575b5061516257855162461bcd60e51b815260206004820152601560248201527f5472616e73666572206e6f7420706f737369626c6500000000000000000000006044820152606490fd5b61517185839795969733615401565b606f541690813b156108a95783516322ebca6d60e21b81523360048201526001600160a01b03909116602482015260448101959095529293928190849081838160648101614b70565b606f5488516372331c7360e11b81523360048201526001600160a01b03861660248201526044810189905291925082908290606490829087165afa91821561522857859261520b575b50505f615119565b6152219250803d1061116a5761115c81836140d0565b5f80615203565b88513d87823e3d90fd5b8161524a9293503d841161116a5761115c81836140d0565b905f615112565b503385528785205460ff16156150b9565b919290926001600160a01b0392838116945f948686526020606681526040978589892054106153be57808852606682526152a789892054606d84528a8a205490614831565b82818811615366575b90506024915083606e5460081c168a519283809263b9209e3360e01b825287891660048301525afa91821561535c57889261533f575b505061533057865162461bcd60e51b815260206004820152601560248201527f5472616e73666572206e6f7420706f737369626c6500000000000000000000006044820152606490fd5b614b2984838599979899615401565b6153559250803d1061116a5761115c81836140d0565b5f806152e6565b89513d8a823e3d90fd5b6153917f9bed35cb62ad0dba04f9d5bfee4b5bc91443e77da8a65c4c84834c51bb08b0d69289614831565b838b52606d82526153a5818d8d2054614831565b848c52606d83528c8c20558b51908152a25f80826152b0565b6064828a519062461bcd60e51b82526004820152601660248201527f73656e6465722062616c616e636520746f6f206c6f77000000000000000000006044820152fd5b6001600160a01b038091169182156154f057169182156154865760207fddf252ad1be2c89b69c2b068fc378daa952ba7f163c4a11628f55a4df523b3ef915f84815260668352615455826040832054614831565b85825260668452604082205585815260406154738382842054614810565b91878152606685522055604051908152a3565b608460405162461bcd60e51b815260206004820152602360248201527f45524332303a207472616e7366657220746f20746865207a65726f206164647260448201527f65737300000000000000000000000000000000000000000000000000000000006064820152fd5b608460405162461bcd60e51b815260206004820152602560248201527f45524332303a207472616e736665722066726f6d20746865207a65726f20616460448201527f64726573730000000000000000000000000000000000000000000000000000006064820152fd5b6001600160a01b03169081156155c8577fddf252ad1be2c89b69c2b068fc378daa952ba7f163c4a11628f55a4df523b3ef60208261559b5f94606854614810565b606855848452606682526155b3816040862054614810565b858552606683526040852055604051908152a3565b606460405162461bcd60e51b815260206004820152601f60248201527f45524332303a206d696e7420746f20746865207a65726f2061646472657373006044820152fd5b6001600160a01b03168015615679577fddf252ad1be2c89b69c2b068fc378daa952ba7f163c4a11628f55a4df523b3ef60205f9383855260668252615655816040872054614831565b84865260668352604086205561566d81606854614831565b606855604051908152a3565b608460405162461bcd60e51b815260206004820152602160248201527f45524332303a206275726e2066726f6d20746865207a65726f2061646472657360448201527f73000000000000000000000000000000000000000000000000000000000000006064820152fd5b6001600160a01b0380911691821561578f57169182156157405760207f8c5be1e5ebec7d5bd14f71427d1e84f3dd0314c0f7b2291e5b200ac8c7c3b92591835f526067825260405f20855f5282528060405f2055604051908152a3565b608460405162461bcd60e51b815260206004820152602260248201527f45524332303a20617070726f766520746f20746865207a65726f206164647265604482015261737360f01b6064820152fd5b608460405162461bcd60e51b8152602060048201526024808201527f45524332303a20617070726f76652066726f6d20746865207a65726f2061646460448201527f72657373000000000000000000000000000000000000000000000000000000006064820152fd5b156157ff57565b608460405162461bcd60e51b815260206004820152602b60248201527f496e697469616c697a61626c653a20636f6e7472616374206973206e6f74206960448201527f6e697469616c697a696e670000000000000000000000000000000000000000006064820152fd5b6001600160a01b0360335416330361587d57565b606460405162461bcd60e51b815260206004820152602060248201527f4f776e61626c653a2063616c6c6572206973206e6f7420746865206f776e65726044820152fd5b603354906001600160a01b0380911691826001600160a01b0319821617603355167f8be0079c531659141344cd1fd0a4f28419497f9722a3daafe3b4186f6b6457e05f80a3565b1561590f57565b606460405162461bcd60e51b815260206004820152601160248201527f55736572206e6f742076657269666965640000000000000000000000000000006044820152fd5b1561595a57565b606460405162461bcd60e51b815260206004820152601660248201527f496e76616c6964207472616e73616374696f6e204944000000000000000000006044820152fd5b156159a557565b606460405162461bcd60e51b815260206004820152601d60248201527f5472616e73616374696f6e20616c72656164792070726f6365737365640000006044820152fd5b156159f057565b606460405162461bcd60e51b815260206004820152600f60248201527f416d6f756e74206d69736d6174636800000000000000000000000000000000006044820152fd5b15615a3b57565b606460405162461bcd60e51b815260206004820152601960248201527f436f6d6d69746d656e7420616c726561647920657869737473000000000000006044820152fd5b615a979060206040519282848094519384920161402a565b810103902090565b15615aa657565b606460405162461bcd60e51b815260206004820152601660248201527f4e756c6c696669657220616c72656164792075736564000000000000000000006044820152fd5b15615af157565b606460405162461bcd60e51b815260206004820152601560248201527f496e76616c6964207a6b45544865722070726f6f6600000000000000000000006044820152fd5b15615b3c57565b606460405162461bcd60e51b815260206004820152601660248201527f526563697069656e74206e6f74207665726966696564000000000000000000006044820152fd5b60a1549081810291818304149015171561481d5761271090049056fea26469706673582212204759a52fae1f52a7fc4101e164faf623b64ef528711416333e49cda8e82cf39b64736f6c63430008140033","linkReferences":{}},"methodIdentifiers":{"addAgent(address)":"84e79842","allowance(address,address)":"dd62ed3e","approve(address,uint256)":"095ea7b3","balanceOf(address)":"70a08231","batchBurn(address[],uint256[])":"4a6cc677","batchForcedTransfer(address[],address[],uint256[])":"42a47abc","batchFreezePartialTokens(address[],uint256[])":"fc7e5fa8","batchMint(address[],uint256[])":"68573107","batchSetAddressFrozen(address[],bool[])":"1a7af379","batchTransfer(address[],uint256[])":"88d695b2","batchUnfreezePartialTokens(address[],uint256[])":"4710362d","burn(address,uint256)":"9dc29fac","calculateTDS(uint256)":"4e50c9e7","commitments(bytes32)":"839df945","compliance()":"6290865d","decimals()":"313ce567","decreaseAllowance(address,uint256)":"a457c2d7","deposit(bytes32)":"b214faa5","depositWithSandboxTDS(bytes32,(string,uint256,uint256,uint256,uint256,string,bytes))":"3644c8c0","emergencyWithdraw()":"db2e21bc","forcedTransfer(address,address,uint256)":"9fc1d0e7","freezePartialTokens(address,uint256)":"125c4a33","getContractBalance()":"6f9fb98a","getFrozenTokens(address)":"158b1a57","getTDSCertificate(string)":"8d2246f4","identityRegistry()":"134e18f4","increaseAllowance(address,uint256)":"39509351","init(address,address,string,string,uint8,address)":"f91b619c","initialize(address,address,string,string,uint8,address,address,address)":"b10e84ad","isAgent(address)":"1ffbb064","isCommitmentUsed(bytes32)":"b61b395c","isFrozen(address)":"e5839836","isNullifierUsed(bytes32)":"22dc7b4c","mint(address,uint256)":"40c10f19","name()":"06fdde03","nullifierHashes(bytes32)":"17cc915c","onchainID()":"aba63705","owner()":"8da5cb5b","pause()":"8456cb59","pauseContract()":"439766ce","pauseToken()":"2c349627","paused()":"5c975abb","processedTransactions(string)":"9ea32844","recoveryAddress(address,address,address)":"9285948a","removeAgent(address)":"97a6278e","renounceOwnership()":"715018a6","sandboxPublicKey()":"2998ff09","setAddressFrozen(address,bool)":"c69c09cf","setCompliance(address)":"f8981789","setIdentityRegistry(address)":"cbf3f861","setName(string)":"c47f0027","setOnchainID(address)":"3d1ddc5b","setSymbol(string)":"b84c8246","setTDSCollector(address)":"4a9f14d1","setTDSRate(uint256)":"aa0a8171","storeTDSCertificate(string,string)":"6e310675","symbol()":"95d89b41","tdsCertificates(string)":"22a1eb24","tdsCollector()":"1f578013","tdsRate()":"fb273208","totalSupply()":"18160ddd","totalTDSCollected()":"bb6bfa65","transfer(address,uint256)":"a9059cbb","transferFrom(address,address,uint256)":"23b872dd","transferFromWithTDS(address,address,uint256)":"b5d76631","transferOwnership(address)":"f2fde38b","transferWithSandboxTDS(address,uint256,(string,uint256,uint256,uint256,uint256,string,bytes))":"8b97d790","transferWithTDS(address,uint256)":"69af4765","unfreezePartialTokens(address,uint256)":"1fe56f7d","unpause()":"3f4ba83a","unpauseContract()":"b33712c5","unpauseToken()":"50669a03","userVerificationIds(address,uint256)":"96285e41","verifySandboxTDSSignature((string,uint256,uint256,uint256,uint256,string,bytes))":"b5deaed8","verifyzkETHerProof(bytes32,bytes32,bytes)":"07f27974","version()":"54fd4d50","withdraw(uint256,bytes32,bytes)":"75135d2d","withdrawWithSandboxTDS(uint256,bytes32,bytes,(string,uint256,uint256,uint256,uint256,string,bytes))":"ed39a088"},"id":46}