{"abi":[{"type":"function","name":"addAgent","inputs":[{"name":"_agent","type":"address","internalType":"address"}],"outputs":[],"stateMutability":"nonpayable"},{"type":"function","name":"allowance","inputs":[{"name":"_owner","type":"address","internalType":"address"},{"name":"_spender","type":"address","internalType":"address"}],"outputs":[{"name":"","type":"uint256","internalType":"uint256"}],"stateMutability":"view"},{"type":"function","name":"approve","inputs":[{"name":"_spender","type":"address","internalType":"address"},{"name":"_amount","type":"uint256","internalType":"uint256"}],"outputs":[{"name":"","type":"bool","internalType":"bool"}],"stateMutability":"nonpayable"},{"type":"function","name":"balanceOf","inputs":[{"name":"_userAddress","type":"address","internalType":"address"}],"outputs":[{"name":"","type":"uint256","internalType":"uint256"}],"stateMutability":"view"},{"type":"function","name":"batchBurn","inputs":[{"name":"_userAddresses","type":"address[]","internalType":"address[]"},{"name":"_amounts","type":"uint256[]","internalType":"uint256[]"}],"outputs":[],"stateMutability":"nonpayable"},{"type":"function","name":"batchForcedTransfer","inputs":[{"name":"_fromList","type":"address[]","internalType":"address[]"},{"name":"_toList","type":"address[]","internalType":"address[]"},{"name":"_amounts","type":"uint256[]","internalType":"uint256[]"}],"outputs":[],"stateMutability":"nonpayable"},{"type":"function","name":"batchFreezePartialTokens","inputs":[{"name":"_userAddresses","type":"address[]","internalType":"address[]"},{"name":"_amounts","type":"uint256[]","internalType":"uint256[]"}],"outputs":[],"stateMutability":"nonpayable"},{"type":"function","name":"batchMint","inputs":[{"name":"_toList","type":"address[]","internalType":"address[]"},{"name":"_amounts","type":"uint256[]","internalType":"uint256[]"}],"outputs":[],"stateMutability":"nonpayable"},{"type":"function","name":"batchSetAddressFrozen","inputs":[{"name":"_userAddresses","type":"address[]","internalType":"address[]"},{"name":"_freeze","type":"bool[]","internalType":"bool[]"}],"outputs":[],"stateMutability":"nonpayable"},{"type":"function","name":"batchTransfer","inputs":[{"name":"_toList","type":"address[]","internalType":"address[]"},{"name":"_amounts","type":"uint256[]","internalType":"uint256[]"}],"outputs":[],"stateMutability":"nonpayable"},{"type":"function","name":"batchUnfreezePartialTokens","inputs":[{"name":"_userAddresses","type":"address[]","internalType":"address[]"},{"name":"_amounts","type":"uint256[]","internalType":"uint256[]"}],"outputs":[],"stateMutability":"nonpayable"},{"type":"function","name":"burn","inputs":[{"name":"_userAddress","type":"address","internalType":"address"},{"name":"_amount","type":"uint256","internalType":"uint256"}],"outputs":[],"stateMutability":"nonpayable"},{"type":"function","name":"compliance","inputs":[],"outputs":[{"name":"","type":"address","internalType":"contract IModularCompliance"}],"stateMutability":"view"},{"type":"function","name":"decimals","inputs":[],"outputs":[{"name":"","type":"uint8","internalType":"uint8"}],"stateMutability":"view"},{"type":"function","name":"decreaseAllowance","inputs":[{"name":"_spender","type":"address","internalType":"address"},{"name":"_subtractedValue","type":"uint256","internalType":"uint256"}],"outputs":[{"name":"","type":"bool","internalType":"bool"}],"stateMutability":"nonpayable"},{"type":"function","name":"forcedTransfer","inputs":[{"name":"_from","type":"address","internalType":"address"},{"name":"_to","type":"address","internalType":"address"},{"name":"_amount","type":"uint256","internalType":"uint256"}],"outputs":[{"name":"","type":"bool","internalType":"bool"}],"stateMutability":"nonpayable"},{"type":"function","name":"freezePartialTokens","inputs":[{"name":"_userAddress","type":"address","internalType":"address"},{"name":"_amount","type":"uint256","internalType":"uint256"}],"outputs":[],"stateMutability":"nonpayable"},{"type":"function","name":"getFrozenTokens","inputs":[{"name":"_userAddress","type":"address","internalType":"address"}],"outputs":[{"name":"","type":"uint256","internalType":"uint256"}],"stateMutability":"view"},{"type":"function","name":"identityRegistry","inputs":[],"outputs":[{"name":"","type":"address","internalType":"contract IIdentityRegistry"}],"stateMutability":"view"},{"type":"function","name":"increaseAllowance","inputs":[{"name":"_spender","type":"address","internalType":"address"},{"name":"_addedValue","type":"uint256","internalType":"uint256"}],"outputs":[{"name":"","type":"bool","internalType":"bool"}],"stateMutability":"nonpayable"},{"type":"function","name":"init","inputs":[{"name":"_identityRegistry","type":"address","internalType":"address"},{"name":"_compliance","type":"address","internalType":"address"},{"name":"_name","type":"string","internalType":"string"},{"name":"_symbol","type":"string","internalType":"string"},{"name":"_decimals","type":"uint8","internalType":"uint8"},{"name":"_onchainID","type":"address","internalType":"address"}],"outputs":[],"stateMutability":"nonpayable"},{"type":"function","name":"isAgent","inputs":[{"name":"_agent","type":"address","internalType":"address"}],"outputs":[{"name":"","type":"bool","internalType":"bool"}],"stateMutability":"view"},{"type":"function","name":"isFrozen","inputs":[{"name":"_userAddress","type":"address","internalType":"address"}],"outputs":[{"name":"","type":"bool","internalType":"bool"}],"stateMutability":"view"},{"type":"function","name":"mint","inputs":[{"name":"_to","type":"address","internalType":"address"},{"name":"_amount","type":"uint256","internalType":"uint256"}],"outputs":[],"stateMutability":"nonpayable"},{"type":"function","name":"name","inputs":[],"outputs":[{"name":"","type":"string","internalType":"string"}],"stateMutability":"view"},{"type":"function","name":"onchainID","inputs":[],"outputs":[{"name":"","type":"address","internalType":"address"}],"stateMutability":"view"},{"type":"function","name":"owner","inputs":[],"outputs":[{"name":"","type":"address","internalType":"address"}],"stateMutability":"view"},{"type":"function","name":"pause","inputs":[],"outputs":[],"stateMutability":"nonpayable"},{"type":"function","name":"paused","inputs":[],"outputs":[{"name":"","type":"bool","internalType":"bool"}],"stateMutability":"view"},{"type":"function","name":"recoveryAddress","inputs":[{"name":"_lostWallet","type":"address","internalType":"address"},{"name":"_newWallet","type":"address","internalType":"address"},{"name":"_investorOnchainID","type":"address","internalType":"address"}],"outputs":[{"name":"","type":"bool","internalType":"bool"}],"stateMutability":"nonpayable"},{"type":"function","name":"removeAgent","inputs":[{"name":"_agent","type":"address","internalType":"address"}],"outputs":[],"stateMutability":"nonpayable"},{"type":"function","name":"renounceOwnership","inputs":[],"outputs":[],"stateMutability":"nonpayable"},{"type":"function","name":"setAddressFrozen","inputs":[{"name":"_userAddress","type":"address","internalType":"address"},{"name":"_freeze","type":"bool","internalType":"bool"}],"outputs":[],"stateMutability":"nonpayable"},{"type":"function","name":"setCompliance","inputs":[{"name":"_compliance","type":"address","internalType":"address"}],"outputs":[],"stateMutability":"nonpayable"},{"type":"function","name":"setIdentityRegistry","inputs":[{"name":"_identityRegistry","type":"address","internalType":"address"}],"outputs":[],"stateMutability":"nonpayable"},{"type":"function","name":"setName","inputs":[{"name":"_name","type":"string","internalType":"string"}],"outputs":[],"stateMutability":"nonpayable"},{"type":"function","name":"setOnchainID","inputs":[{"name":"_onchainID","type":"address","internalType":"address"}],"outputs":[],"stateMutability":"nonpayable"},{"type":"function","name":"setSymbol","inputs":[{"name":"_symbol","type":"string","internalType":"string"}],"outputs":[],"stateMutability":"nonpayable"},{"type":"function","name":"symbol","inputs":[],"outputs":[{"name":"","type":"string","internalType":"string"}],"stateMutability":"view"},{"type":"function","name":"totalSupply","inputs":[],"outputs":[{"name":"","type":"uint256","internalType":"uint256"}],"stateMutability":"view"},{"type":"function","name":"transfer","inputs":[{"name":"_to","type":"address","internalType":"address"},{"name":"_amount","type":"uint256","internalType":"uint256"}],"outputs":[{"name":"","type":"bool","internalType":"bool"}],"stateMutability":"nonpayable"},{"type":"function","name":"transferFrom","inputs":[{"name":"_from","type":"address","internalType":"address"},{"name":"_to","type":"address","internalType":"address"},{"name":"_amount","type":"uint256","internalType":"uint256"}],"outputs":[{"name":"","type":"bool","internalType":"bool"}],"stateMutability":"nonpayable"},{"type":"function","name":"transferOwnership","inputs":[{"name":"newOwner","type":"address","internalType":"address"}],"outputs":[],"stateMutability":"nonpayable"},{"type":"function","name":"unfreezePartialTokens","inputs":[{"name":"_userAddress","type":"address","internalType":"address"},{"name":"_amount","type":"uint256","internalType":"uint256"}],"outputs":[],"stateMutability":"nonpayable"},{"type":"function","name":"unpause","inputs":[],"outputs":[],"stateMutability":"nonpayable"},{"type":"function","name":"version","inputs":[],"outputs":[{"name":"","type":"string","internalType":"string"}],"stateMutability":"pure"},{"type":"event","name":"AddressFrozen","inputs":[{"name":"_userAddress","type":"address","indexed":true,"internalType":"address"},{"name":"_isFrozen","type":"bool","indexed":true,"internalType":"bool"},{"name":"_owner","type":"address","indexed":true,"internalType":"address"}],"anonymous":false},{"type":"event","name":"AgentAdded","inputs":[{"name":"_agent","type":"address","indexed":true,"internalType":"address"}],"anonymous":false},{"type":"event","name":"AgentRemoved","inputs":[{"name":"_agent","type":"address","indexed":true,"internalType":"address"}],"anonymous":false},{"type":"event","name":"Approval","inputs":[{"name":"owner","type":"address","indexed":true,"internalType":"address"},{"name":"spender","type":"address","indexed":true,"internalType":"address"},{"name":"value","type":"uint256","indexed":false,"internalType":"uint256"}],"anonymous":false},{"type":"event","name":"ComplianceAdded","inputs":[{"name":"_compliance","type":"address","indexed":true,"internalType":"address"}],"anonymous":false},{"type":"event","name":"IdentityRegistryAdded","inputs":[{"name":"_identityRegistry","type":"address","indexed":true,"internalType":"address"}],"anonymous":false},{"type":"event","name":"Initialized","inputs":[{"name":"version","type":"uint8","indexed":false,"internalType":"uint8"}],"anonymous":false},{"type":"event","name":"OwnershipTransferred","inputs":[{"name":"previousOwner","type":"address","indexed":true,"internalType":"address"},{"name":"newOwner","type":"address","indexed":true,"internalType":"address"}],"anonymous":false},{"type":"event","name":"Paused","inputs":[{"name":"_userAddress","type":"address","indexed":false,"internalType":"address"}],"anonymous":false},{"type":"event","name":"RecoverySuccess","inputs":[{"name":"_lostWallet","type":"address","indexed":true,"internalType":"address"},{"name":"_newWallet","type":"address","indexed":true,"internalType":"address"},{"name":"_investorOnchainID","type":"address","indexed":true,"internalType":"address"}],"anonymous":false},{"type":"event","name":"TokensFrozen","inputs":[{"name":"_userAddress","type":"address","indexed":true,"internalType":"address"},{"name":"_amount","type":"uint256","indexed":false,"internalType":"uint256"}],"anonymous":false},{"type":"event","name":"TokensUnfrozen","inputs":[{"name":"_userAddress","type":"address","indexed":true,"internalType":"address"},{"name":"_amount","type":"uint256","indexed":false,"internalType":"uint256"}],"anonymous":false},{"type":"event","name":"Transfer","inputs":[{"name":"from","type":"address","indexed":true,"internalType":"address"},{"name":"to","type":"address","indexed":true,"internalType":"address"},{"name":"value","type":"uint256","indexed":false,"internalType":"uint256"}],"anonymous":false},{"type":"event","name":"Unpaused","inputs":[{"name":"_userAddress","type":"address","indexed":false,"internalType":"address"}],"anonymous":false},{"type":"event","name":"UpdatedTokenInformation","inputs":[{"name":"_newName","type":"string","indexed":true,"internalType":"string"},{"name":"_newSymbol","type":"string","indexed":true,"internalType":"string"},{"name":"_newDecimals","type":"uint8","indexed":false,"internalType":"uint8"},{"name":"_newVersion","type":"string","indexed":false,"internalType":"string"},{"name":"_newOnchainID","type":"address","indexed":true,"internalType":"address"}],"anonymous":false}],"bytecode":{"object":"0x608080604052346100205760ff19606e5416606e55613d8690816100258239f35b5f80fdfe6080806040526004361015610012575f80fd5b5f90813560e01c90816306fdde031461276357508063095ea7b31461273c578063125c4a3314612667578063134e18f41461263d578063158b1a571461260557806318160ddd146125e75780631a7af379146125355780631fe56f7d146124355780631ffbb0641461241157806323b872dd146123e8578063313ce567146123c7578063395093511461237d5780633d1ddc5b146122c45780633f4ba83a1461222357806340c10f1914611fa457806342a47abc14611eeb5780634710362d14611dd85780634a6cc67714611b8557806354fd4d5014611b695780635c975abb14611b465780636290865d14611b1f578063685731071461183457806370a08231146117fc578063715018a6146117945780638456cb591461173057806384e798421461165a57806388d695b2146115fb5780638da5cb5b146115d45780639285948a1461158657806395d89b411461149d57806397a6278e146113a35780639dc29fac146111805780639fc1d0e71461115a578063a457c2d7146110ff578063a9059cbb146110be578063aba6370514611094578063b84c824614610f7f578063c47f002714610ddd578063c69c09cf14610d54578063cbf3f86114610cc7578063dd62ed3e14610c79578063e583983614610c3c578063f2fde38b14610b95578063f898178914610a86578063f91b619c146103385763fc7e5fa814610218575f80fd5b3461033557610226366128a0565b909192845b848110610236578580f35b610249610244828785612ef3565b612f17565b6001600160a01b0361025c838688612ef3565b359161026f61026a33612a8d565b612e29565b1690818852602090606682526040892054606d908184526102948360408d2054612dd4565b116102f257918184936102d67fa065e63c631c86f1b9f66a4a2f63f2093bf1c2168d23290259dbd969e0222a459460408e6102ed9a9981528487522054612dd4565b90858d52835260408c2055604051908152a2612ee5565b61022b565b6064836040519062461bcd60e51b825280600483015260248201527f416d6f756e74206578636565647320617661696c61626c652062616c616e63656044820152fd5b80fd5b50346103355760c036600319011261033557610352612843565b61035a612859565b60443567ffffffffffffffff8111610a825761037a9036906004016129ec565b9160643567ffffffffffffffff8111610a7e5761039b9036906004016129ec565b6084359060ff82168203610a7a576001600160a01b0360a4351660a43503610a765785549460ff8660081c161595868097610a69575b8015610a52575b156109e85760ff1981166001178855866109d7575b506001600160a01b0360335416610993576001600160a01b038416151580610981575b61041990612a42565b604051602081019060208252610444816104366040820186612805565b03601f1981018352826129ca565b5190206040516020810190602082525f604082015260408152610466816129ae565b519020141580610932575b61047a90612afd565b601260ff8416116108ee5761049e60ff885460081c1661049981613c33565b613c33565b6104a733613cfc565b80519067ffffffffffffffff82116108da5781906104cf826104ca606954612b48565b612bf0565b602090601f8311600114610853578992610848575b50508160011b915f199060031b1c1916176069555b80519067ffffffffffffffff82116108345761051f8261051a606a54612b48565b612b80565b602090601f83116001146107a35791806001600160a01b039594926001948a92610798575b50505f19600383901b1c191690831b17606a555b606b5474ffffffffffffffffffffffffffffffffffffffff00917fffffffffffffffffffffff000000000000000000000000000000000000000000918260ff8560a43560081b16931691161717606b55606e54918360ff19841617606e556105be613ca4565b8460081b1691161717606e55167fd2be862d755bca7e0d39772b2cab3a5578da9c285f69199f4c063c2294a7f36c8480a26105f7613ca4565b826001600160a01b03606f541680610754575b50506001600160a01b0316828181606f548273ffffffffffffffffffffffffffffffffffffffff19821617606f551617803b1561075057818091602460405180948193631ffad50160e11b83523060048401525af180156107455761072d575b50807f7f3a888862559648ec01d97deb7b5012bff86dc91e654a1de397170db40e35b691a2606b5461069a612c60565b6106a2612c99565b7f6a1105ac8148a3c319adbc369f9072573e8a11d3a3d195e067e7c40767ec54d16106ec6106ce612d34565b9360405191829160ff6001600160a01b038960081c16981683612db7565b0390a46106f65780f35b61ff001981541681557f7f26b83ff96e1f2b6a682f133852f6798a09c465da95921460cefb3847402498602060405160018152a180f35b6107369061296a565b61074157825f61066a565b8280fd5b6040513d84823e3d90fd5b5080fd5b803b156107505781809160246040518094819363040db3b560e41b83523060048401525af18015610745571561060a5761078d9061296a565b61074157825f61060a565b015190505f80610544565b90606a88527f116fea137db6e131133e7f2bab296045d8f41cc5607279db17b218cab0929a5191885b601f198516811061081c5750926001600160a01b0395949260019492859383601f19811610610804575b505050811b01606a55610558565b01515f1960f88460031b161c191690555f80806107f6565b919260206001819286850151815501940192016107cc565b602487634e487b7160e01b81526041600452fd5b015190505f806104e4565b9250606989527f7fb4302e8e91f9110a6554c2c0a24601252c2a42c2220ca988efcfe3999143089089935b601f19841685106108bf576001945083601f198116106108a7575b505050811b016069556104f9565b01515f1960f88460031b161c191690555f8080610899565b8181015183556020948501946001909301929091019061087e565b602488634e487b7160e01b81526041600452fd5b606460405162461bcd60e51b815260206004820152601960248201527f646563696d616c73206265747765656e203020616e64203138000000000000006044820152fd5b5061047a604051602081019060208252610953816104366040820188612805565b5190206040516020810190602082525f604082015260408152610975816129ae565b51902014159050610471565b506001600160a01b0385161515610410565b606460405162461bcd60e51b815260206004820152601360248201527f616c726561647920696e697469616c697a6564000000000000000000000000006044820152fd5b61ffff19166101011787555f6103ed565b608460405162461bcd60e51b815260206004820152602e60248201527f496e697469616c697a61626c653a20636f6e747261637420697320616c72656160448201527f647920696e697469616c697a65640000000000000000000000000000000000006064820152fd5b50303b1580156103d85750600160ff8216146103d8565b50600160ff8216106103d1565b5f80fd5b8580fd5b8480fd5b8380fd5b503461033557602036600319011261033557610aa0612843565b610aa8613ca4565b6001600160a01b03908282606f541680610b51575b505016818181606f548273ffffffffffffffffffffffffffffffffffffffff19821617606f551617803b1561075057818091602460405180948193631ffad50160e11b83523060048401525af1801561074557610b3d575b50807f7f3a888862559648ec01d97deb7b5012bff86dc91e654a1de397170db40e35b691a280f35b610b469061296a565b61075057815f610b15565b803b156107505781809160246040518094819363040db3b560e41b83523060048401525af180156107455715610abd57610b8a9061296a565b61074157825f610abd565b503461033557602036600319011261033557610baf612843565b610bb7613ca4565b6001600160a01b03811615610bd257610bcf90613cfc565b80f35b608460405162461bcd60e51b815260206004820152602660248201527f4f776e61626c653a206e6577206f776e657220697320746865207a65726f206160448201527f64647265737300000000000000000000000000000000000000000000000000006064820152fd5b50346103355760203660031901126103355760ff60406020926001600160a01b03610c65612843565b168152606c84522054166040519015158152f35b503461033557604036600319011261033557610c93612843565b6040610c9d612859565b926001600160a01b03809316815260676020522091165f52602052602060405f2054604051908152f35b5034610335576020366003190112610335576001600160a01b03610ce9612843565b610cf1613ca4565b606e5474ffffffffffffffffffffffffffffffffffffffff001974ffffffffffffffffffffffffffffffffffffffff008360081b16911617606e55167fd2be862d755bca7e0d39772b2cab3a5578da9c285f69199f4c063c2294a7f36c8280a280f35b503461033557604036600319011261033557610d6e612843565b6024359081151590818303610a82576001600160a01b03610db491610d9561026a33612a8d565b1692838552606c602052604085209060ff801983541691151516179055565b33917f7fa523c84ab8d7fc5b72f08b9e46dbbf10c39e119a075b3e317002d14bc9f4368480a480f35b503461033557610dec36612920565b610df7929192613ca4565b60405192602090610e4e82860186610e10868584612e02565b0396610e24601f19988981018352826129ca565b519020604051848101908582525f604082015260408152610e44816129ae565b5190201415612afd565b67ffffffffffffffff8311610f6b57610e6c836104ca606954612b48565b8391601f8411600114610eea5750838394955092610edf575b50508160011b915f199060031b1c1916176069555b606b54610ea5612c60565b610ead612c99565b7f6a1105ac8148a3c319adbc369f9072573e8a11d3a3d195e067e7c40767ec54d1610ed96106ce612d34565b0390a480f35b013590505f80610e85565b9194831694606985527f7fb4302e8e91f9110a6554c2c0a24601252c2a42c2220ca988efcfe3999143089285905b878210610f53575050836001959610610f3a575b505050811b01606955610e9a565b01355f19600384901b60f8161c191690555f8080610f2c565b80600184968294958701358155019501920190610f18565b602484634e487b7160e01b81526041600452fd5b503461033557610f8e36612920565b610f99929192613ca4565b60405192602090610fb282860186610e10868584612e02565b67ffffffffffffffff8311610f6b57610fd08361051a606a54612b48565b8391601f84116001146110135750838394955092611008575b50508160011b915f199060031b1c191617606a55606b54610ea5612c60565b013590505f80610fe9565b9194831694606a85527f116fea137db6e131133e7f2bab296045d8f41cc5607279db17b218cab0929a519285905b87821061107c575050836001959610611063575b505050811b01606a55610e9a565b01355f19600384901b60f8161c191690555f8080611055565b80600184968294958701358155019501920190611041565b503461033557806003193601126103355760206001600160a01b03606b5460081c16604051908152f35b50346103355760403660031901126103355760206110f56110dd612843565b6110ec60ff606e541615612e9a565b60243590613653565b6040519015158152f35b50346103355760403660031901126103355761114f90604061111f612843565b913381526067602052206001600160a01b0382165f5260205261114860243560405f2054612df5565b9033613b1e565b602060405160018152f35b50346103355760206110f561116e366128eb565b9161117b61026a33612a8d565b613826565b50346103355760403660031901126103355761119a612843565b906024356111aa61026a33612a8d565b6001600160a01b0392838116938484526020606681528360408620541061135f5785855260668152856111ea6040872054606d8452604088205490612df5565b82818711611304575b5050156112b657857fddf252ad1be2c89b69c2b068fc378daa952ba7f163c4a11628f55a4df523b3ef8697928793845260668152611235876040862054612df5565b83855260668252604085205561124d87606854612df5565b606855604051878152a3606f541691823b156112b15760405163469753b960e11b81526001600160a01b0392909216600483015260248201529082908290604490829084905af18015610745576112a15750f35b6112aa9061296a565b6103355780f35b505050fd5b6084906040519062461bcd60e51b82526004820152602160248201527f45524332303a206275726e2066726f6d20746865207a65726f206164647265736044820152607360f81b6064820152fd5b61132f7f9bed35cb62ad0dba04f9d5bfee4b5bc91443e77da8a65c4c84834c51bb08b0d69288612df5565b838952606d82526113448160408b2054612df5565b848a52606d835260408a2055604051908152a2855f826111f3565b6064906040519062461bcd60e51b82526004820152601d60248201527f63616e6e6f74206275726e206d6f7265207468616e2062616c616e63650000006044820152fd5b5034610335576020366003190112610335576113bd612843565b6113c5613ca4565b6001600160a01b038116906113db821515612a42565b6113e481612a8d565b1561143357611404906001600160a01b03165f52606560205260405f2090565b805460ff191690557fed9c8ad8d5a0a66898ea49d2956929c93ae2e8bd50281b2ed897c5d1a6737e0b8280a280f35b608460405162461bcd60e51b815260206004820152602160248201527f526f6c65733a206163636f756e7420646f6573206e6f74206861766520726f6c60448201527f65000000000000000000000000000000000000000000000000000000000000006064820152fd5b50346103355780600319360112610335576040519080606a546114bf81612b48565b8085529160019180831690811561155c5750600114611501575b6114fd856114e9818703826129ca565b604051918291602083526020830190612805565b0390f35b9250606a83527f116fea137db6e131133e7f2bab296045d8f41cc5607279db17b218cab0929a515b8284106115445750505081016020016114e9826114fd6114d9565b80546020858701810191909152909301928101611529565b8695506114fd969350602092506114e994915060ff191682840152151560051b82010192936114d9565b5034610335576060366003190112610335576115a0612843565b6115a8612859565b906044356001600160a01b0381168103610a76576020926110f5926115cf61026a33612a8d565b613210565b503461033557806003193601126103355760206001600160a01b0360335416604051908152f35b50346103355761160a366128a0565b9091845b818110611619578580f35b8061164f61162e61024461165594868a612ef3565b611639838789612ef3565b359061164a60ff606e541615612e9a565b613653565b50612ee5565b61160e565b503461033557602036600319011261033557611674612843565b61167c613ca4565b6001600160a01b03811690611692821515612a42565b61169b81612a8d565b6116ec576116ba906001600160a01b03165f52606560205260405f2090565b805460ff191660011790557ff68e73cec97f2d70aa641fb26e87a4383686e2efacb648f2165aeb02ac562ec58280a280f35b606460405162461bcd60e51b815260206004820152601f60248201527f526f6c65733a206163636f756e7420616c72656164792068617320726f6c65006044820152fd5b503461033557806003193601126103355761174d61026a33612a8d565b6001606e5461175f60ff821615612e9a565b60ff191617606e557f62e78cea01bee320cd4e420270b5ea74000d11b0c9f74754ebdbfc544b05a2586020604051338152a180f35b50346103355780600319360112610335576117ad613ca4565b5f6001600160a01b0360335473ffffffffffffffffffffffffffffffffffffffff198116603355167f8be0079c531659141344cd1fd0a4f28419497f9722a3daafe3b4186f6b6457e08280a380f35b50346103355760203660031901126103355760406020916001600160a01b03611823612843565b168152606683522054604051908152f35b503461033557611843366128a0565b90939291835b818110611854578480f35b611862610244828487612ef3565b61186d828589612ef3565b359061187b61026a33612a8d565b6001600160a01b0380606e5460081c166040519063b9209e3360e01b8252818084861692836004830152602092839160249687915afa908115611b14578c91611af7575b5015611ab457606f80546040516372331c7360e11b81525f60048201526001600160a01b038816602482015260448101899052919491908390829060649082908a165afa908115611aa9578d91611a7c575b5015611a395782156119f657507fddf252ad1be2c89b69c2b068fc378daa952ba7f163c4a11628f55a4df523b3ef8b91606861194e898254612dd4565b90558383526066808252611966896040862054612dd4565b9085855282526040842055604051888152a3541690813b156119f257604051635f8dead360e01b81526001600160a01b03919091166004820152602481019290925286908290604490829084905af180156119e7579086916119d3575b50506119ce90612ee5565b611849565b6119dc9061296a565b610a7e57845f6119c3565b6040513d88823e3d90fd5b8780fd5b90601f6064926040519262461bcd60e51b845260048401528201527f45524332303a206d696e7420746f20746865207a65726f2061646472657373006044820152fd5b9060176064926040519262461bcd60e51b845260048401528201527f436f6d706c69616e6365206e6f7420666f6c6c6f7765640000000000000000006044820152fd5b611a9c9150833d8511611aa2575b611a9481836129ca565b810190612fc1565b5f611911565b503d611a8a565b6040513d8f823e3d90fd5b6064906019846040519262461bcd60e51b845260048401528201527f4964656e74697479206973206e6f742076657269666965642e000000000000006044820152fd5b611b0e9150823d8411611aa257611a9481836129ca565b5f6118bf565b6040513d8e823e3d90fd5b503461033557806003193601126103355760206001600160a01b03606f5416604051908152f35b5034610335578060031936011261033557602060ff606e54166040519015158152f35b50346103355780600319360112610335576114fd6114e9612c60565b503461033557611b94366128a0565b90939291835b818110611ba5578480f35b611bb3610244828487612ef3565b611bbe828589612ef3565b3590611bcc61026a33612a8d565b6001600160a01b0380821680895260666020908082528560408c205410611d9457828b528082528260408c2054838d611c0f606d93848452604083205490612df5565b92838b11611d3a575b5050505015611cec5782917fddf252ad1be2c89b69c2b068fc378daa952ba7f163c4a11628f55a4df523b3ef918c948552808252611c5a886040872054612df5565b90848652825260408520556068611c72888254612df5565b9055604051878152a3606f541690813b156119f25760405163469753b960e11b81526001600160a01b03919091166004820152602481019290925286908290604490829084905af180156119e757908691611cd8575b5050611cd390612ee5565b611b9a565b611ce19061296a565b610a7e57845f611cc8565b6084826040519062461bcd60e51b82526004820152602160248201527f45524332303a206275726e2066726f6d20746865207a65726f206164647265736044820152607360f81b6064820152fd5b6040611d677f9bed35cb62ad0dba04f9d5bfee4b5bc91443e77da8a65c4c84834c51bb08b0d6958d612df5565b92868152828552611d7b8483832054612df5565b9287825285522055604051908152a2825f838d82611c18565b6064826040519062461bcd60e51b82526004820152601d60248201527f63616e6e6f74206275726e206d6f7265207468616e2062616c616e63650000006044820152fd5b503461033557611de7366128a0565b909192845b848110611df7578580f35b611e05610244828785612ef3565b6001600160a01b03611e18838688612ef3565b3591611e2661026a33612a8d565b1690818852606d906020918083528160408b205410611e8157918184936102d67f9bed35cb62ad0dba04f9d5bfee4b5bc91443e77da8a65c4c84834c51bb08b0d69460408e611e7c9a9981528487522054612df5565b611dec565b6084836040519062461bcd60e51b82526004820152603460248201527f416d6f756e742073686f756c64206265206c657373207468616e206f7220657160448201527f75616c20746f2066726f7a656e20746f6b656e730000000000000000000000006064820152fd5b50346103355760603660031901126103355767ffffffffffffffff60043581811161074157611f1e90369060040161286f565b602492919235828111610a7e57611f3990369060040161286f565b9092604435908111610a7a57611f5390369060040161286f565b919092865b818110611f63578780f35b8061164f611f78610244611f9f94868c612ef3565b611f8661024484888c612ef3565b611f9184898b612ef3565b359161117b61026a33612a8d565b611f58565b503461033557604036600319011261033557611fbe612843565b9060243591611fcf61026a33612a8d565b6001600160a01b039283606e5460081c16936040519463b9209e3360e01b865285828516918260048301528160246020998a935afa9081156119e7578691612206575b50156121c257606f546040516372331c7360e11b81525f60048201526001600160a01b0386166024820152604481018590529087908290606490829087165afa9081156119e75786916121a5575b501561216157801561211d57847fddf252ad1be2c89b69c2b068fc378daa952ba7f163c4a11628f55a4df523b3ef819761209f86606899989954612dd4565b606855838352606681526120b7866040852054612dd4565b848452606682526040842055604051868152a3606f5416803b1561074157604051635f8dead360e01b81526001600160a01b0394909416600485015260248401919091528290604490829084905af1801561074557612114575080f35b610bcf9061296a565b6064866040519062461bcd60e51b82526004820152601f60248201527f45524332303a206d696e7420746f20746865207a65726f2061646472657373006044820152fd5b6064866040519062461bcd60e51b82526004820152601760248201527f436f6d706c69616e6365206e6f7420666f6c6c6f7765640000000000000000006044820152fd5b6121bc9150873d8911611aa257611a9481836129ca565b5f612060565b6064866040519062461bcd60e51b82526004820152601960248201527f4964656e74697479206973206e6f742076657269666965642e000000000000006044820152fd5b61221d9150873d8911611aa257611a9481836129ca565b5f612012565b503461033557806003193601126103355761224061026a33612a8d565b606e5460ff8116156122805760ff1916606e557f5db9ee0a495bf2e6ff9c91a7834c1ba4fdd244a5e8aa4e537bd38aeae4b073aa6020604051338152a180f35b606460405162461bcd60e51b815260206004820152601460248201527f5061757361626c653a206e6f74207061757365640000000000000000000000006044820152fd5b5034610335576020366003190112610335576122de612843565b6122e6613ca4565b74ffffffffffffffffffffffffffffffffffffffff00606b549160081b1674ffffffffffffffffffffffffffffffffffffffff001982161780606b5561232a612c60565b907f6a1105ac8148a3c319adbc369f9072573e8a11d3a3d195e067e7c40767ec54d16001600160a01b0361235c612c99565b92610ed9612368612d34565b9560ff60405194859460081c16981683612db7565b50346103355760403660031901126103355761114f9061114861239e612843565b913381526067602052604081206001600160a01b03841682526020526040602435912054612dd4565b5034610335578060031936011261033557602060ff606b5416604051908152f35b50346103355760206110f56123fc366128eb565b9161240c60ff606e541615612e9a565b612fd9565b50346103355760203660031901126103355760206110f5612430612843565b612a8d565b50346103355760403660031901126103355761244f612843565b6001600160a01b036024359161246761026a33612a8d565b1690818352606d602052806040842054106124cb5760207f9bed35cb62ad0dba04f9d5bfee4b5bc91443e77da8a65c4c84834c51bb08b0d691838552606d82526124b5816040872054612df5565b848652606d83526040862055604051908152a280f35b608460405162461bcd60e51b815260206004820152603460248201527f416d6f756e742073686f756c64206265206c657373207468616e206f7220657160448201527f75616c20746f2066726f7a656e20746f6b656e730000000000000000000000006064820152fd5b503461033557612544366128a0565b909291845b818110612554578580f35b612562610244828487612ef3565b9061256e818588612ef3565b358015158082036125e3576125b36001600160a01b036125de9561259461026a33612a8d565b1692838b52606c60205260408b209060ff801983541691151516179055565b33917f7fa523c84ab8d7fc5b72f08b9e46dbbf10c39e119a075b3e317002d14bc9f4368a80a4612ee5565b612549565b8880fd5b50346103355780600319360112610335576020606854604051908152f35b50346103355760203660031901126103355760406020916001600160a01b0361262c612843565b168152606d83522054604051908152f35b503461033557806003193601126103355760206001600160a01b03606e5460081c16604051908152f35b503461033557604036600319011261033557612681612843565b6001600160a01b036024359161269961026a33612a8d565b1690818352602090606682526040842054606d83526126bc826040872054612dd4565b116126f957907fa065e63c631c86f1b9f66a4a2f63f2093bf1c2168d23290259dbd969e0222a4591838552606d82526124b5816040872054612dd4565b6064826040519062461bcd60e51b825280600483015260248201527f416d6f756e74206578636565647320617661696c61626c652062616c616e63656044820152fd5b50346103355760403660031901126103355761114f612759612843565b6024359033613b1e565b82346103355780600319360112610335578060695461278181612b48565b8085529160019180831690811561155c57506001146127aa576114fd856114e9818703826129ca565b9250606983527f7fb4302e8e91f9110a6554c2c0a24601252c2a42c2220ca988efcfe3999143085b8284106127ed5750505081016020016114e9826114fd6114d9565b805460208587018101919091529093019281016127d2565b91908251928382525f5b84811061282f575050825f602080949584010152601f8019910116010190565b60208183018101518483018201520161280f565b600435906001600160a01b0382168203610a7657565b602435906001600160a01b0382168203610a7657565b9181601f84011215610a765782359167ffffffffffffffff8311610a76576020808501948460051b010111610a7657565b6040600319820112610a765767ffffffffffffffff91600435838111610a7657826128cd9160040161286f565b93909392602435918211610a76576128e79160040161286f565b9091565b6060906003190112610a76576001600160a01b03906004358281168103610a7657916024359081168103610a76579060443590565b906020600319830112610a765760043567ffffffffffffffff92838211610a765780602383011215610a76578160040135938411610a765760248483010111610a76576024019190565b67ffffffffffffffff811161297e57604052565b634e487b7160e01b5f52604160045260245ffd5b6040810190811067ffffffffffffffff82111761297e57604052565b6060810190811067ffffffffffffffff82111761297e57604052565b90601f8019910116810190811067ffffffffffffffff82111761297e57604052565b81601f82011215610a765780359067ffffffffffffffff821161297e5760405192612a21601f8401601f1916602001856129ca565b82845260208383010111610a7657815f926020809301838601378301015290565b15612a4957565b606460405162461bcd60e51b815260206004820152601f60248201527f696e76616c696420617267756d656e74202d207a65726f2061646472657373006044820152fd5b6001600160a01b03168015612aae575f52606560205260ff60405f20541690565b608460405162461bcd60e51b815260206004820152602260248201527f526f6c65733a206163636f756e7420697320746865207a65726f206164647265604482015261737360f01b6064820152fd5b15612b0457565b606460405162461bcd60e51b815260206004820152601f60248201527f696e76616c696420617267756d656e74202d20656d70747920737472696e67006044820152fd5b90600182811c92168015612b76575b6020831014612b6257565b634e487b7160e01b5f52602260045260245ffd5b91607f1691612b57565b601f8111612b8c575050565b5f90606a82527f116fea137db6e131133e7f2bab296045d8f41cc5607279db17b218cab0929a51906020601f850160051c83019410612be6575b601f0160051c01915b828110612bdb57505050565b818155600101612bcf565b9092508290612bc6565b601f8111612bfc575050565b5f90606982527f7fb4302e8e91f9110a6554c2c0a24601252c2a42c2220ca988efcfe399914308906020601f850160051c83019410612c56575b601f0160051c01915b828110612c4b57505050565b818155600101612c3f565b9092508290612c36565b60405190612c6d82612992565b600582527f342e312e330000000000000000000000000000000000000000000000000000006020830152565b604051805f606954612caa81612b48565b90600190818116908115612d1d5750600114612cc9575b505003902090565b60695f9081529192507f7fb4302e8e91f9110a6554c2c0a24601252c2a42c2220ca988efcfe3999143085b838310612d075750505081015f80612cc1565b8054868401528594506020909201918101612cf4565b60ff19168552505080151502820190505f80612cc1565b604051805f606a54612d4581612b48565b90600190818116908115612d1d5750600114612d6357505003902090565b606a5f9081529192507f116fea137db6e131133e7f2bab296045d8f41cc5607279db17b218cab0929a515b838310612da15750505081015f80612cc1565b8054868401528594506020909201918101612d8e565b60409060ff612dd194931681528160208201520190612805565b90565b91908201809211612de157565b634e487b7160e01b5f52601160045260245ffd5b91908203918211612de157565b90918060409360208452816020850152848401375f828201840152601f01601f1916010190565b15612e3057565b608460405162461bcd60e51b815260206004820152602e60248201527f4167656e74526f6c653a2063616c6c657220646f6573206e6f7420686176652060448201527f746865204167656e7420726f6c650000000000000000000000000000000000006064820152fd5b15612ea157565b606460405162461bcd60e51b815260206004820152601060248201527f5061757361626c653a20706175736564000000000000000000000000000000006044820152fd5b5f198114612de15760010190565b9190811015612f035760051b0190565b634e487b7160e01b5f52603260045260245ffd5b356001600160a01b0381168103610a765790565b15612f3257565b606460405162461bcd60e51b815260206004820152601060248201527f77616c6c65742069732066726f7a656e000000000000000000000000000000006044820152fd5b15612f7d57565b606460405162461bcd60e51b815260206004820152601460248201527f496e73756666696369656e742042616c616e63650000000000000000000000006044820152fd5b90816020910312610a7657518015158103610a765790565b919290926001600160a01b0392838516945f948686526020606c815260409760ff898920541615806131fd575b61300f90612f2b565b828516908189526066835261303a6130328b8b2054606d86528c8c205490612df5565b881115612f76565b8284606e5460081c169160248c518094819363b9209e3360e01b835260048301525afa9081156131d65789916131e0575b5080613169575b6130ba57885162461bcd60e51b815260206004820152601560248201527f5472616e73666572206e6f7420706f737369626c6500000000000000000000006044820152606490fd5b87989697526067815285882090338952526130e26130db85878a2054612df5565b3385613b1e565b6130ed8483856139c5565b606f541691823b156131655784516322ebca6d60e21b81526001600160a01b0391821660048201529116602482015260448101929092529293909281908490818381606481015b03925af191821561315b57505061314c575b50600190565b6131559061296a565b5f613146565b51903d90823e3d90fd5b8680fd5b50606f5489516372331c7360e11b81526001600160a01b03878116600483015286166024820152604481018890529083908290606490829088165afa9081156131d65789916131b9575b50613072565b6131d09150833d8511611aa257611a9481836129ca565b5f6131b3565b8a513d8b823e3d90fd5b6131f79150833d8511611aa257611a9481836129ca565b5f61306b565b5084831688528888205460ff1615613006565b9290915f916001600160a01b03928386169384825260209460668652604094858420541561361057821692855192878401818a169485825289815261325481612992565b519020998751997fd202158d000000000000000000000000000000000000000000000000000000008b5260049b8c8c015260249a60018c8201528a816044818b5afa9081156136065785916135e9575b506132ea5760648c60158d8d8d519362461bcd60e51b85528401528201527f5265636f76657279206e6f7420706f737369626c6500000000000000000000006044820152fd5b8484989c979b9599969a939452606683528588205490606d8452868920549285606e5460081c1688517f7e42683b0000000000000000000000000000000000000000000000000000000081528c8b82015286818a81855afa9081156135df578c916135a7575b50813b156135a3578d8f8c8e8c9561ffff8f96606495849851998a9889977f454a03e00000000000000000000000000000000000000000000000000000000089528801528601521660448401525af1801561359957613580575b50906133bd929161117b61026a33612a8d565b50806134c4575b50868652606c8152600160ff8588205416151514613475575b50606e5460081c1692833b15610a7e578491869183855196879485937fa8d29d1d0000000000000000000000000000000000000000000000000000000085528401525af190811561346c5750613458575b50807ff0c9129a94f30f1caaceb63e44b9811d0a3edf1d6c23757f346093af5553fed091a4600190565b613462829161296a565b610335575f61342e565b513d84823e3d90fd5b606c9061348461026a33612a8d565b88875252828520600160ff19825416179055336001887f7fa523c84ab8d7fc5b72f08b9e46dbbf10c39e119a075b3e317002d14bc9f4368880a45f6133dd565b6134d061026a33612a8d565b8887526066825284872054606d83526134ec82878a2054612dd4565b11613540577fa065e63c631c86f1b9f66a4a2f63f2093bf1c2168d23290259dbd969e0222a45828a92838a52606d825261352981898c2054612dd4565b848b52606d8352888b20558751908152a25f6133c4565b60648683868189519362461bcd60e51b85528401528201527f416d6f756e74206578636565647320617661696c61626c652062616c616e63656044820152fd5b996135906133bd9493929b61296a565b999091926133aa565b89513d8d823e3d90fd5b8b80fd5b90508681813d83116135d8575b6135be81836129ca565b810103126135a3575161ffff811681036135a3575f613350565b503d6135b4565b8a513d8e823e3d90fd5b61360091508b3d8d11611aa257611a9481836129ca565b5f6132a4565b8a513d87823e3d90fd5b60648787519062461bcd60e51b82526004820152601460248201527f6e6f20746f6b656e7320746f207265636f7665720000000000000000000000006044820152fd5b916001600160a01b03808416935f91858352602095606c875260409660ff88862054161580613815575b61368690612f2b565b338552606681526136a561303289872054606d84528a88205490612df5565b8083606e5460081c169260248a518095819363b9209e3360e01b835260048301525afa9182156137ec5785926137f6575b508161377e575b5061372657855162461bcd60e51b815260206004820152601560248201527f5472616e73666572206e6f7420706f737369626c6500000000000000000000006044820152606490fd5b613735858397959697336139c5565b606f541690813b156107415783516322ebca6d60e21b81523360048201526001600160a01b03909116602482015260448101959095529293928190849081838160648101613134565b606f5488516372331c7360e11b81523360048201526001600160a01b03861660248201526044810189905291925082908290606490829087165afa9182156137ec5785926137cf575b50505f6136dd565b6137e59250803d10611aa257611a9481836129ca565b5f806137c7565b88513d87823e3d90fd5b8161380e9293503d8411611aa257611a9481836129ca565b905f6136d6565b503385528785205460ff161561367d565b919290926001600160a01b0392838116945f94868652602060668152604097858989205410613982578088526066825261386b89892054606d84528a8a205490612df5565b8281881161392a575b90506024915083606e5460081c168a519283809263b9209e3360e01b825287891660048301525afa918215613920578892613903575b50506138f457865162461bcd60e51b815260206004820152601560248201527f5472616e73666572206e6f7420706f737369626c6500000000000000000000006044820152606490fd5b6130ed848385999798996139c5565b6139199250803d10611aa257611a9481836129ca565b5f806138aa565b89513d8a823e3d90fd5b6139557f9bed35cb62ad0dba04f9d5bfee4b5bc91443e77da8a65c4c84834c51bb08b0d69289612df5565b838b52606d8252613969818d8d2054612df5565b848c52606d83528c8c20558b51908152a25f8082613874565b6064828a519062461bcd60e51b82526004820152601660248201527f73656e6465722062616c616e636520746f6f206c6f77000000000000000000006044820152fd5b6001600160a01b03809116918215613ab45716918215613a4a5760207fddf252ad1be2c89b69c2b068fc378daa952ba7f163c4a11628f55a4df523b3ef915f84815260668352613a19826040832054612df5565b8582526066845260408220558581526040613a378382842054612dd4565b91878152606685522055604051908152a3565b608460405162461bcd60e51b815260206004820152602360248201527f45524332303a207472616e7366657220746f20746865207a65726f206164647260448201527f65737300000000000000000000000000000000000000000000000000000000006064820152fd5b608460405162461bcd60e51b815260206004820152602560248201527f45524332303a207472616e736665722066726f6d20746865207a65726f20616460448201527f64726573730000000000000000000000000000000000000000000000000000006064820152fd5b6001600160a01b03809116918215613bca5716918215613b7b5760207f8c5be1e5ebec7d5bd14f71427d1e84f3dd0314c0f7b2291e5b200ac8c7c3b92591835f526067825260405f20855f5282528060405f2055604051908152a3565b608460405162461bcd60e51b815260206004820152602260248201527f45524332303a20617070726f766520746f20746865207a65726f206164647265604482015261737360f01b6064820152fd5b608460405162461bcd60e51b8152602060048201526024808201527f45524332303a20617070726f76652066726f6d20746865207a65726f2061646460448201527f72657373000000000000000000000000000000000000000000000000000000006064820152fd5b15613c3a57565b608460405162461bcd60e51b815260206004820152602b60248201527f496e697469616c697a61626c653a20636f6e7472616374206973206e6f74206960448201527f6e697469616c697a696e670000000000000000000000000000000000000000006064820152fd5b6001600160a01b03603354163303613cb857565b606460405162461bcd60e51b815260206004820152602060248201527f4f776e61626c653a2063616c6c6572206973206e6f7420746865206f776e65726044820152fd5b603354906001600160a01b03809116918273ffffffffffffffffffffffffffffffffffffffff19821617603355167f8be0079c531659141344cd1fd0a4f28419497f9722a3daafe3b4186f6b6457e05f80a356fea2646970667358221220d2e0513697cf69aa69ef036c6db6f1d8568c4a5faceea8d6bf2dd7f79c538b6464736f6c63430008140033","linkReferences":{}},"methodIdentifiers":{"addAgent(address)":"84e79842","allowance(address,address)":"dd62ed3e","approve(address,uint256)":"095ea7b3","balanceOf(address)":"70a08231","batchBurn(address[],uint256[])":"4a6cc677","batchForcedTransfer(address[],address[],uint256[])":"42a47abc","batchFreezePartialTokens(address[],uint256[])":"fc7e5fa8","batchMint(address[],uint256[])":"68573107","batchSetAddressFrozen(address[],bool[])":"1a7af379","batchTransfer(address[],uint256[])":"88d695b2","batchUnfreezePartialTokens(address[],uint256[])":"4710362d","burn(address,uint256)":"9dc29fac","compliance()":"6290865d","decimals()":"313ce567","decreaseAllowance(address,uint256)":"a457c2d7","forcedTransfer(address,address,uint256)":"9fc1d0e7","freezePartialTokens(address,uint256)":"125c4a33","getFrozenTokens(address)":"158b1a57","identityRegistry()":"134e18f4","increaseAllowance(address,uint256)":"39509351","init(address,address,string,string,uint8,address)":"f91b619c","isAgent(address)":"1ffbb064","isFrozen(address)":"e5839836","mint(address,uint256)":"40c10f19","name()":"06fdde03","onchainID()":"aba63705","owner()":"8da5cb5b","pause()":"8456cb59","paused()":"5c975abb","recoveryAddress(address,address,address)":"9285948a","removeAgent(address)":"97a6278e","renounceOwnership()":"715018a6","setAddressFrozen(address,bool)":"c69c09cf","setCompliance(address)":"f8981789","setIdentityRegistry(address)":"cbf3f861","setName(string)":"c47f0027","setOnchainID(address)":"3d1ddc5b","setSymbol(string)":"b84c8246","symbol()":"95d89b41","totalSupply()":"18160ddd","transfer(address,uint256)":"a9059cbb","transferFrom(address,address,uint256)":"23b872dd","transferOwnership(address)":"f2fde38b","unfreezePartialTokens(address,uint256)":"1fe56f7d","unpause()":"3f4ba83a","version()":"54fd4d50"},"id":8}