{"abi":[{"type":"constructor","inputs":[{"name":"_managementKey","type":"address","internalType":"address"},{"name":"_sandboxPublicKey","type":"address","internalType":"address"}],"stateMutability":"nonpayable"},{"type":"function","name":"AADHAAR_VERIFIED","inputs":[],"outputs":[{"name":"","type":"uint256","internalType":"uint256"}],"stateMutability":"view"},{"type":"function","name":"FACE_MATCHED","inputs":[],"outputs":[{"name":"","type":"uint256","internalType":"uint256"}],"stateMutability":"view"},{"type":"function","name":"PAN_VERIFIED","inputs":[],"outputs":[{"name":"","type":"uint256","internalType":"uint256"}],"stateMutability":"view"},{"type":"function","name":"ZKETHER_ELIGIBLE","inputs":[],"outputs":[{"name":"","type":"uint256","internalType":"uint256"}],"stateMutability":"view"},{"type":"function","name":"addClaim","inputs":[{"name":"_topic","type":"uint256","internalType":"uint256"},{"name":"_scheme","type":"uint256","internalType":"uint256"},{"name":"_issuer","type":"address","internalType":"address"},{"name":"_signature","type":"bytes","internalType":"bytes"},{"name":"_data","type":"bytes","internalType":"bytes"},{"name":"_uri","type":"string","internalType":"string"}],"outputs":[{"name":"claimRequestId","type":"bytes32","internalType":"bytes32"}],"stateMutability":"nonpayable"},{"type":"function","name":"addKey","inputs":[{"name":"_key","type":"bytes32","internalType":"bytes32"},{"name":"_purpose","type":"uint256","internalType":"uint256"},{"name":"_type","type":"uint256","internalType":"uint256"}],"outputs":[{"name":"success","type":"bool","internalType":"bool"}],"stateMutability":"nonpayable"},{"type":"function","name":"approve","inputs":[{"name":"_id","type":"uint256","internalType":"uint256"},{"name":"_approve","type":"bool","internalType":"bool"}],"outputs":[{"name":"success","type":"bool","internalType":"bool"}],"stateMutability":"nonpayable"},{"type":"function","name":"createIdentity","inputs":[{"name":"_user","type":"address","internalType":"address"},{"name":"_managementKey","type":"address","internalType":"address"}],"outputs":[{"name":"","type":"address","internalType":"address"}],"stateMutability":"nonpayable"},{"type":"function","name":"execute","inputs":[{"name":"_to","type":"address","internalType":"address"},{"name":"_value","type":"uint256","internalType":"uint256"},{"name":"_data","type":"bytes","internalType":"bytes"}],"outputs":[{"name":"executionId","type":"uint256","internalType":"uint256"}],"stateMutability":"payable"},{"type":"function","name":"getClaim","inputs":[{"name":"_claimId","type":"bytes32","internalType":"bytes32"}],"outputs":[{"name":"topic","type":"uint256","internalType":"uint256"},{"name":"scheme","type":"uint256","internalType":"uint256"},{"name":"issuer","type":"address","internalType":"address"},{"name":"signature","type":"bytes","internalType":"bytes"},{"name":"data","type":"bytes","internalType":"bytes"},{"name":"uri","type":"string","internalType":"string"}],"stateMutability":"view"},{"type":"function","name":"getClaimIdsByTopic","inputs":[{"name":"_topic","type":"uint256","internalType":"uint256"}],"outputs":[{"name":"claimIds","type":"bytes32[]","internalType":"bytes32[]"}],"stateMutability":"view"},{"type":"function","name":"getKey","inputs":[{"name":"_key","type":"bytes32","internalType":"bytes32"}],"outputs":[{"name":"purposes","type":"uint256[]","internalType":"uint256[]"},{"name":"keyType","type":"uint256","internalType":"uint256"},{"name":"key","type":"bytes32","internalType":"bytes32"}],"stateMutability":"view"},{"type":"function","name":"getKeyPurposes","inputs":[{"name":"_key","type":"bytes32","internalType":"bytes32"}],"outputs":[{"name":"_purposes","type":"uint256[]","internalType":"uint256[]"}],"stateMutability":"view"},{"type":"function","name":"getKeysByPurpose","inputs":[{"name":"_purpose","type":"uint256","internalType":"uint256"}],"outputs":[{"name":"keys","type":"bytes32[]","internalType":"bytes32[]"}],"stateMutability":"view"},{"type":"function","name":"getRecoveredAddress","inputs":[{"name":"sig","type":"bytes","internalType":"bytes"},{"name":"dataHash","type":"bytes32","internalType":"bytes32"}],"outputs":[{"name":"addr","type":"address","internalType":"address"}],"stateMutability":"pure"},{"type":"function","name":"getUserClaim","inputs":[{"name":"user","type":"address","internalType":"address"},{"name":"topic","type":"uint256","internalType":"uint256"}],"outputs":[{"name":"","type":"bytes","internalType":"bytes"}],"stateMutability":"view"},{"type":"function","name":"hasUserClaim","inputs":[{"name":"","type":"address","internalType":"address"},{"name":"","type":"uint256","internalType":"uint256"}],"outputs":[{"name":"","type":"bool","internalType":"bool"}],"stateMutability":"view"},{"type":"function","name":"hasValidClaim","inputs":[{"name":"userIdentity","type":"address","internalType":"address"},{"name":"topic","type":"uint256","internalType":"uint256"}],"outputs":[{"name":"","type":"bool","internalType":"bool"}],"stateMutability":"view"},{"type":"function","name":"identityToUser","inputs":[{"name":"","type":"address","internalType":"address"}],"outputs":[{"name":"","type":"address","internalType":"address"}],"stateMutability":"view"},{"type":"function","name":"initialize","inputs":[{"name":"initialManagementKey","type":"address","internalType":"address"}],"outputs":[],"stateMutability":"nonpayable"},{"type":"function","name":"isClaimRevoked","inputs":[{"name":"_sig","type":"bytes","internalType":"bytes"}],"outputs":[{"name":"","type":"bool","internalType":"bool"}],"stateMutability":"view"},{"type":"function","name":"isClaimValid","inputs":[{"name":"_identity","type":"address","internalType":"contract IIdentity"},{"name":"claimTopic","type":"uint256","internalType":"uint256"},{"name":"sig","type":"bytes","internalType":"bytes"},{"name":"data","type":"bytes","internalType":"bytes"}],"outputs":[{"name":"claimValid","type":"bool","internalType":"bool"}],"stateMutability":"view"},{"type":"function","name":"issueAadhaarClaim","inputs":[{"name":"userIdentity","type":"address","internalType":"address"},{"name":"verificationId","type":"string","internalType":"string"},{"name":"sandboxResponse","type":"bytes","internalType":"bytes"}],"outputs":[],"stateMutability":"nonpayable"},{"type":"function","name":"issueFaceMatchClaim","inputs":[{"name":"userIdentity","type":"address","internalType":"address"},{"name":"verificationId","type":"string","internalType":"string"},{"name":"sandboxResponse","type":"bytes","internalType":"bytes"}],"outputs":[],"stateMutability":"nonpayable"},{"type":"function","name":"issuePANClaim","inputs":[{"name":"userIdentity","type":"address","internalType":"address"},{"name":"verificationId","type":"string","internalType":"string"},{"name":"sandboxResponse","type":"bytes","internalType":"bytes"}],"outputs":[],"stateMutability":"nonpayable"},{"type":"function","name":"issuezkETHerEligibilityClaim","inputs":[{"name":"userIdentity","type":"address","internalType":"address"},{"name":"verificationId","type":"string","internalType":"string"},{"name":"sandboxResponse","type":"bytes","internalType":"bytes"}],"outputs":[],"stateMutability":"nonpayable"},{"type":"function","name":"keyHasPurpose","inputs":[{"name":"_key","type":"bytes32","internalType":"bytes32"},{"name":"_purpose","type":"uint256","internalType":"uint256"}],"outputs":[{"name":"result","type":"bool","internalType":"bool"}],"stateMutability":"view"},{"type":"function","name":"removeClaim","inputs":[{"name":"_claimId","type":"bytes32","internalType":"bytes32"}],"outputs":[{"name":"success","type":"bool","internalType":"bool"}],"stateMutability":"nonpayable"},{"type":"function","name":"removeKey","inputs":[{"name":"_key","type":"bytes32","internalType":"bytes32"},{"name":"_purpose","type":"uint256","internalType":"uint256"}],"outputs":[{"name":"success","type":"bool","internalType":"bool"}],"stateMutability":"nonpayable"},{"type":"function","name":"revokeClaim","inputs":[{"name":"_claimId","type":"bytes32","internalType":"bytes32"},{"name":"_identity","type":"address","internalType":"address"}],"outputs":[{"name":"","type":"bool","internalType":"bool"}],"stateMutability":"nonpayable"},{"type":"function","name":"revokeClaimBySignature","inputs":[{"name":"signature","type":"bytes","internalType":"bytes"}],"outputs":[],"stateMutability":"nonpayable"},{"type":"function","name":"revokedClaims","inputs":[{"name":"","type":"bytes","internalType":"bytes"}],"outputs":[{"name":"","type":"bool","internalType":"bool"}],"stateMutability":"view"},{"type":"function","name":"sandboxPublicKey","inputs":[],"outputs":[{"name":"","type":"address","internalType":"address"}],"stateMutability":"view"},{"type":"function","name":"updateSandboxPublicKey","inputs":[{"name":"_newPublicKey","type":"address","internalType":"address"}],"outputs":[],"stateMutability":"nonpayable"},{"type":"function","name":"userClaims","inputs":[{"name":"","type":"address","internalType":"address"},{"name":"","type":"uint256","internalType":"uint256"}],"outputs":[{"name":"","type":"bytes","internalType":"bytes"}],"stateMutability":"view"},{"type":"function","name":"userHasClaim","inputs":[{"name":"user","type":"address","internalType":"address"},{"name":"topic","type":"uint256","internalType":"uint256"}],"outputs":[{"name":"","type":"bool","internalType":"bool"}],"stateMutability":"view"},{"type":"function","name":"userToIdentity","inputs":[{"name":"","type":"address","internalType":"address"}],"outputs":[{"name":"","type":"address","internalType":"address"}],"stateMutability":"view"},{"type":"function","name":"validateSandboxResponse","inputs":[{"name":"apiResponse","type":"bytes","internalType":"bytes"}],"outputs":[{"name":"","type":"bool","internalType":"bool"}],"stateMutability":"pure"},{"type":"function","name":"version","inputs":[],"outputs":[{"name":"","type":"string","internalType":"string"}],"stateMutability":"pure"},{"type":"event","name":"Approved","inputs":[{"name":"executionId","type":"uint256","indexed":true,"internalType":"uint256"},{"name":"approved","type":"bool","indexed":false,"internalType":"bool"}],"anonymous":false},{"type":"event","name":"ClaimAdded","inputs":[{"name":"claimId","type":"bytes32","indexed":true,"internalType":"bytes32"},{"name":"topic","type":"uint256","indexed":true,"internalType":"uint256"},{"name":"scheme","type":"uint256","indexed":false,"internalType":"uint256"},{"name":"issuer","type":"address","indexed":true,"internalType":"address"},{"name":"signature","type":"bytes","indexed":false,"internalType":"bytes"},{"name":"data","type":"bytes","indexed":false,"internalType":"bytes"},{"name":"uri","type":"string","indexed":false,"internalType":"string"}],"anonymous":false},{"type":"event","name":"ClaimChanged","inputs":[{"name":"claimId","type":"bytes32","indexed":true,"internalType":"bytes32"},{"name":"topic","type":"uint256","indexed":true,"internalType":"uint256"},{"name":"scheme","type":"uint256","indexed":false,"internalType":"uint256"},{"name":"issuer","type":"address","indexed":true,"internalType":"address"},{"name":"signature","type":"bytes","indexed":false,"internalType":"bytes"},{"name":"data","type":"bytes","indexed":false,"internalType":"bytes"},{"name":"uri","type":"string","indexed":false,"internalType":"string"}],"anonymous":false},{"type":"event","name":"ClaimIssuedFromSandbox","inputs":[{"name":"identity","type":"address","indexed":true,"internalType":"address"},{"name":"topic","type":"uint256","indexed":true,"internalType":"uint256"},{"name":"verificationId","type":"string","indexed":false,"internalType":"string"}],"anonymous":false},{"type":"event","name":"ClaimRemoved","inputs":[{"name":"claimId","type":"bytes32","indexed":true,"internalType":"bytes32"},{"name":"topic","type":"uint256","indexed":true,"internalType":"uint256"},{"name":"scheme","type":"uint256","indexed":false,"internalType":"uint256"},{"name":"issuer","type":"address","indexed":true,"internalType":"address"},{"name":"signature","type":"bytes","indexed":false,"internalType":"bytes"},{"name":"data","type":"bytes","indexed":false,"internalType":"bytes"},{"name":"uri","type":"string","indexed":false,"internalType":"string"}],"anonymous":false},{"type":"event","name":"ClaimRevoked","inputs":[{"name":"signature","type":"bytes","indexed":true,"internalType":"bytes"}],"anonymous":false},{"type":"event","name":"Executed","inputs":[{"name":"executionId","type":"uint256","indexed":true,"internalType":"uint256"},{"name":"to","type":"address","indexed":true,"internalType":"address"},{"name":"value","type":"uint256","indexed":true,"internalType":"uint256"},{"name":"data","type":"bytes","indexed":false,"internalType":"bytes"}],"anonymous":false},{"type":"event","name":"ExecutionFailed","inputs":[{"name":"executionId","type":"uint256","indexed":true,"internalType":"uint256"},{"name":"to","type":"address","indexed":true,"internalType":"address"},{"name":"value","type":"uint256","indexed":true,"internalType":"uint256"},{"name":"data","type":"bytes","indexed":false,"internalType":"bytes"}],"anonymous":false},{"type":"event","name":"ExecutionRequested","inputs":[{"name":"executionId","type":"uint256","indexed":true,"internalType":"uint256"},{"name":"to","type":"address","indexed":true,"internalType":"address"},{"name":"value","type":"uint256","indexed":true,"internalType":"uint256"},{"name":"data","type":"bytes","indexed":false,"internalType":"bytes"}],"anonymous":false},{"type":"event","name":"IdentityCreated","inputs":[{"name":"user","type":"address","indexed":true,"internalType":"address"},{"name":"identity","type":"address","indexed":true,"internalType":"address"}],"anonymous":false},{"type":"event","name":"KeyAdded","inputs":[{"name":"key","type":"bytes32","indexed":true,"internalType":"bytes32"},{"name":"purpose","type":"uint256","indexed":true,"internalType":"uint256"},{"name":"keyType","type":"uint256","indexed":true,"internalType":"uint256"}],"anonymous":false},{"type":"event","name":"KeyRemoved","inputs":[{"name":"key","type":"bytes32","indexed":true,"internalType":"bytes32"},{"name":"purpose","type":"uint256","indexed":true,"internalType":"uint256"},{"name":"keyType","type":"uint256","indexed":true,"internalType":"uint256"}],"anonymous":false},{"type":"event","name":"SandboxPublicKeyUpdated","inputs":[{"name":"oldKey","type":"address","indexed":false,"internalType":"address"},{"name":"newKey","type":"address","indexed":false,"internalType":"address"}],"anonymous":false}],"bytecode":{"object":"0x608034620002475762003e87906001600160401b03601f38849003908101601f191683019082821184831017620001ef5780849160409687948552833981010312620002475762000050826200024b565b916200006060208092016200024b565b6006546001600160a01b03949193918516919061ffff191682156200020357610101176006558551928084019283528084528684019284841083851117620001ef5783885284519020925f9284845260606001968785528660028c882001550190828210908211176200019b578852848152838352848252878320908154868355808710620001c5575b509083528183209085845b818110620001af5750505050828252838088842001558382526002815286822090815491680100000000000000008310156200019b57858301808255831015620001875783528220018290558291907f480000bb1edad8ca1470381cc334b1917fbd51c6531f3a623ea8e0ec7e38a6e99080a41660018060a01b0319603954161760395551613c269081620002618239f35b634e487b7160e01b84526032600452602484fd5b634e487b7160e01b84526041600452602484fd5b8460ff84511693019281850155018690620000f5565b828552868085872092830192015b828110620001e3575050620000ea565b868155018790620001d3565b634e487b7160e01b5f52604160045260245ffd5b865162461bcd60e51b815260048101859052601f60248201527f696e76616c696420617267756d656e74202d207a65726f2061646472657373006044820152606490fd5b5f80fd5b51906001600160a01b0382168203620002475756fe60806040526004361015610011575f80fd5b5f3560e01c80630d0bdedb1461027a5780631106201814610275578063118ce5e21461027057806312aaac701461026b5780631d381240146102665780632646b264146102615780632998ff091461025c5780632c52e7ab1461025757806343752c79146101ee5780634ded3e14146102525780634e1103591461024d5780634eee424a1461024857806353d413c51461024357806354fd4d501461023e57806365c31a7d146101f357806373c3370814610239578063747442d3146102345780637597a1091461022f5780638005701e1461022a57806380e9e9e1146102255780639010f726146102205780639f7f9edd1461021b578063b1a34e0d14610216578063b61d27f614610211578063c0969a6e1461020c578063c3b129e314610207578063c4d66de814610202578063c9100bcb146101fd578063ca309209146101f8578063ca9748ea146101f3578063ce617616146101ee578063d10e73ab146101e9578063d202158d146101e4578063d2345249146101df578063eb0ea581146101da578063ebcd13dd146101d5578063f6c025eb146101d0578063fb307b34146101cb5763fc80f7ae146101c6575f80fd5b612024565b611fe6565b611f07565b611eeb565b611e0c565b611de6565b611d9f565b611c3b565b6109ca565b611053565b611b3a565b611a9d565b6118a7565b611857565b6117f0565b61163a565b6115a8565b61149c565b611437565b6113c6565b61127f565b611241565b611201565b6110c0565b610ff6565b610cf0565b610a4f565b610a33565b610a17565b61099f565b610979565b610957565b610717565b6106be565b61053e565b6103b8565b610294565b6001600160a01b0381160361029057565b5f80fd5b34610290576020366003190112610290576004356102b18161027f565b303314801561038a575b6102c4906120b1565b6001600160a01b038082168015610346576103417f79d0b6d6d6d7020b410373777f19842d5bb4bb4d74621415e7d9ee541ff005f6936039549273ffffffffffffffffffffffffffffffffffffffff1984161760395560405193849316839060209093929360408301946001600160a01b03809216845216910152565b0390a1005b606460405162461bcd60e51b815260206004820152601260248201527f496e76616c6964207075626c6963206b657900000000000000000000000000006044820152fd5b506102c46103b16040516020810190338252602081526103a98161042b565b519020613224565b90506102bb565b346102905760203660031901126102905760206004356103d78161027f565b6001600160a01b038091165f52603b825260405f205416604051908152f35b634e487b7160e01b5f52604160045260245ffd5b6060810190811067ffffffffffffffff82111761042657604052565b6103f6565b6040810190811067ffffffffffffffff82111761042657604052565b90601f8019910116810190811067ffffffffffffffff82111761042657604052565b604051906020820182811067ffffffffffffffff82111761042657604052565b67ffffffffffffffff811161042657601f01601f191660200190565b81601f82011215610290578035906104bc82610489565b926104ca6040519485610447565b8284526020838301011161029057815f926020809301838601378301015290565b6060600319820112610290576004356105038161027f565b9167ffffffffffffffff6024358181116102905783610524916004016104a5565b926044359182116102905761053b916004016104a5565b90565b34610290576001600160a01b0360206105e7610559366104eb565b93919490943033148015610667575b610571906120b1565b61057d855115156135ba565b61058e61058982613810565b613650565b61059f61059a82613930565b61369b565b6105b06105ab82613a14565b6136e6565b1692604051809381927fb1a34e0d000000000000000000000000000000000000000000000000000000008352803060048501613740565b03815f865af18015610662576103ec937ffd85880883710f09e5c24477fea5bb544dcd0900faca4aee44f84bd13b54a80d9261062f92610634575b5060405191829182610fe5565b0390a3005b6106549060203d811161065b575b61064c8183610447565b810190613731565b505f610622565b503d610642565b612258565b50610571610684604051858101903382528681526103a98161042b565b9050610568565b9081518082526020808093019301915f5b8281106106aa575050505090565b83518552938101939281019260010161069c565b34610290576020366003190112610290576004355f52600160205261070860405f2060018101546106f36002830154926124eb565b9160405193849360608552606085019061068b565b91602084015260408301520390f35b346102905760603660031901126102905760048035906024356044359160019061074c8260ff60065460081c16151514612040565b3033148015610906575b61075f906120b1565b83856002610775825f52600160205260405f2090565b0154036108ae5750610797610792865f52600160205260405f2090565b6124eb565b5f835b610809575b505050506107be816107b9855f52600160205260405f2090565b6125d6565b6107d4836107b9835f52600260205260405f2090565b604051927f480000bb1edad8ca1470381cc334b1917fbd51c6531f3a623ea8e0ec7e38a6e95f80a460018152602090f35b0390f35b81518110156108a9578461081d82846125a8565b51146108325761082c906124d8565b8361079a565b6108a58360405191829162461bcd60e51b8352820160809060208152602160208201527f436f6e666c6963743a204b657920616c72656164792068617320707572706f7360408201527f650000000000000000000000000000000000000000000000000000000000000060608201520190565b0390fd5b61079f565b9190508460026108c6825f52600160205260405f2090565b01556108ed6108d3610469565b8481526108e8875f52600160205260405f2090565b61255f565b6108ff855f52600160205260405f2090565b01556107be565b5061075f6109256040516020810190338252602081526103a98161042b565b9050610756565b6020600319820112610290576004359067ffffffffffffffff82116102905761053b916004016104a5565b3461029057602061096f61096a3661092c565b612370565b6040519015158152f35b34610290575f3660031901126102905760206001600160a01b0360395416604051908152f35b3461029057604036600319011261029057602061096f6004356109c18161027f565b60243590613af8565b34610290576040366003190112610290576001600160a01b036004356109ef8161027f565b165f52603d60205260405f206024355f52602052602060ff60405f2054166040519015158152f35b34610290575f3660031901126102905760206040516103eb8152f35b34610290575f3660031901126102905760206040516103ec8152f35b34610290576020366003190112610290576004356001610a7a8160ff60065460081c16151514612040565b3033148015610cc2575b610a8d90612ff9565b610a9f825f52600460205260405f2090565b54908115610c57575f81610abb845f52600560205260405f2090565b54905b610c14575b91610b238492610b1d610b05610afb610c089997610af5610aef610c039b5f52600560205260405f2090565b91612c8e565b906125c1565b90549060031b1c90565b91610b18865f52600560205260405f2090565b6125c1565b90612385565b610b3d610b38835f52600560205260405f2090565b612d16565b610b4f835f52600460205260405f2090565b015490827f3cf57863a89432c61c4a27073c6ee39e8a764bff5a05aebfbcdcdc80b2e6130a6001600160a01b03610ba16002610b93855f52600460205260405f2090565b01546001600160a01b031690565b610bf26003610bb8865f52600460205260405f2090565b016004610bcd875f52600460205260405f2090565b016005610be2885f52600460205260405f2090565b0191604051958695169985613131565b0390a45f52600460205260405f2090565b6131b5565b60405160018152602090f35b9084610c2f610afb83610b18885f52600560205260405f2090565b14610c5157610c3d906124d8565b9080821015610c4c5782610abe565b610ac3565b90610ac3565b60405162461bcd60e51b815260206004820152602b60248201527f4e6f6e4578697374696e673a205468657265206973206e6f20636c61696d207760448201527f69746820746869732049440000000000000000000000000000000000000000006064820152608490fd5b50610a8d610ce9604051602081019033825260208152610ce18161042b565b5190206132bb565b9050610a84565b3461029057604080600319360112610290576004803591602435906001610d228160ff60065460081c16151514612040565b3033148015610f7a575b610d35906120b1565b610d55856002610d4d825f52600160205260405f2090565b015414612c1d565b80610d6b610792875f52600160205260405f2090565b945f915b610ed8575b50610d93610d8b610d858751612c8e565b876125a8565b5191866125a8565b52610daf84610daa875f52600160205260405f2090565b612c9c565b610dc4610b38865f52600160205260405f2090565b805f610dd8855f52600260205260405f2090565b54925b610e9d575b610e1990610b1d610e06610afb610e4996610af5610aef8b5f52600260205260405f2090565b91610b18885f52600260205260405f2090565b610e2e610b38855f52600260205260405f2090565b610e40865f52600160205260405f2090565b01549351612c8e565b15610e7e575b51927f585a4aef50f8267a92b32412b331b20f7f8b96f2245b253b9cc50dcc621d33975f80a460018152602090f35b610e98610e93855f52600160205260405f2090565b612d53565b610e4f565b86610eb7610afb83610b18895f52600260205260405f2090565b14610ed357610ec5906124d8565b82811015610ed35781610ddb565b610de0565b9084610ee482886125a8565b5114610f7457610ef3906124d8565b9081865114610f025782610d6f565b6108a590845191829162461bcd60e51b8352820160809060208152602a60208201527f4e6f6e4578697374696e673a204b657920646f65736e2774206861766520737560408201527f636820707572706f73650000000000000000000000000000000000000000000060608201520190565b90610d74565b50610d35610f9883516020810190338252602081526103a98161042b565b9050610d2c565b5f5b838110610fb05750505f910152565b8181015183820152602001610fa1565b90602091610fd981518092818552858086019101610f9f565b601f01601f1916010190565b90602061053b928181520190610fc0565b34610290575f366003190112610290576108056040516110158161042b565b600581527f322e322e310000000000000000000000000000000000000000000000000000006020820152604051918291602083526020830190610fc0565b34610290576040366003190112610290576001600160a01b036004356110788161027f565b165f52603c60205260405f206024355f526020526108056110a56110ac60405f2060405192838092611b8d565b0382610447565b604051918291602083526020830190610fc0565b34610290576040366003190112610290576001600160a01b035f6024356110e68161027f565b6110fc600160ff60065460081c16151514612040565b30331480156111d1575b61110f906120b1565b60246040518094819363c9100bcb60e01b83526004356004840152165afa801561066257611179915f916111aa575b5061115b61115660ff61115084611dc0565b54161590565b612122565b61117461116782611dc0565b805460ff19166001179055565b612263565b604051907f7f484e37f24c0a92f81dd74afa3027b3ea31f2e9fb6b9fa29fe9865f81ac55695f80a260018152602090f35b6111c5913d8091833e6111bd8183610447565b8101906121d0565b5050925050505f61113e565b5061110f6111f06040516020810190338252602081526103a98161042b565b9050611106565b8015150361029057565b3461029057604036600319011261029057602061096f602435611223816111f7565b611239600160ff60065460081c16151514612040565b600435612b0c565b346102905760203660031901126102905760206004356112608161027f565b6001600160a01b038091165f52603a825260405f205416604051908152f35b34610290576113606103ea7ffd85880883710f09e5c24477fea5bb544dcd0900faca4aee44f84bd13b54a80d6112b4366104eb565b929194903033148015611366575b6112cb906120b1565b6112d7845115156135ba565b6113546111676113456001600160a01b038099169661132e5f9a898c52603b60205260408c2054169161130b831515613605565b828c52603c60205261132960408d206103ea5f5260205260405f2090565b6123fb565b6001600160a01b03165f52603d60205260405f2090565b6103ea5f5260205260405f2090565b60405191829182610fe5565b0390a380f35b506112cb6113856040516020810190338252602081526103a98161042b565b90506112c2565b602090816040818301928281528551809452019301915f5b8281106113b2575050505090565b8351855293810193928101926001016113a4565b3461029057602080600319360112610290576004355f526005815260405f209060405190818184549182815201935f52815f20915f905b828210611420576108058561141481890382610447565b6040519182918261138c565b8354865294850194600193840193909101906113fd565b3461029057602080600319360112610290576004355f526002815260405f209060405190818184549182815201935f52815f20915f905b828210611485576108058561141481890382610447565b83548652948501946001938401939091019061146e565b346102905760203660031901126102905760043567ffffffffffffffff808211610290573660238301121561029057816004013590811161029057602482019160248236920101116102905761155c91611502600160ff60065460081c16151514612040565b3033148015611582575b611515906120b1565b61153760ff604051848482376020818681016038815203019020541615612122565b604051828282376020818481016038815203019020600160ff1982541617905561216d565b7f7f484e37f24c0a92f81dd74afa3027b3ea31f2e9fb6b9fa29fe9865f81ac55695f80a2005b506115156115a16040516020810190338252602081526103a98161042b565b905061150c565b346102905760c0366003190112610290576044356115c58161027f565b67ffffffffffffffff606435818111610290576115e69036906004016104a5565b91608435828111610290576115ff9036906004016104a5565b60a435928311610290576108059361161e61162a9436906004016104a5565b92602435600435612d86565b6040519081529081906020820190565b6060366003190112610290576004356116528161027f565b6024359060443567ffffffffffffffff811161029057610805926001600160a01b03926116866117529336906004016104a5565b9061169d600160ff60065460081c16151514612040565b7f8afcfabcb00e47a53a8fc3e9f23ff47ee1926194bb1350dd007c50b412a6cee85f54958261170188946116d9865f52600360205260405f2090565b906001600160a01b031673ffffffffffffffffffffffffffffffffffffffff19825416179055565b856001611716865f52600360205260405f2090565b0155611736856002611730875f52600360205260405f2090565b016123fb565b6117405f546124d8565b5f551694859360405191829182610fe5565b0390a4604080513360208083019182528252601f19939261177892906103a99082610447565b1561179957505061178881612613565b506040519081529081906020820190565b30141590816117b8575b501561162a576117b281612613565b5061162a565b6040805133602082019081526117ea94509290916117e29190839081015b03908101835282610447565b519020613348565b5f6117a3565b346102905760803660031901126102905760043561180d8161027f565b67ffffffffffffffff6044358181116102905761182e9036906004016104a5565b916064359182116102905760209261184d61096f9336906004016104a5565b9160243590612283565b346102905760403660031901126102905760043567ffffffffffffffff81116102905761189661188d60209236906004016104a5565b60243590613478565b6001600160a01b0360405191168152f35b34610290576020366003190112610290576004356118c48161027f565b6001600160a01b03811615611a0757600654600191829160ff161580156119fe575b6118ef906134ec565b611901600160ff196006541617600655565b61191561010061ff00196006541617600655565b6040516119488161193a6020820194859190916001600160a01b036020820193169052565b03601f198101835282610447565b519020806002611960825f52600160205260405f2090565b015561198861196d610469565b60018152611983835f52600160205260405f2090565b613537565b6119a58261199e835f52600160205260405f2090565b0160019055565b60015f5260026020526119d8817fe90b7bceb6e7df5418fb78d8ee546e97c83a08bbccc01a0644d599ccd2a7c2e06125d6565b7f480000bb1edad8ca1470381cc334b1917fbd51c6531f3a623ea8e0ec7e38a6e95f80a4005b50303b156118e6565b606460405162461bcd60e51b815260206004820152601f60248201527f696e76616c696420617267756d656e74202d207a65726f2061646472657373006044820152fd5b9491936001600160a01b03611a8f9461053b9896611a81948952602089015216604087015260c0606087015260c0860190610fc0565b908482036080860152610fc0565b9160a0818403910152610fc0565b3461029057602036600319011261029057600435805f52600460205260405f20906108058254916004600185015494611b2d6005611af16001600160a01b03600285015416955f52600460205260405f2090565b01611b2860405193611b1185611b0a8160038501611b8d565b0386610447565b611b216040518097819301611b8d565b0385610447565b611c1e565b9260405196879687611a4b565b34610290576020611b4a3661092c565b511515604051908152f35b90600182811c92168015611b83575b6020831014611b6f57565b634e487b7160e01b5f52602260045260245ffd5b91607f1691611b64565b905f9291805491611b9d83611b55565b9182825260019384811690815f14611bfb5750600114611bbe575b50505050565b90919394505f52602092835f2092845f945b838610611be757505050500101905f808080611bb8565b805485870183015294019385908201611bd0565b9294505050602093945060ff191683830152151560051b0101905f808080611bb8565b90611c39611c329260405193848092611b8d565b0383610447565b565b3461029057604036600319011261029057600435611c588161027f565b60243590611c658261027f565b3033148015611d79575b611c78906120b1565b6108056001600160a01b0391611d3a611cff611cf385841696875f52603a602052611ca98760405f2054161561356f565b6040516bffffffffffffffffffffffff19606087811b82166020840190815293901b166034820152426048820152611ce4816068810161193a565b5190206001600160a01b031690565b6001600160a01b031690565b91611d1f836116d9836001600160a01b03165f52603a60205260405f2090565b6116d9836001600160a01b03165f52603b60205260405f2090565b6040519384938216907f45afe31e3a48a54e27da1d1f2ec6c6e272ce5838616e0d61071b223bceb5c6905f80a36001600160a01b031682526020820190565b50611c78611d986040516020810190338252602081526103a98161042b565b9050611c6f565b3461029057604036600319011261029057602061096f6024356004356133e7565b6020611dd9918160405193828580945193849201610f9f565b8101603881520301902090565b3461029057602060ff611e00611dfb3661092c565b611dc0565b54166040519015158152f35b34610290576113606103e97ffd85880883710f09e5c24477fea5bb544dcd0900faca4aee44f84bd13b54a80d611e41366104eb565b929194903033148015611ec5575b611e58906120b1565b611e64845115156135ba565b611354611167611eb66001600160a01b038099169661132e5f9a898c52603b60205260408c20541691611e98831515613605565b828c52603c60205261132960408d206103e95f5260205260405f2090565b6103e95f5260205260405f2090565b50611e58611ee46040516020810190338252602081526103a98161042b565b9050611e4f565b34610290575f3660031901126102905760206040516103e98152f35b34610290576113606103eb7ffd85880883710f09e5c24477fea5bb544dcd0900faca4aee44f84bd13b54a80d611f3c366104eb565b929194903033148015611fc0575b611f53906120b1565b611f5f845115156135ba565b611354611167611fb16001600160a01b038099169661132e5f9a898c52603b60205260408c20541691611f93831515613605565b828c52603c60205261132960408d206103eb5f5260205260405f2090565b6103eb5f5260205260405f2090565b50611f53611fdf6040516020810190338252602081526103a98161042b565b9050611f4a565b34610290576020366003190112610290576004355f52600160205261080561201060405f206124eb565b60405191829160208352602083019061068b565b34610290575f3660031901126102905760206040516103ea8152f35b1561204757565b608460405162461bcd60e51b815260206004820152603360248201527f496e746572616374696e67207769746820746865206c69627261727920636f6e60448201527f747261637420697320666f7262696464656e2e000000000000000000000000006064820152fd5b156120b857565b608460405162461bcd60e51b815260206004820152603060248201527f5065726d697373696f6e733a2053656e64657220646f6573206e6f742068617660448201527f65206d616e6167656d656e74206b6579000000000000000000000000000000006064820152fd5b1561212957565b606460405162461bcd60e51b815260206004820152601f60248201527f436f6e666c6963743a20436c61696d20616c7265616479207265766f6b6564006044820152fd5b81604051928392833781015f815203902090565b9092919261218e81610489565b9161219c6040519384610447565b829482845282820111610290576020611c39930190610f9f565b9080601f8301121561029057815161053b92602001612181565b909160c0828403126102905781519260208301519260408101516121f38161027f565b9260608201519267ffffffffffffffff9384811161029057816122179185016121b6565b93608084015181811161029057826122309186016121b6565b9360a081015191821161029057019080601f8301121561029057815161053b92602001612181565b6040513d5f823e3d90fd5b61227b90602060405192828480945193849201610f9f565b810103902090565b6123269061234a9394926122bb6040519485926001600160a01b03602085019516855260408401526060808401526080830190610fc0565b03926122cf601f1994858101835282610447565b51902060405161231d81612311602082019485603c917f19457468657265756d205369676e6564204d6573736167653a0a3332000000008252601c8201520190565b03858101835282610447565b51902084613478565b604080516001600160a01b039092166020830190815292610ce191839081016117d6565b908161235f575b5061235a575f90565b600190565b6123699150612370565b155f612351565b61237b60ff91611dc0565b541661235a575f90565b9161239e9183549060031b91821b915f19901b19161790565b9055565b8181106123ad575050565b5f81556001016123a2565b9190601f81116123c757505050565b611c39925f5260205f20906020601f840160051c830193106123f1575b601f0160051c01906123a2565b90915081906123e4565b919091825167ffffffffffffffff8111610426576124238161241d8454611b55565b846123b8565b602080601f831160011461245d5750819293945f92612452575b50508160011b915f199060031b1c1916179055565b015190505f8061243d565b90601f19831695612471855f5260205f2090565b925f905b8882106124ac57505083600195969710612494575b505050811b019055565b01515f1960f88460031b161c191690555f808061248a565b80600185968294968601518155019501930190612475565b634e487b7160e01b5f52601160045260245ffd5b5f1981146124e65760010190565b6124c4565b906040519182815491828252602092838301915f52835f20935f905b82821061251d57505050611c3992500383610447565b855484526001958601958895509381019390910190612507565b80546001825580600110612549575050565b611c39915f52600160205f2091820191016123a2565b9061256982612537565b905f52602090815f205f5b600181106125825750505050565b82518282015591830191600101612574565b634e487b7160e01b5f52603260045260245ffd5b80518210156125bc5760209160051b010190565b612594565b80548210156125bc575f5260205f2001905f90565b8054906801000000000000000082101561042657816125fd91600161239e940181556125c1565b819391549060031b91821b915f19901b19161790565b61053b9061262d600160ff60065460081c16151514612040565b612868565b1561263957565b608460405162461bcd60e51b815260206004820152602760248201527f43616e6e6f7420617070726f76652061206e6f6e2d6578697374696e6720657860448201527f65637574696f6e000000000000000000000000000000000000000000000000006064820152fd5b156126aa57565b606460405162461bcd60e51b815260206004820152601860248201527f5265717565737420616c726561647920657865637574656400000000000000006044820152fd5b156126f557565b606460405162461bcd60e51b815260206004820152601f60248201527f53656e64657220646f6573206e6f74206861766520616374696f6e206b6579006044820152fd5b1561274057565b608460405162461bcd60e51b815260206004820152602360248201527f53656e64657220646f6573206e6f742068617665206d616e6167656d656e742060448201527f6b657900000000000000000000000000000000000000000000000000000000006064820152fd5b5f929181546127b881611b55565b9260019180831690811561280d57506001146127d45750505050565b9091929394505f52602090815f20905f915b8583106127fc575050505001905f808080611bb8565b8054858401529183019181016127e6565b60ff191684525050508115159091020191505f808080611bb8565b3d15612852573d9061283982610489565b916128476040519384610447565b82523d5f602084013e565b606090565b90602061053b928181520190611b8d565b6128745f548210612632565b6128a56128a061289c6003612891855f52600360205260405f2090565b015460081c60ff1690565b1590565b6126a3565b6128c76128ba825f52600360205260405f2090565b546001600160a01b031690565b6001600160a01b03919082163003612ae057604080513360208201908152612900926128fb92906103a9908290810161193a565b612739565b807fb3932da477fe5d6c8ff2eafef050c0f3a1af18fc07121001482600f36f3715d86040518061293581906001602083019252565b0390a261295d600361294f835f52600360205260405f2090565b01805460ff19166001179055565b5f806129746128ba845f52600360205260405f2090565b6129ae600161298b865f52600360205260405f2090565b015460026129a1875f52600360205260405f2090565b01604051928380926127aa565b03925af16129ba612828565b5015612a64576129e760036129d7835f52600360205260405f2090565b01805461ff001916610100179055565b6129fc6128ba825f52600360205260405f2090565b907f1f920dbda597d7bf95035464170fa58d0a4b57f13a1c315ace6793b9f63688b86001612a32835f52600360205260405f2090565b0154936002612a49845f52600360205260405f2090565b0193612a5c604051928392169582612857565b0390a4600190565b612a796128ba825f52600360205260405f2090565b907fe10c49d9f7c71da23262367013434763cfdb2332267641728d25cd712c5c6a686001612aaf835f52600360205260405f2090565b0154936002612ac6845f52600360205260405f2090565b0193612ad9604051928392169582612857565b0390a45f90565b604080513360208201908152612b0792612b0292906117e2908290810161193a565b6126ee565b612900565b612b185f548210612632565b612b356128a061289c6003612891855f52600360205260405f2090565b6001612b4c6128ba835f52600360205260405f2090565b6001600160a01b03939084163003612bf657604080513360208201908152612b80926128fb92906103a9908290810161193a565b604051811515815283907fb3932da477fe5d6c8ff2eafef050c0f3a1af18fc07121001482600f36f3715d890602090a2151503612bce5761295d600361294f835f52600360205260405f2090565b612bf29150612be76003915f52600360205260405f2090565b01805460ff19169055565b5f90565b604080513360208201908152612c1892612b0292906117e2908290810161193a565b612b80565b15612c2457565b608460405162461bcd60e51b815260206004820152602160248201527f4e6f6e4578697374696e673a204b65792069736e27742072656769737465726560448201527f64000000000000000000000000000000000000000000000000000000000000006064820152fd5b5f198101919082116124e657565b81519167ffffffffffffffff831161042657680100000000000000008311610426578154838355808410612cfa575b506020809101915f52805f20905f5b848110612ce8575050505050565b83518382015592810192600101612cda565b612d1090835f528460205f2091820191016123a2565b5f612ccb565b8054908115612d3f575f1991820191612d2f83836125c1565b909182549160031b1b1916905555565b634e487b7160e01b5f52603160045260245ffd5b60025f91805483825580612d6d575b508260018201550155565b81845260208420612d80918101906123a2565b5f612d62565b9294909394612da1600160ff60065460081c16151514612040565b3033148015612fd3575b612db490612ff9565b6001600160a01b03831694308603612f4a575b604080516001600160a01b03861660208201908152918101879052612def816060810161193a565b51902096879486612e08875f52600460205260405f2090565b55826001612e1e885f52600460205260405f2090565b0155612e38846003611730895f52600460205260405f2090565b612e50826004611730895f52600460205260405f2090565b612e68856005611730895f52600460205260405f2090565b87612e83611cf36002610b938a5f52600460205260405f2090565b14612f175793612f1191612f057f46149b18aa084502c3f12bc75e19eda8bda8d102b82cce8474677a6d0d5f43c596612ec8896107b98c5f52600560205260405f2090565b6002612edc8a5f52600460205260405f2090565b01906001600160a01b031673ffffffffffffffffffffffffffffffffffffffff19825416179055565b60405194859485613103565b0390a490565b507f3bab293fc00db832d7619a9299914251b8747c036867ec056cbd506f60135b1393612f119160405194859485613103565b6040517fc0969a6e00000000000000000000000000000000000000000000000000000000815260208180612f848b878b306004860161307f565b03818a5afa801561066257612fa0915f91612fa5575b506130b8565b612dc7565b612fc6915060203d8111612fcc575b612fbe8183610447565b81019061306a565b5f612f9a565b503d612fb4565b50612db4612ff2604051602081019033825260208152610ce18161042b565b9050612dab565b1561300057565b608460405162461bcd60e51b815260206004820152603260248201527f5065726d697373696f6e733a2053656e64657220646f6573206e6f742068617660448201527f6520636c61696d207369676e6572206b657900000000000000000000000000006064820152fd5b90816020910312610290575161053b816111f7565b9261053b94926001600160a01b036130aa931685526020850152608060408501526080840190610fc0565b916060818403910152610fc0565b156130bf57565b606460405162461bcd60e51b815260206004820152600d60248201527f696e76616c696420636c61696d000000000000000000000000000000000000006044820152fd5b9261312361053b95936130aa938652608060208701526080860190610fc0565b908482036040860152610fc0565b9261315161053b959361315f938652608060208701526080860190611b8d565b908482036040860152611b8d565b916060818403910152611b8d565b6131778154611b55565b9081613181575050565b81601f5f9311600114613192575055565b9080839182526131b1601f60208420940160051c8401600185016123a2565b5555565b60055f918281558260018201558260028201556131d46003820161316d565b6131e06004820161316d565b016131eb8154611b55565b806131f557505050565b82601f821160011461320657505055565b90918082526131b1601f60208420940160051c8401600185016123a2565b5f5260018060205260405f2060026040519161323f8361040a565b613248816124eb565b83528381015460208401520154806040830152156132b5575f90825b613270575b5050505f90565b80519182518110156132af57836132888282956125a8565b511480156132aa575b6132a45761329e906124d8565b91613264565b50505090565b613291565b50613269565b50505f90565b5f5260018060205260405f206002604051916132d68361040a565b6132df816124eb565b83528381015460208401520154806040830152156132b5575f90825b613306575050505f90565b80519182518110156132af5761331d8185946125a8565b5183811490811561333d575b506132a457613337906124d8565b916132fb565b60039150145f613329565b5f5260018060205260405f20604051906133618261040a565b61336a816124eb565b825282810154602083015260028091015480604084015215613269575f91835b613397575b505050505f90565b80519283518110156133e1576133ae8186956125a8565b51838582149182156133d7575b50506133d0576133ca906124d8565b9261338a565b5050505090565b149050835f6133bb565b5061338f565b5f526001908160205260405f20906002604051926134048461040a565b61340d816124eb565b8452848101546020850152015480604084015215613269575f91835b61343557505050505f90565b80519283518110156133e15761344c8186956125a8565b518385821491821561346e575b50506133d057613468906124d8565b92613429565b149050835f613459565b905f60418351036134e65760208301519060606040850151940151901a601b81106134cf575b9160209360809260ff5f9560405194855216868401526040830152606082015282805260015afa15610662575f5190565b601b90929192019060ff82116124e657919061349e565b91505090565b156134f357565b606460405162461bcd60e51b815260206004820152601e60248201527f496e697469616c206b65792077617320616c72656164792073657475702e00006044820152fd5b9061354182612537565b905f52602090815f205f5b6001811061355a5750505050565b825160ff16828201559183019160010161354c565b1561357657565b606460405162461bcd60e51b815260206004820152602060248201527f4964656e7469747920616c72656164792065786973747320666f7220757365726044820152fd5b156135c157565b606460405162461bcd60e51b815260206004820152601460248201527f496e76616c69642041504920726573706f6e73650000000000000000000000006044820152fd5b1561360c57565b606460405162461bcd60e51b815260206004820152601b60248201527f55736572206e6f7420666f756e6420666f72206964656e7469747900000000006044820152fd5b1561365757565b606460405162461bcd60e51b815260206004820152601460248201527f41616468616172206e6f742076657269666965640000000000000000000000006044820152fd5b156136a257565b606460405162461bcd60e51b815260206004820152601060248201527f50414e206e6f74207665726966696564000000000000000000000000000000006044820152fd5b156136ed57565b606460405162461bcd60e51b815260206004820152601060248201527f46616365206e6f74206d617463686564000000000000000000000000000000006044820152fd5b90816020910312610290575190565b91926137766020946001600160a01b03613784946103ec875260018888015216604086015260c0606086015260c0850190610fc0565b908382036080850152610fc0565b9060a08183039101525f81520190565b90602090818382031261029057825167ffffffffffffffff93848211610290570181601f82011215610290578051938411610426578360051b90604051946137de85840187610447565b85528380860192820101928311610290578301905b828210613801575050505090565b815181529083019083016137f3565b6001600160a01b03809116906040918251926380e9e9e160e01b84525f916004838680613845848201906103e9602083019252565b0381855afa95861561066257849661390c575b50835b86518110156139025761389085613872838a6125a8565b5186518093819263c9100bcb60e01b83528783019190602083019252565b0381875afa90811561066257869087926138dc575b506103e91490816138d0575b506138c4576138bf906124d8565b61385b565b50505050505050600190565b8716301490505f6138b1565b6103e992506138f591503d8089833e6111bd8183610447565b50505092919050906138a5565b5050505091505090565b6139299196503d8086833e6139218183610447565b810190613794565b945f613858565b6001600160a01b03809116906040918251926380e9e9e160e01b84525f916004838680613965848201906103ea602083019252565b0381855afa9586156106625784966139f8575b50835b86518110156139025761399285613872838a6125a8565b0381875afa90811561066257869087926139d2575b506103ea1490816139c6575b506138c4576139c1906124d8565b61397b565b8716301490505f6139b3565b6103ea92506139eb91503d8089833e6111bd8183610447565b50505092919050906139a7565b613a0d9196503d8086833e6139218183610447565b945f613978565b6001600160a01b03809116906040918251926380e9e9e160e01b84525f916004838680613a49848201906103eb602083019252565b0381855afa958615610662578496613adc575b50835b865181101561390257613a7685613872838a6125a8565b0381875afa9081156106625786908792613ab6575b506103eb149081613aaa575b506138c457613aa5906124d8565b613a5f565b8716301490505f613a97565b6103eb9250613acf91503d8089833e6111bd8183610447565b5050509291905090613a8b565b613af19196503d8086833e6139218183610447565b945f613a5c565b6001600160a01b03809116916040928351936380e9e9e160e01b85525f916004838780613b2c888583019190602083019252565b0381855afa968715610662578497613bd4575b50835b8751811015613bc957613b5985613872838b6125a8565b0381875afa90811561066257879087908893613ba5575b50149081613b99575b50613b8c57613b87906124d8565b613b42565b5050505050505050600190565b8816301490505f613b79565b9050613bbc9192503d8089833e6111bd8183610447565b505050929190505f613b70565b505050509250505090565b613be99197503d8086833e6139218183610447565b955f613b3f56fea2646970667358221220280a52f3c6bc06f68c49e9b8babdfca0e4e30b1f4ed194ddcb44abff6add91f964736f6c63430008140033","linkReferences":{}},"methodIdentifiers":{"AADHAAR_VERIFIED()":"ebcd13dd","FACE_MATCHED()":"4ded3e14","PAN_VERIFIED()":"fc80f7ae","ZKETHER_ELIGIBLE()":"4e110359","addClaim(uint256,uint256,address,bytes,bytes,string)":"b1a34e0d","addKey(bytes32,uint256,uint256)":"1d381240","approve(uint256,bool)":"747442d3","createIdentity(address,address)":"d10e73ab","execute(address,uint256,bytes)":"b61d27f6","getClaim(bytes32)":"c9100bcb","getClaimIdsByTopic(uint256)":"80e9e9e1","getKey(bytes32)":"12aaac70","getKeyPurposes(bytes32)":"fb307b34","getKeysByPurpose(uint256)":"9010f726","getRecoveredAddress(bytes,bytes32)":"c3b129e3","getUserClaim(address,uint256)":"65c31a7d","hasUserClaim(address,uint256)":"ce617616","hasValidClaim(address,uint256)":"2c52e7ab","identityToUser(address)":"11062018","initialize(address)":"c4d66de8","isClaimRevoked(bytes)":"2646b264","isClaimValid(address,uint256,bytes,bytes)":"c0969a6e","issueAadhaarClaim(address,string,bytes)":"eb0ea581","issueFaceMatchClaim(address,string,bytes)":"f6c025eb","issuePANClaim(address,string,bytes)":"8005701e","issuezkETHerEligibilityClaim(address,string,bytes)":"118ce5e2","keyHasPurpose(bytes32,uint256)":"d202158d","removeClaim(bytes32)":"4eee424a","removeKey(bytes32,uint256)":"53d413c5","revokeClaim(bytes32,address)":"73c33708","revokeClaimBySignature(bytes)":"9f7f9edd","revokedClaims(bytes)":"d2345249","sandboxPublicKey()":"2998ff09","updateSandboxPublicKey(address)":"0d0bdedb","userClaims(address,uint256)":"ca9748ea","userHasClaim(address,uint256)":"43752c79","userToIdentity(address)":"7597a109","validateSandboxResponse(bytes)":"ca309209","version()":"54fd4d50"},"id":40}